:100000000C945D000C9485000C9485000C94850084
:100010000C9485000C9485000C9485000C9485004C
:100020000C9485000C9485000C9485000C94E907D1
:100030000C9485000C9485000C9485000C9485002C
:100040000C9447070C9485000C94B7070C94910707
:100050000C9485000C9485000C9485000C9485000C
:100060000C94A5080C948500000000080002010013
:100070000003040700000000000000000000000072
:10008000250028002B0000000000240027002A0083
:10009000040404040404040402020202020203032E
:1000A0000303030301020408102040800102040836
:1000B0001020010204081020C40911241FBECFEF34
:1000C000D8E0DEBFCDBF12E0A0E0B1E0E2E8F6E2AA
:1000D00002C005900D92A237B107D9F724E0A2E73C
:1000E000B2E001C01D92A033B207E1F710E0CDE508
:1000F000D0E004C02197FE010E94730FCC35D107D8
:10010000C9F70E945E0A0C943F130C94000090E023
:10011000FC01EC55FF4F249180579F4FFC018491C7
:10012000882399F090E0880F991FFC01EA57FF4F50
:10013000A591B491FC01E458FF4F859194918FB73C
:10014000F894EC91E22BEC938FBF089580E48093B8
:100150007C0080917A00806480937A0080917A009C
:1001600086FDFCCF809178009091790008958F9260
:100170009F92AF92BF92FF920F931F93CF93DF9303
:10018000F09029042BE02F1508F44CC020912B048B
:1001900008E512E0021B110927FD1395000F111F3E
:1001A000000F111F20912A04C8E8D0E0C21BD1091A
:1001B00027FDD395CC0FDD1FCC0FDD1F4E010D2E7B
:1001C000000CAA08BB089801012E000C440B550B2B
:1001D000281939094A095B09DC010E94F00E24EB59
:1001E00030E040E050E00E94C60E820E931EA41E36
:1001F000B51E8C169D062CF0E801801691060CF4B5
:10020000E4012297CC0FDD1F2FB7F8948F2D90E0DB
:10021000FC01EE0FFF1FE80FF91FE451FC4FD283E2
:10022000C1832FBFDF91CF911F910F91FF90BF909E
:10023000AF909F908F90089590E0FC01E859FF4F98
:100240002491FC01EC55FF4F3491FC01E057FF4F26
:10025000E491EE23C9F0222339F0233001F1A8F410
:10026000213019F1223029F1F0E0EE0FFF1FE458A0
:10027000FF4FA591B4918FB7F894EC91611126C00E
:1002800030953E233C938FBF08952730A9F0283046
:10029000C9F0243049F7809180008F7D03C08091A0
:1002A00080008F7780938000DFCF84B58F7784BD07
:1002B000DBCF84B58F7DFBCF8091B0008F778093AB
:1002C000B000D2CF8091B0008F7DF9CF3E2BDACF36
:1002D0003FB7F8948091EF029091F002A091F10263
:1002E000B091F20226B5A89B05C02F3F19F00196E8
:1002F000A11DB11D3FBFBA2FA92F982F8827BC0180
:10030000CD01620F711D811D911D42E0660F771FA7
:10031000881F991F4A95D1F708958F929F92AF92A7
:10032000BF92CF92DF92EF92FF924B015C010E944D
:1003300068016B017C010E9468016C197D098E09BE
:100340009F09683E734081059105A8F321E0821A58
:100350009108A108B10888EEC80E83E0D81EE11C00
:10036000F11C81149104A104B10429F7FF90EF90CE
:10037000DF90CF90BF90AF909F908F9008952FB750
:10038000F8946091EB027091EC028091ED029091F3
:10039000EE022FBF089508950895AF92BF92CF92B5
:1003A000DF92EF92FF920F931F93CF93DF936C0135
:1003B0007B018B01040F151FEB015E01AE18BF0816
:1003C000C017D10759F06991D601ED91FC910190C8
:1003D000F081E02DC6010995892B79F7C501DF91E0
:1003E000CF911F910F91FF90EF90DF90CF90BF9032
:1003F000AF900895FC01538D448D252F30E0842F5C
:1004000090E0821B930B541710F0CF96089501973C
:100410000895FC01918D828D981761F0A28DAE0F29
:10042000BF2FB11D5D968C91928D9F5F9F73928FB0
:1004300090E008958FEF9FEF0895FC01918D828DDC
:10044000981731F0828DE80FF11D858D90E00895A9
:100450008FEF9FEF0895FC01918D228D892F90E001
:10046000805C9F4F821B91098F739927089583E4C5
:1004700093E00E942B0221E0892B09F420E0822FD7
:10048000089580E090E0892B29F00E9437028111C5
:100490000C9400000895FC01A48DA80FB92FB11D84
:1004A000A35ABF4F2C91848D90E001968F739927AA
:1004B000848FA689B7892C93A089B1898C91837088
:1004C00080648C93938D848D981306C00288F38981
:1004D000E02D80818F7D80830895EF92FF920F93AE
:1004E0001F93CF93DF93EC0181E0888F9B8D8C8DE0
:1004F00098131AC0E889F989808185FF15C09FB7D4
:10050000F894EE89FF896083E889F9898081837096
:10051000806480839FBF81E090E0DF91CF911F9145
:100520000F91FF90EF900895F62E0B8D10E00F5F66
:100530001F4F0F731127E02E8C8D8E110CC00FB63C
:1005400007FCFACFE889F989808185FFF5CFCE01D4
:100550000E944B02F1CFEB8DEC0FFD2FF11DE35A02
:10056000FF4FF0829FB7F8940B8FEA89FB89808157
:100570008062CFCFCF93DF93EC01888D8823B9F0D1
:10058000AA89BB89E889F9898C9185FD03C080819E
:1005900086FD0DC00FB607FCF7CF8C9185FFF2CF1B
:1005A000808185FFEDCFCE010E944B02E9CFDF9124
:1005B000CF910895089520919302260F3327331F7A
:1005C00021323105ECF420911903FC0190E080E028
:1005D000243069F082E00895A09193022191AC014A
:1005E0004D585D4FA40FB52FB11D2C930196861762
:1005F00098F380919302680F6093930280E00895CE
:1006000081E008951092190381E0809318031092FD
:10061000F30261E082E10E941C0161E083E10E943B
:100620001C01E9EBF0E080818E7F808380818D7FEB
:10063000808388E48093B80085E48093BC000895AB
:10064000CF93DF9391E0909372028823B9F0C09129
:10065000B800D091BA008091BC008A7B8093BC0026
:1006600060E082E10E941C0160E083E10E941C01C5
:100670000E940203D093BA00C093B800DF91CF91DB
:1006800008958F929F92AF92BF92CF92DF92EF9296
:10069000FF920F931F93CF93DF93D0914203D132F8
:1006A00008F0D7C0182FC09141030E9468016B0168
:1006B0007C018091190381116BC082E08093190342
:1006C000109318038FEF8093170310921603D093A3
:1006D0001503A1E2B3E0E5EFF2E080E0D81391C0AA
:1006E0001092F4028091F402CC0FC82BC093F40254
:1006F0008091F302813009F088C01092F3020E94C9
:1007000068016B017C018091F4028093BB008091B1
:100710001B0390911C03A0911D03B0911E03892B14
:100720008A2B8B2BA1F00E94680100911B03109172
:100730001C0320911D0330911E036C197D098E0945
:100740009F09061717072807390708F442C0809148
:10075000BC0083FDD8CF85EC8093BC000E9468016B
:100760006B017C0180911903823009F450C08091A3
:1007700017038F3F09F46FC080911703803209F48B
:100780006CC080911703803309F469C084E026C0EF
:1007900080911B0390911C03A0911D03B0911E0337
:1007A000892B8A2B8B2B09F484CF0E9468018090BF
:1007B0001B0390901C03A0901D03B0901E036C19A6
:1007C0007D098E099F0986169706A806B90608F0C6
:1007D00070CF80911A030E94200385E010922003BD
:1007E0001092420310921F03DF91CF911F910F913E
:1007F000FF90EF90DF90CF90BF90AF909F908F9041
:1008000008959D9191938F5F69CF85EEA5CF8091DB
:100810001B0390911C03A0911D03B0911E03892B13
:100820008A2B8B2B09F49ECF0E94680100911B0339
:1008300010911C0320911D0330911E036C197D093A
:100840008E099F09061717072807390708F08ACF6E
:10085000C0CF81E0C3CF80E0C1CF82E0BFCF83E0D3
:10086000BDCF1F93CF93DF93EA01122FDC011196C6
:100870008D919C91DC01ED91FC910280F381E02D42
:100880000995C817D90729F4812F0E94410391E0E7
:10089000811190E0892FDF91CF911F910895CF931F
:1008A000DF93EC018B818823A1F0888191E0909304
:1008B0001F0380934103109220031092420381E0B2
:1008C0000E94410391E0811190E0892FDF91CF9147
:1008D00008951092BC021092BB0210922003109255
:1008E00042030E9402038BEC91E09093BA02809342
:1008F000B9028CEC91E09093B8028093B70281E04A
:100900008B83CE010E944F04982F8111CECFDDCF73
:100910000895E091BC028091BB02E81730F4F0E04A
:10092000E354FD4F808190E008958FEF9FEF08958D
:100930009091BC028091BB022FEF3FEF981748F4D3
:10094000E92FF0E0E354FD4F208130E09F5F90936A
:10095000BC02C90108958091BB029091BC02891B21
:10096000990B0895CF92DF92EF92FF920F931F930E
:10097000CF93DF937C01CB018A0120911F032223B7
:1009800089F0EB016B01C40ED51ECC15DD0569F0B5
:100990006991D701ED91FC910190F081E02DC701A3
:1009A0000995F3CF642F0E94DB02C801DF91CF913C
:1009B0001F910F91FF90EF90DF90CF900895CF930C
:1009C000DF931F92CDB7DEB7698320911F032223E7
:1009D000F9F020914203203258F021E030E0FC0190
:1009E0003383228390E080E00F90DF91CF910895D0
:1009F00080912003E82FF0E0EF5DFC4F9981908318
:100A00008F5F809320038093420381E090E0ECCFDE
:100A100061E0CE0101960E94DB02F7CF90E080E01A
:100A20000895CF93DF93EC0160E08E810E941C015A
:100A300061E08E810E941C0160E08E810E941C0199
:100A40008BE891E00197F1F7DF91CF910895CF9274
:100A5000DF92EF92FF920F931F93CF93DF936C017E
:100A60007C0187E0E80EF11CD0E0C0E0062F10E02A
:100A7000B8010C2E02C0759567950A94E2F7617073
:100A8000F70181917F010E941C012196C430D1059C
:100A900079F7C601DF91CF911F910F91FF90EF90F1
:100AA000DF90CF900C941105CF92DF92EF92FF92DE
:100AB0000F931F93CF93DF93EC01F62E642F8C815D
:100AC0000E941C018D818F3F19F060E00E941C0183
:100AD0000F2D10E08F8584FF25C06E0187E0C80EC2
:100AE000D11CF12CE12CB8010E2C02C07595679534
:100AF0000A94E2F76170F60181916F010E941C0176
:100B0000FFEFEF1AFF0A88E0E816F10461F7CE0163
:100B1000DF91CF911F910F91FF90EF90DF90CF90D9
:100B20000C941105B80184E0759567958A95E1F7F5
:100B3000CE010E9427056F2DCE01DF91CF911F912D
:100B40000F91FF90EF90DF90CF900C94270540E03D
:100B5000682F81E194E00C94540581E00E94A70580
:100B60008BE39FE10197F1F70895CF93DF938230F4
:100B700029F4909120049860909320048093240499
:100B80001092250480E48093260480E1809327045A
:100B900080E580932804809115040E94870080914D
:100BA00016048F3F11F00E948700809117040E9465
:100BB0008700C1E1D4E09E0121513440809120049E
:100BC00084FD0AC084E090E02196281739073CF4A0
:100BD0008E810E948700EFCF88E090E0F5CF8BE315
:100BE0009DE00197F1F760E0809115040E941C01DF
:100BF00060E0809117040E941C01809116048F3FD1
:100C000019F060E00E941C018091200484FD34C032
:100C100063E081E194E00E942705CBE4D6E4CE01B5
:100C20000197F1F763E081E194E00E9427052197A5
:100C3000F1F763E081E194E00E94270583E592E00B
:100C40000197F1F762E081E194E00E94270580912D
:100C5000200480620E94A70584E0809321048CE038
:100C60000E94A7050E94AD0582E08093220486E0E1
:100C7000DF91CF910C94A70580620E94A7058BE4B9
:100C800096E40197F1F78091200480620E94A70505
:100C900083E592E00197F1F78091200480620E9441
:100CA000A705D5CFE0912404E23040F4E150F0E014
:100CB000EF5EFB4F848980680C94A705E1E0F7CFD5
:100CC00041E00E94540581E090E00895FB0101900D
:100CD0000020E9F73197AF01461B570BDC01ED917E
:100CE000FC910280F381E02D09944F925F926F9204
:100CF0007F92AF92BF92CF92DF92EF92FF920F93CB
:100D00001F93CF93DF93CDB7DEB7A1970FB6F894BB
:100D1000DEBF0FBECDBF5C016A017B01F7FE47C09D
:100D2000DC01ED91FC910190F081E02D6DE20995DF
:100D30008C0122273327A9012C193D094E095F098F
:100D400019A2FE01B1967F019AE0492E512C612C27
:100D5000712CCA01B901A30192010E942F0F605D9D
:100D6000D7016E937D01211531054105510589F7A4
:100D700090E080E0109721F0BD01C5010E94660659
:100D8000800F911FA1960FB6F894DEBF0FBECDBFA6
:100D9000DF91CF911F910F91FF90EF90DF90CF9057
:100DA000BF90AF907F906F905F904F900895AB0190
:100DB000960119A28E010F5D1F4F8AE0C82ED12C1B
:100DC000E12CF12CCA01B901A70196010E942F0F55
:100DD000605DF80162938F012115310541055105D0
:100DE00089F790E080E0309769F2BF01C5010E9469
:100DF0006606C8CFCF93DF93BC0183E493E00E94E3
:100E00006606EC016EE371E083E493E00E946606FF
:100E10008C0F9D1FDF91CF9108950C94660685ED90
:100E20008093BC0080911B0390911C03A0911D0333
:100E3000B0911E030796A11DB11D23E0B695A7959D
:100E4000979587952A95D1F72091BC0024FD03C082
:100E500010921903089540911B0350911C03609157
:100E60001D0370911E03452B462B472B69F30097FA
:100E7000A105B10541F02AE22A95F1F700C00197DA
:100E8000A109B109E1CF80911A030C9420031F92AC
:100E90000F920FB60F9211242F933F938F939F932E
:100EA000AF93BF938091EB029091EC02A091ED0281
:100EB000B091EE023091EA0223E0230F2D3758F56E
:100EC0000196A11DB11D2093EA028093EB0290933D
:100ED000EC02A093ED02B093EE028091EF029091AC
:100EE000F002A091F102B091F2020196A11DB11D94
:100EF0008093EF029093F002A093F102B093F2027C
:100F0000BF91AF919F918F913F912F910F900FBE05
:100F10000F901F90189526E8230F0296A11DB11D72
:100F2000D2CF1F920F920FB60F9211242F933F939F
:100F30004F935F936F937F938F939F93AF93BF93E1
:100F4000EF93FF9383E493E00E944B02FF91EF91B4
:100F5000BF91AF919F918F917F916F915F914F91D1
:100F60003F912F910F900FBE0F901F9018951F92D9
:100F70000F920FB60F9211242F938F939F93EF939D
:100F8000FF93E0915303F09154038081E091590362
:100F9000F0915A0382FD1BC0908180915C038F5FAA
:100FA0008F7320915D03821741F0E0915C03F0E0C4
:100FB000ED5BFC4F958F80935C03FF91EF919F91C8
:100FC0008F912F910F900FBE0F901F9018958081D9
:100FD000F4CF1F920F920FB60F9211242F933F93CD
:100FE0004F935F936F937F938F939F93AF93BF9331
:100FF000CF93DF93EF93FF938091B602C0911004DB
:10100000D0E087FF24C01092850010928400809168
:10101000B6028F5F8093B6028091B602082E000C54
:10102000990B8C179D0724F48091B6028C30C4F183
:101030008091840090918500049680349C4908F446
:101040007AC08091840090918500049676C080914A
:10105000B602082E000C990B8C179D07C4F6E09180
:10106000B6028E2FEE0F990BFC01EE0FFF1FE80F5B
:10107000F91FE451FC4F808186FFC9CFE091B60291
:101080008E2FEE0F990BFC01EE0FFF1FE80FF91FDB
:10109000E451FC4F808160E08F730E941C01B7CF48
:1010A0002091840030918500E091B6028E2FEE0FE2
:1010B000990BFC01EE0FFF1FE80FF91FE451FC4FE5
:1010C00081819281820F931F909389008093880081
:1010D000E091B6028E2FEE0F990BFC01EE0FFF1F71
:1010E000E80FF91FE451FC4F808186FF11C0E091A9
:1010F000B6028E2FEE0F990BFC01EE0FFF1FE80FCB
:10110000F91FE451FC4F808161E08F730E941C0144
:10111000FF91EF91DF91CF91BF91AF919F918F910F
:101120007F916F915F914F913F912F910F900FBEE3
:101130000F901F90189580E49CE99093890080930C
:1011400088008FEF8093B602E3CF1F920F920FB605
:101150000F9211242F933F934F935F936F937F933D
:101160008F939F93AF93BF93EF93FF938091B900B9
:10117000887F803609F44AC0F0F5883209F4A7C0A8
:1011800018F5803109F49BC0B8F4882309F4F9C03C
:10119000883009F494C0FF91EF91BF91AF919F9176
:1011A0008F917F916F915F914F913F912F910F9010
:1011B0000FBE0F901F901895883109F488C08032B7
:1011C00051F78093170314C0803409F49DC040F494
:1011D0008033B9F38833F9F68093170385ECB0C0F8
:1011E000803509F485C0883509F496C0883499F6AD
:1011F0000E940F07D0CF883909F48CC038F58837A2
:1012000029F050F4883611F0803729F683E0809376
:1012100019031092B50257C0883809F47BC0803991
:1012200019F0803809F0B7CF8091B502803208F00C
:1012300071C0E091B50281E08E0F8093B50280917C
:10124000BB00F0E0EB56FD4F80833DC0803B39F0A2
:10125000E0F4803A09F479C0883A09F09CCF84E040
:10126000809319031092940210929302E091B902B4
:10127000F091BA0209958091930281110FC081E02B
:10128000809393021092730209C0803C09F4A6CFA8
:10129000883C09F4A3CF883B09F07DCFE09194020C
:1012A00081E08E0F80939402F0E0ED58FD4F808135
:1012B0008093BB00909194028091930229C0809109
:1012C000F4028093BB0085EC8093BC0064CF9091C6
:1012D000160380911503981758F5E091160381E0E5
:1012E0008E0F80931603F0E0EB50FD4F8081E9CF25
:1012F000E091160381E08E0F809316038091BB006E
:10130000F0E0EB50FD4F8083909116038091150320
:101310009817C8F285E8D8CFE091160381E08E0FC8
:10132000809316038091BB00F0E0EB50FD4F80836B
:101330008091180381115CCF81E08093F30284EAED
:101340008093BC001092190326CF85EC8093BC00DB
:10135000109219038091B502803230F4E091B50209
:10136000F0E0EB56FD4F10826091B50270E0E09125
:10137000B702F091B80285E992E009951092B502A2
:101380000ACF1092170334CF1092460310924503F0
:1013900088EE93E0A0E0B0E0809347039093480389
:1013A000A0934903B0934A0322E131E03093440310
:1013B0002093430325EC30E03093500320934F03F8
:1013C00024EC30E0309352032093510320EC30E0C2
:1013D000309354032093530321EC30E030935603B1
:1013E0002093550322EC30E03093580320935703A9
:1013F00026EC30E030935A032093590310925C039B
:1014000010925D0310925E0310925F031092E3034B
:101410001092E2038093E4039093E503A093E60324
:10142000B093E70384E291E09093E1038093E003BB
:10143000809110048C30F0F591E0980F9093100497
:101440008093290490E0FC01EE0FFF1FE80FF91FC5
:10145000E451FC4F88EB9BE092838183109214044B
:101460001092130486E391E0909312048093110488
:101470008CE0809315048FEF809316048BE08093AB
:10148000170487E08093180486E08093190485E0B0
:1014900080931A0484E080931B0410921C04109221
:1014A0001D0410921E0410921F041092200481E06B
:1014B0000C94B5058FEF80932904D0CFCF93DF93A1
:1014C000CDB7DEB766970FB6F894DEBF0FBECDBFBF
:1014D000789484B5826084BD84B5816084BD85B50F
:1014E000826085BD85B5816085BD80916E0081601B
:1014F00080936E00109281008091810082608093C1
:1015000081008091810081608093810080918000C2
:101510008160809380008091B10084608093B100ED
:101520008091B00081608093B00080917A008460E7
:1015300080937A0080917A00826080937A00809113
:101540007A00816080937A0080917A00806880932D
:101550007A001092C100E0915303F091540382E0AD
:101560008083E0914F03F09150031082E09151038A
:10157000F09152038FEC808310925B03E09157034C
:10158000F091580386E08083E0915503F091560373
:10159000808180618083E0915503F09156038081C2
:1015A00088608083E0915503F091560380818068C4
:1015B0008083E0915503F091560380818F7D808375
:1015C0008091E8029091E902009711F00E941510B5
:1015D00086E090E00E94790F8C0188E6D8018C9318
:1015E00080EE93E012969C938E93119713961C9223
:1015F000139780E290E015969C938E931497109326
:10160000E9020093E8021092BC021092BB02109211
:101610002003109242030E9402038BEC91E090930E
:10162000BA028093B9028CEC91E09093B802809357
:10163000B702FF24F394F801F382C8010E944F041B
:10164000811105C081E491E00E94FA06FFCFCE012E
:101650000196998B888B86E0A889B9891D928A9515
:10166000E9F788E58B8387E08C8388E28E8384E0CA
:101670008F8385E288878091E8029091E902FC01DE
:10168000248135812830310588F02081F0921F03B4
:1016900020934103109220031092420321E048E07E
:1016A00050E0BE016F5F7F4F0E94310482E00E94D4
:1016B000B50563E571E081E194E00E940D070E94A9
:1016C000520660E671E081E194E00E940D0760ED52
:1016D00077E080E090E00E948D01809129048C30B9
:1016E00008F050C089E00E94870080912904282FCB
:1016F00030E0F901EE0FFF1FE20FF31FE451FC4F42
:101700009081907C9960908310922A0410922B040F
:101710002CE0622F0E94600F829FB001112430E004
:1017200020E0AB01420F531FFA01EE0FFF1FE40F41
:10173000F51FE451FC4F908196FD16C02F5F3F4F7F
:101740002C30310571F781110FC01092800082E0BA
:10175000809381001092850010928400B19A80914C
:101760006F00826080936F00E09129048E2F90E0DB
:10177000FC01EE0FFF1FE80FF91FE451FC4F8081C1
:101780008064808390E080E00E94B70088E00E943F
:10179000870060E088E00E941C01FE013A96FB8B06
:1017A000EA8B1982A090E802B090E902D501149664
:1017B0008D919C911597892B09F419C18C9191E019
:1017C00090931F03809341031092200310924203D1
:1017D00020E041E050E0BE016F5F7F4FC5010E94F5
:1017E0003104882309F403C1D12CC12C77247394CC
:1017F000F50184819581F7E0EF2EF12CEC18FD08BE
:101800008E159F0508F47C01D5010C910E9468019A
:101810001B012C0180911903811172C01E2D113200
:1018200008F010E27092190321E087E090E08E1931
:101830009F09C816D90608F420E020931803BFEFCB
:10184000B0931703109216038FEF810F8093150347
:101850007092F4028091F402000F082B0093F402BE
:101860008091F302813009F095C01092F3020E943A
:1018700068011B012C018091F4028093BB008091D0
:101880001B0390911C03A0911D03B0911E03892B93
:101890008A2B8B2BA1F00E94680120911B033091B1
:1018A0001C0340911D0350911E03621973098409A2
:1018B0009509261737074807590708F442C0809151
:1018C000BC0083FDD8CFE5ECE093BC000E9468012A
:1018D0001B012C0180911903813009F45FC08091B4
:1018E0001603811710F410911603A5EFB2E0EDEB8B
:1018F000F2E080E0811751F19D9191938F5FFACFD3
:1019000080911B0390911C03A0911D03B0911E03B5
:10191000892B8A2B8B2B09F47DCF0E9468012091A3
:101920001B0330911C0340911D0350911E0362194B
:10193000730984099509261737074807590708F0DE
:1019400069CF80911A030E94200310E01092BC021C
:101950001093BB021E151F0409F049C001E010E0FE
:101960000C0F1D1F0C0D1D1D4801C8018819990978
:101970008E159F05A8F5D50111968D919C91DC01DE
:10198000ED91FC910284F385E02D0995F801819396
:101990008F01EBCFF5EEF093BC0098CF80911B0345
:1019A00090911C03A0911D03B0911E03892B8A2BDB
:1019B0008B2B09F48FCF0E94680120911B0330917B
:1019C0001C0340911D0350911E0362197309840981
:1019D0009509261737074807590708F07BCFB1CF7D
:1019E000CE0CDF1CF7E0CF16D10408F401CF29811B
:1019F0002E8B2A81822F90E044E0959587954A9519
:101A0000E1F7982F990F990F082F091B000F020F6C
:101A10002B81822F90E054E0959587955A95E1F7B8
:101A2000982F990F990F182F191B110F120F6DED89
:101A3000E62E62E0F62E8AE091E09D8B8C8B76E0BC
:101A4000A72E71E0B72E412C512C32014394812EE8
:101A5000912C202E312CAC89BD898D919D91BD8B0F
:101A6000AC8B8816990609F08CC1F501C080D18035
:101A70002C143D04B9F5D7018C91811133C084EB4E
:101A800090E00E94B7000E94AD0560E771E081E13F
:101A900094E00E940D070E9452066EE771E081E11A
:101AA00094E00E940D0768EB7BE080E090E00E94EC
:101AB0008D0190E080E00E94B70021E0F7012083D3
:101AC0000E94BF016EE871E083E493E00E940D077D
:101AD000B301A20183E493E00E94750688E991E0D6
:101AE0000E94FA069FEFC91AD90AC214D304BCF4A3
:101AF000D7018C91882399F01C9264EA71E083E409
:101B000093E00E940D07B301A20183E493E00E94D9
:101B100075066EE371E083E493E00E946606BFEF12
:101B2000EB1AFB0AE2E0AE0EB11CF2E04F165104D4
:101B30006104710409F0E5C00E94A6007C0161EC1B
:101B400071E083E493E00E940D07A7010F2C000CC5
:101B5000660B770B83E493E00E9475066EE371E0F9
:101B600083E493E00E9466068091E3022CE2E21691
:101B700021E0F2060CF0CBC0811115C061E088E0D5
:101B80000E941C0181E08093E3020E94BF016093E8
:101B9000DF027093E0028093E1029093E2028FEC07
:101BA00091E00E94FA068091E3028823E9F00E9406
:101BB000BF01C090DF02D090E002E090E102F0901F
:101BC000E2026C197D098E099F0961317742810516
:101BD000910550F060E088E00E941C011092E30241
:101BE0008AE192E00E94FA060E94BF01C090E402DE
:101BF000D090E502E090E602F090E7026C197D09D2
:101C00008E099F09683E73408105910508F466C0FE
:101C10009E88E89497F80E94BF016093E402709355
:101C2000E5028093E6029093E7020E94A6007C0101
:101C3000892D90E024E0959587952A95E1F7982FD6
:101C4000990F990F891B880F980E1F929F921F92D0
:101C50000F931F921F93E7E4F2E0FF93EF9381E06D
:101C600090E08C0F9D1F9F938F930E949E100E9467
:101C7000AD05BE016F5F7F4F81E194E00E940D07CB
:101C800066E572E081E194E00E940D0724E630E011
:101C9000D7010E946C0F2FEF33E040E050E00E942C
:101CA000C60EBA01A90181E194E00E9475066AE5B9
:101CB00072E081E194E00E940D070E9452060FB687
:101CC000F894DEBF0FBECDBF8091E302882359F1A7
:101CD0006CE572E081E194E00E940D0768EC70E031
:101CE00080E090E00E948D0180E090E0892B09F473
:101CF00058CD0E943702882309F453CD0E9400007A
:101D000050CD32E0432E512C612C712CA4CE88236F
:101D100009F449CF60E088E00E941C011092E302C0
:101D200080EF91E03ECF65E672E081E194E00E94B1
:101D30000D071F921F921850E1E0F0E0183010F0EC
:101D4000F0E0E0E0EE0FFF1FE65FFE4F81818F9332
:101D500080818F938CE492E09F938F93BB89BF9394
:101D6000EA89EF930E949E10BE01665F7F4F81E17A
:101D700094E00E940D070FB6F894DEBF0FBECDBFF2
:101D8000ADCF881599050CF4B3CEC9CE052E97FBBF
:101D90001EF400940E94DD0E57FD07D00E942F0F05
:101DA00007FC03D04EF40C94DD0E50954095309511
:101DB00021953F4F4F4F5F4F0895909580957095B7
:101DC00061957F4F8F4F9F4F08950E94510FA59FA0
:101DD000900DB49F900DA49F800D911D1124089526
:101DE000B7FF0C94E50E0E94E50E821B930B08953D
:101DF0002F923F924F925F926F927F928F929F921B
:101E0000AF92BF92CF92DF92EF92FF920F931F9308
:101E1000CF93DF93CDB7DEB7CA1BDB0B0FB6F894B9
:101E2000DEBF0FBECDBF09942A88398848885F84F9
:101E30006E847D848C849B84AA84B984C884DF806A
:101E4000EE80FD800C811B81AA81B981CE0FD11D4E
:101E50000FB6F894DEBF0FBECDBFED010895A1E22D
:101E60001A2EAA1BBB1BFD010DC0AA1FBB1FEE1F14
:101E7000FF1FA217B307E407F50720F0A21BB30B5F
:101E8000E40BF50B661F771F881F991F1A9469F7DB
:101E900060957095809590959B01AC01BD01CF0137
:101EA0000895A29FB001B39FC001A39F700D811D33
:101EB0001124911DB29F700D811D1124911D089553
:101EC000991B79E004C0991F961708F0961B881F8C
:101ED0007A95C9F7809508950E94510FB7FF08952C
:101EE000821B930B0895EE0FFF1F0590F491E02DD8
:101EF00009940F931F93CF93DF938230910510F4D1
:101F000082E090E0E0912E04F0912F0430E020E098
:101F1000B0E0A0E0309799F42115310509F44AC0EA
:101F2000281B390B24303105D8F58A819B81611536
:101F3000710589F1FB0193838283FE0111C0408109
:101F400051810281138148175907E0F0481759075A
:101F500099F4109761F012960C93129713961C93B4
:101F60003296CF01DF91CF911F910F910895009389
:101F70002E0410932F04F4CF2115310551F0421790
:101F8000530738F0A901DB019A01BD01DF01F80117
:101F9000C1CFEF01F9CF90932F0480932E04CDCFC2
:101FA000FE01E20FF31F819391932250310939838F
:101FB0002883D7CF20912C0430912D04232B41F47A
:101FC000209102013091030130932D0420932C04C1
:101FD00020910001309101012115310541F42DB707
:101FE0003EB74091040150910501241B350BE0914F
:101FF0002C04F0912D04E217F307A0F42E1B3F0BE5
:102000002817390778F0AC014E5F5F4F241735076A
:1020100048F04E0F5F1F50932D0440932C04819382
:1020200091939FCFF0E0E0E09CCFCF93DF930097B8
:10203000E9F0FC01329713821282A0912E04B09134
:102040002F04ED0130E020E01097A1F420813181D0
:10205000820F931F20912C0430912D0428173907EB
:1020600009F061C0F0932D04E0932C04DF91CF912F
:102070000895EA01CE17DF07E8F54A815B819E01EA
:1020800041155105B1F7E901FB83EA834991599163
:10209000C40FD51FEC17FD0761F480819181029672
:1020A000840F951FE90199838883828193819B83A3
:1020B0008A83F0E0E0E012968D919C91139700974F
:1020C000B9F52D913C911197CD010296820F931F86
:1020D00020912C0430912D042817390739F63097B8
:1020E00051F510922F0410922E04B0932D04A0935A
:1020F0002C04BCCFD383C28340815181840F951FB0
:10210000C817D90761F44E5F5F4F88819981480FE6
:10211000591F518340838A819B8193838283211538
:10212000310509F0B0CFF0932F04E0932E049ECF39
:10213000FD01DC01C0CF13821282D7CFAEE0B0E048
:10214000E4EAF0E10C94060F0D891E8986E08C8389
:102150001A8309838FEF9FE79E838D83AE01475ECD
:102160005F4F6F89788DCE0101960E94C1102F813B
:102170003885020F131FF80110822E96E4E00C94AC
:10218000220FABE0B0E0E7ECF0E10C94F80E7C013C
:102190003B018A01FC0117821682838181FFC8C13D
:1021A000CE0101965C01F7019381F30193FD8591C6
:1021B00093FF81913F01882309F453C1853239F49B
:1021C00093FD859193FF81913F01853229F4B701F9
:1021D00090E00E94B112E7CF912C212C312CFFE12D
:1021E000F31538F08B3211F190F4803209F183321B
:1021F00029F137FC3CC020ED280F2A3050F536FE7F
:1022000020C08AE0989E200D1124922E06C08D32A7
:1022100091F0803371F7689430F8F30193FD859164
:1022200093FF81913F018111DACF21C0689431F889
:10223000689432F8F2CF689433F8EFCF689434F8AA
:10224000ECCFEAE02E9E200D1124222E689435F862
:10225000E4CF8E3229F436FC04C1689436F8DDCF21
:102260008C3619F4689437F8D8CF8836B1F2982FA5
:102270009F7D95549330E0F08336A1F18337C1F10F
:10228000833509F063C02801F2E04F0E511CF801BC
:10229000C080D180692D70E036FC02C06FEF7FEF07
:1022A000C6010E949B124C01689437F882010AC053
:1022B0000C5F1F4FFFE3F98388248394912C650101
:1022C000E89437F833FE2DC0522C8114910471F537
:1022D000552009F468CFB70180E290E00E94B11266
:1022E0005A94F6CFF801808189830E5F1F4FE4CFA7
:1022F0002801F2E04F0E511CF801C080D180692DF9
:1023000070E036FC02C06FEF7FEFC6010E94A6129C
:102310004C018201D5CFB70180E290E00E94B1125A
:102320002A942814190409F0B0F7CECFF60137FC2F
:10233000859137FE81916F01B70190E00E94B11243
:1023400051105A94F1E08F1A9108BFCF843619F0DA
:10235000893609F077C0F80137FE6BC06081718162
:10236000828193810C5F1F4FF32DFF763F2E97FFE5
:1023700009C090958095709561957F4F8F4F9F4FC5
:10238000689437F82AE030E0A5010E94E112C82ED7
:10239000CA188C2C432C36FE0CC0E89440F8C914A3
:1023A00040F434FE05C032FC03C0F32DFE7E4F2EF8
:1023B000892C44FE95C0FE01EC0DF11D8081803317
:1023C00009F087C0242D297E422E842D8870582E36
:1023D00043FC95C040FE8FC09C2C821418F42C0C3A
:1023E000922C981844FE91C0B70180E390E00E94BF
:1023F000B11242FE09C088E790E041FE02C088E5C4
:1024000090E0B7010E94B112C91408F48AC0CA94BE
:10241000D12C9FEFC91AD90ACA0CDB1CF601829194
:102420006F01B70190E00E94B112AC14BD04B1F786
:102430004FCF60817181072E000C880B990B0E5FC6
:102440001F4F92CFD32CE894D4F82AE030E08537A0
:1024500039F1232D297FD22E8F3601F148F48835AA
:10246000A9F0F701868197812B96E2E10C94140F75
:10247000803749F08837A9F7D4FE02C06894D2F8B3
:1024800020E130E00DC06894D4F8F6CF34FE03C0EC
:10249000822F8660D82E20E132E002C028E030E0B2
:1024A000F801D7FE0FC060817181828193810C5F3A
:1024B0001F4FA5010E94E112C82ECA183D2CE894B6
:1024C00037F867CF6081718190E080E00E5F1F4F29
:1024D000F0CF42FC02C0839478CF8394839475CF6D
:1024E000842D867809F471CFF6CFB70180E290E0B1
:1024F0000E94B11283948214C0F3512C73CF522CDA
:102500005818821408F46ECFF8CF842D867809F419
:102510007BCF8BE241FE80E247FC8DE2B70190E089
:1025200071CFB70180E390E00E94B1129A946CCF12
:102530008FEF9FEF99CFFC01059061507040011023
:10254000D8F7809590958E0F9F1F0895FC016150DC
:10255000704001900110D8F7809590958E0F9F1FC5
:1025600008950F931F93CF93DF93182F092FEB013B
:102570008B8181FD09C01FEF0FEF812F902FDF911D
:10258000CF911F910F91089582FF14C02E813F813A
:102590008C819D81281739073CF4E881F981CF01AE
:1025A00001969983888310838E819F8101969F83F2
:1025B0008E83E3CFE885F985812F0995892BA1F3D7
:1025C000DACFFA01AA27283051F1203181F1E894BD
:1025D0006F936E7F6E5F7F4F8F4F9F4FAF4FB1E016
:1025E0003ED0B4E03CD0670F781F891F9A1FA11D11
:1025F000680F791F8A1F911DA11D6A0F711D811D12
:10260000911DA11D20D009F468943F912AE0269FD6
:1026100011243019305D3193DEF6CF010895462F35
:102620004770405D4193B3E00FD0C9F7F6CF462F16
:102630004F70405D4A3318F0495D31FD405241937F
:1026400002D0A9F7EACFB4E0A6959795879577953C
:102650006795BA95C9F700976105710508959B01C3
:10266000AC010A2E06945795479537952795BA954C
:10267000C9F7620F731F841F951FA01D0895F8945A
:02268000FFCF8A
:10268200000030048000000000000800100000007C
:1026920000006D02CD01FA01BA022B0209021D02ED
:1026A20000000000DF04B2040E058804AB049804A5
:1026B2008904000000006006CD010E05DA020D0A51
:1026C20000436F756C646E27742066696E642052D5
:1026D200544300436869636B656E20436F6F7000FB
:1026E20053797374656D205374617274696E6700F7
:1026F20046656564696E672054696D6521004469A9
:102702007370656E73696E6720466F6F640046650D
:102712006564696E67202300206163746976617461
:102722006564210052657365742066656564696E2F
:102732006720666C616720666F7220736C6F74200D
:10274200005761746572206C6576656C3A2000579B
:1027520061746572206C6576656C206C6F772E20D3
:1027620050756D70206163746976617465642E00C2
:102772005761746572206C6576656C207375666648
:10278200696369656E742E2050756D702064656191
:1027920063746976617465642E0050756D7020747F
:1027A200696D656F757420666F72207361666574FA
:1027B200792E20436865636B20776174657220739C
:1027C2007570706C792100253032643A253032649C
:1027D2003A253032640020573A00250050756D705A
:1027E2003A204F4E004E65787420466565643A2063
:0227F2000000E5
:00000001FF
