:020000040000FA
:100000000C9462000C948A000C948A000C948A0070
:100010000C948A000C948A000C948A000C948A0038
:100020000C948A000C948A000C948A000C940F0B98
:100030000C948A000C948A000C948A000C948A0018
:100040000C946D0A0C948A000C94DD0A0C94B70A87
:100050000C948A000C948A000C948A000C948A00F8
:100060000C94CB0B0C948A000000000024002700A5
:100070002A0000000000250028002B0000000008D6
:10008000000201000003040700000000000000005F
:1000900000000000230026002900040404040404D6
:1000A0000404020202020202030303030303010227
:1000B00004081020408001020408102001020408F6
:1000C00010202F0D11241FBECFEFD8E0DEBFCDBF13
:1000D00011E0A0E0B1E0E0EDFCE202C005900D927D
:1000E000A839B107D9F723E0A8E9B1E001C01D9212
:1000F000AA36B207E1F710E0C2E6D0E004C02197CB
:10010000FE010E943B15C136D107C9F70E94020EBD
:100110000C9466160C940000CF92DF92EF92FF923F
:10012000CF93DF93B0913C03A0E08111AB2F80917E
:100130003D0390E0880F991FAC0140575F4FC0907E
:100140004203D0904303E0904403F090450330E035
:1001500020E0FA01C591D491E881B90190E080E0F6
:10016000EB23EA130AC02F5F3F4F6C157D058E0508
:100170009F0578F36FEF7FEFCB01DF91CF91FF9079
:10018000EF90DF90CF900895CF92DF92EF92FF92A1
:10019000CF9380913B038C3009F44FC038F48B30FF
:1001A000F1F060E070E080EC9FE741C08551823063
:1001B000C0F7C09137036C2F70E0762F6627662753
:1001C0007F7780913803682B90E080E00E948E1248
:1001D0002DEC3CEC4CEC5DE30E94EF124AC06091C8
:1001E000370370E090E080E00E948E126B017C018A
:1001F000C0913803C7FF0AC0AC019B0160E070E00A
:1002000080E89FEB0E9410146B017C01CF706C2F73
:1002100070E090E080E00E9490122DEC3CEC4CEC01
:100220005DE30E94EF12A70196010E941114CF9185
:10023000FF90EF90DF90CF900895C09137036C2F1F
:1002400070E090E080E00E948E126B017C01609172
:1002500038036F7070E090E080E00E9490122DEC07
:100260003CEC4CEC5DE30E94EF12A70196010E946A
:100270001114C7FFDCCF9058DACF0895089590E0AD
:10028000FC01E458FF4F2491FC01E255FF4F3491EB
:10029000FC01E656FF4FE491EE23C9F0222339F02A
:1002A000233001F1A8F4213019F1223029F1F0E0D6
:1002B000EE0FFF1FEE58FF4FA591B4918FB7F89442
:1002C000EC91611126C030953E233C938FBF089579
:1002D0002730A9F02830C9F0243049F780918000F8
:1002E0008F7D03C0809180008F7780938000DFCF67
:1002F00084B58F7784BDDBCF84B58F7DFBCF8091B4
:10030000B0008F778093B000D2CF8091B0008F7D06
:10031000F9CF3E2BDACFCF93DF9390E0FC01E2558B
:10032000FF4F249186569F4FFC0184918823C9F08A
:1003300090E0880F991FFC01E859FF4FA591B491F7
:10034000FC01EE58FF4FC591D49161110DC09FB7CC
:10035000F8948C91209582238C938881282328837C
:100360009FBFDF91CF910895623051F49FB7F89409
:100370003C91822F809583238C93E8812E2BEFCFA5
:100380008FB7F894EC912E2B2C938FBFEACF8E5021
:10039000806480937C0080917A00806480937A00EE
:1003A00080917A0086FDFCCF809178009091790051
:1003B00008953FB7F89480910D0290910E02A0919C
:1003C0000F02B091100226B5A89B05C02F3F19F06F
:1003D0000196A11DB11D3FBFBA2FA92F982F8827C5
:1003E000BC01CD01620F711D811D911D42E0660FA0
:1003F000771F881F991F4A95D1F708958F929F9272
:10040000AF92BF92CF92DF92EF92FF924B015C01CD
:100410000E94D9016B017C010E94D9016C197D09F0
:100420008E099F09683E734081059105A8F321E07C
:10043000821A9108A108B10888EEC80E83E0D81E80
:10044000E11CF11C81149104A104B10429F7FF906F
:10045000EF90DF90CF90BF90AF909F908F900895D6
:100460002FB7F8946091090270910A0280910B02F3
:1004700090910C022FBF0895CF92DF92EF92FF92DE
:100480000F931F93CF93DF93CDB7DEB7C054D14006
:100490000FB6F894DEBF0FBECDBF0E9430020091B0
:1004A0003E0310913F0320914003309141036B01C3
:1004B0007C01C01AD10AE20AF30A97018601003DC5
:1004C00017402105310590F480914603C05CDE4F52
:1004D0000FB6F894DEBF0FBECDBFDF91CF911F9155
:1004E0000F91FF90EF90DF90CF90089560933E03BF
:1004F00070933F038093400390934103109239031C
:10050000109238031092370310923603109235037D
:1005100062E080913A030E948B0161E070E080E02C
:1005200090E00E94FE0161E080913A030E948B01FD
:1005300060E080913A030E943F0180913B03855126
:10054000823020F58BE291E10197F1F762E0809132
:100550003A030E948B018091470390E0823091051D
:1005600038F0880F991F880F991F05970197F1F7A9
:10057000F89480E00E948C006F3F7F4F8F4F9F4F19
:1005800061F410924603789480E0A0CF64E170E0BB
:1005900080E090E00E94FE01D9CF81E00E948C00B3
:1005A0006F3F7F4F8F4F9F4F61F38E010F5F1F4F44
:1005B0006E012FEBC21A2EEFD20A780180E00E9462
:1005C0008C00F701608371838283938381E00E94B2
:1005D0008C00F7016483758386839783F8E0EF0EC0
:1005E000F11CEC14FD0451F7789430E020E0F801A0
:1005F000C080D180E280F38044815581668177811B
:10060000FFEFCF16DF06EF06FF0631F04F3F8FEF0B
:1006100058076807780719F410924603B5CFF90117
:1006200083E0F595E7958A95E1F7EB5CFC4F8081D7
:10063000880FC416D506E606F70610F180832F5FF3
:100640003F4F085F1F4F2832310589F6409139032B
:100650002091350380913603280F3327331F809173
:100660003703280F311D80913803820F932F911D7E
:1006700099274817190681F681E08093460326CF13
:100680008160DCCFCF92DF92EF92FF920E943C021A
:10069000882349F080913B038B3028F08D3040F067
:1006A0008551823030F160E070E080EC9FE71CC043
:1006B0006091360370E090E080E00E9490122DEC93
:1006C0003CEC4CEC5DE30E94EF126B017C0160910D
:1006D000350370E090E080E00E9490129B01AC0135
:1006E000C701B6010E941114FF90EF90DF90CF90E8
:1006F0000895609135037091360376276727762732
:1007000090E080E00E948E122DEC3CEC4CEC5DE31E
:100710000E94EF12E9CFAF92BF92CF92DF92EF9299
:10072000FF920F931F93CF93DF936C017B018B019B
:10073000040F151FEB015E01AE18BF08C017D107EB
:1007400059F06991D601ED91FC910190F081E02D75
:10075000C6010995892B79F7C501DF91CF911F91CA
:100760000F91FF90EF90DF90CF90BF90AF900895E2
:10077000FC01538D448D252F30E0842F90E0821BA7
:10078000930B541710F0CF96089501970895FC012C
:10079000918D828D981761F0A28DAE0FBF2FB11D84
:1007A0005D968C91928D9F5F9F73928F90E00895DC
:1007B0008FEF9FEF0895FC01918D828D981731F096
:1007C000828DE80FF11D858D90E008958FEF9FEFEA
:1007D0000895FC01918D228D892F90E0805C9F4FC0
:1007E000821B91098F739927089587E692E00E94F2
:1007F000E90321E0892B09F420E0822F089580E0AD
:1008000090E0892B29F00E94F50381110C940000DF
:100810000895FC01A48DA80FB92FB11DA35ABF4F95
:100820002C91848D90E001968F739927848FA689EF
:10083000B7892C93A089B1898C91837080648C9343
:10084000938D848D981306C00288F389E02D8081F2
:100850008F7D80830895EF92FF920F931F93CF9324
:10086000DF93EC0181E0888F9B8D8C8D98131AC0EB
:10087000E889F989808185FF15C09FB7F894EE89D2
:10088000FF896083E889F98980818370806480832F
:100890009FBF81E090E0DF91CF911F910F91FF907A
:1008A000EF900895F62E0B8D10E00F5F1F4F0F7322
:1008B0001127E02E8C8D8E110CC00FB607FCFACFDD
:1008C000E889F989808185FFF5CFCE010E9409046E
:1008D000F1CFEB8DEC0FFD2FF11DE35AFF4FF082AE
:1008E0009FB7F8940B8FEA89FB8980818062CFCF14
:1008F000CF93DF93EC01888D8823B9F0AA89BB8957
:10090000E889F9898C9185FD03C0808186FD0DC041
:100910000FB607FCF7CF8C9185FFF2CF808185FF62
:10092000EDCFCE010E940904E9CFDF91CF91089568
:1009300008958F929F92AF92BF92FF920F931F9351
:10094000CF93DF93FC01F0808BE08F1508F44AC051
:10095000828108E512E0081B110987FD1395000F3D
:10096000111F000F111F8181C8E8D0E0C81BD109F9
:1009700087FDD395CC0FDD1FCC0FDD1F4E010D2E53
:10098000000CAA08BB089801012E000C440B550B63
:10099000281939094A095B09DB010E94D71324EBA6
:1009A00030E040E050E00E94AD13820E931EA41E82
:1009B000B51E8C169D062CF0E801801691060CF4ED
:1009C000E4012297CC0FDD1F2FB7F8948F2D90E014
:1009D000FC01EE0FFF1FE80FF91FE05FFC4FD28311
:1009E000C1832FBFDF91CF911F910F91FF90BF90D7
:1009F000AF909F908F9008951F93CF93DF93EC015A
:100A0000162F88818C3008F04EC061E0812F0E9443
:100A10008B018881282F30E0F901EE0FFF1FE20FD4
:100A2000F31FE05FFC4F1F736081607C612B60836C
:100A300019821A822CE0622F0E942F15829FB0012A
:100A4000112430E020E0AB01420F531FFA01EE0FFA
:100A5000FF1FE40FF51FE05FFC4F908196FD16C06D
:100A60002F5F3F4F2C30310571F781110FC010926D
:100A7000800082E0809381001092850010928400B3
:100A8000B19A80916F00826080936F00E8818E2F11
:100A900090E0FC01EE0FFF1FE80FF91FE05FFC4F35
:100AA0008081806480838881DF91CF911F91089538
:100AB0002091B901260F3327331F21323105ECF481
:100AC00020913D02FC0190E080E0243069F082E05A
:100AD0000895A091B9012191AC0147565E4FA40F32
:100AE000B52FB11D2C930196861798F38091B9010B
:100AF000680F6093B90180E0089581E00895109235
:100B00003D0281E080933C021092170261E082E195
:100B10000E943F0161E083E10E943F01E9EBF0E0C8
:100B200080818E7F808380818D7F808388E4809325
:100B3000B80085E48093BC000895109216021092CC
:100B4000150210924402109266020E947F058DE306
:100B500091E090931402809313028EE391E09093BE
:100B60001202809311020895CF93DF9391E0909346
:100B700098018823B9F0C091B800D091BA00809153
:100B8000BC008A7B8093BC0060E082E10E943F0150
:100B900060E083E10E943F010E947F05D093BA008C
:100BA000C093B800DF91CF9108958F929F92AF923A
:100BB000BF92CF92DF92EF92FF920F931F93CF934A
:100BC000DF93D0916602D13208F0D7C0182FC091C0
:100BD00065020E94D9016B017C0180913D02811167
:100BE0006BC082E080933D0210933C028FEF8093B4
:100BF0003B0210923A02D0933902A5E4B2E0E9E157
:100C0000F2E080E0D81391C010921802809118028F
:100C1000CC0FC82BC093180280911702813009F0C5
:100C200088C0109217020E94D9016B017C0180914B
:100C300018028093BB0080913F0290914002A091E6
:100C40004102B0914202892B8A2B8B2BA1F00E948A
:100C5000D90100913F021091400220914102309150
:100C600042026C197D098E099F090617170728078C
:100C7000390708F442C08091BC0083FDD8CF85ECD1
:100C80008093BC000E94D9016B017C0180913D02E0
:100C9000823009F450C080913B028F3F09F46FC04D
:100CA00080913B02803209F46CC080913B0280331A
:100CB00009F469C084E026C080913F02909140020F
:100CC000A0914102B0914202892B8A2B8B2B09F40F
:100CD00084CF0E94D90180903F0290904002A09062
:100CE0004102B09042026C197D098E099F09861657
:100CF0009706A806B90608F070CF80913E020E94C0
:100D0000B40585E0109244021092660210924302EC
:100D1000DF91CF911F910F91FF90EF90DF90CF90D7
:100D2000BF90AF909F908F9008959D9191938F5F0A
:100D300069CF85EEA5CF80913F0290914002A091AE
:100D40004102B0914202892B8A2B8B2B09F49ECF52
:100D50000E94D90100913F0210914002209141026E
:100D6000309142026C197D098E099F0906171707F9
:100D70002807390708F08ACFC0CF81E0C3CF80E0D1
:100D8000C1CF82E0BFCF83E0BDCF1F93CF93DF936E
:100D9000EA01122FDC0111968D919C91DC01ED91FD
:100DA000FC910280F381E02D0995C817D90729F439
:100DB000812F0E94D50591E0811190E0892FDF916C
:100DC000CF911F910895CF93DF93EC018B818823FE
:100DD000A1F0888191E09093430280936502109284
:100DE00044021092660281E00E94D50591E08111D3
:100DF00090E0892FDF91CF9108950E949D0581E0B9
:100E00008B83CE010E94E306982F8111E2CFF1CFB0
:100E10000895E091160280911502E81730F4F0E091
:100E2000E352FE4F808190E008958FEF9FEF089589
:100E300090911602809115022FEF3FEF981748F41A
:100E4000E92FF0E0E352FE4F208130E09F5F909366
:100E50001602C90108958091150290911602891B0E
:100E6000990B0895CF92DF92EF92FF920F931F9309
:100E7000CF93DF937C01CB018A012091430222238F
:100E800089F0EB016B01C40ED51ECC15DD0569F0B0
:100E90006991D701ED91FC910190F081E02DC7019E
:100EA0000995F3CF642F0E945805C801DF91CF91B7
:100EB0001F910F91FF90EF90DF90CF900895CF9307
:100EC000DF931F92CDB7DEB76983209143022223BF
:100ED000F9F020916602203258F021E030E0FC0168
:100EE0003383228390E080E00F90DF91CF910895CB
:100EF00080914402E82FF0E0EB5BFD4F99819083F5
:100F00008F5F809344028093660281E090E0ECCF93
:100F100061E0CE0101960E945805F7CF90E080E095
:100F20000895CF93DF93EC0160E08E810E943F0132
:100F300061E08E810E943F0160E08E810E943F014E
:100F40008BE891E00197F1F7DF91CF910895CF926F
:100F5000DF92EF92FF920F931F93CF93DF936C0179
:100F60007C0187E0E80EF11CD0E0C0E0062F10E025
:100F7000B8010C2E02C0759567950A94E2F761706E
:100F8000F70181917F010E943F012196C430D10574
:100F900079F7C601DF91CF911F910F91FF90EF90EC
:100FA000DF90CF900C949107CF92DF92EF92FF9257
:100FB0000F931F93CF93DF93EC01F62E642F8C8158
:100FC0000E943F018D818F3F19F060E00E943F0138
:100FD0000F2D10E08F8584FF25C06E0187E0C80EBD
:100FE000D11CF12CE12CB8010E2C02C0759567952F
:100FF0000A94E2F76170F60181916F010E943F014E
:10100000FFEFEF1AFF0A88E0E816F10461F7CE015E
:10101000DF91CF911F910F91FF90EF90DF90CF90D4
:101020000C949107B80184E0759567958A95E1F76E
:10103000CE010E94A7076F2DCE01DF91CF911F91A6
:101040000F91FF90EF90DF90CF900C94A70740E0B6
:10105000682F8EE493E00C94D40781E00E94270867
:101060008BE39FE10197F1F70895CF93DF938230EF
:1010700029F490915D03986090935D0380936103E0
:101080001092620380E48093630380E180936403A1
:1010900080E58093650361E0809152030E948B019B
:1010A000809153038F3F19F061E00E948B0161E052
:1010B000809154030E948B01CEE4D3E09E012E5414
:1010C000334080915D0384FD0BC084E090E0219665
:1010D0002817390744F461E08E810E948B01EECF1E
:1010E00088E090E0F4CF8BE39DE00197F1F760E0BA
:1010F000809152030E943F0160E0809154030E945E
:101100003F01809153038F3F19F060E00E943F013F
:1011100080915D0384FD34C063E08EE493E00E941F
:10112000A707CBE4D6E4CE010197F1F763E08EE4A4
:1011300093E00E94A7072197F1F763E08EE493E024
:101140000E94A70783E592E00197F1F762E08EE441
:1011500093E00E94A70780915D0380620E942708A8
:1011600084E080935E038CE00E9427080E942D0893
:1011700082E080935F0386E0DF91CF910C94270893
:1011800080620E9427088BE496E40197F1F7809132
:101190005D0380620E94270883E592E00197F1F7E2
:1011A00080915D0380620E942708D5CF90916103F2
:1011B000891710F08FEF890FE82FF0E0E25BFC4F0A
:1011C000848980680C94270841E00E94D40781E05C
:1011D00090E00895FB0101900020E9F73197AF01FD
:1011E000461B570BDC01ED91FC910280F381E02D51
:1011F00009948F929F92AF92BF92EF92FF920F93BA
:101200001F93CF93DF93CDB7DEB7A1970FB6F894B6
:10121000DEBF0FBECDBF7C01FA01CB0119A2223087
:1012200008F42AE08E010F5D1F4F822E912CB12C05
:10123000A12CBF01A50194010E94DF13F901CA018D
:101240006A300CF5605DD8016E938D01232B242B41
:10125000252B79F790E080E0109721F0BD01C701C0
:101260000E94EA08A1960FB6F894DEBF0FBECDBF6C
:10127000DF91CF911F910F91FF90EF90BF90AF90B2
:101280009F908F900895695CDECF2F923F924F928E
:101290005F926F927F928F929F92AF92BF92CF9206
:1012A000DF92EF92FF921F93CF93DF93EC016A01DD
:1012B0007B01722EAB019601CB01B6010E942A156B
:1012C0006EE371E0811126C046015701E894B7F83A
:1012D0002FEF3FEF4FE75FE7C501B4010E942A15EA
:1012E00081110CC02FEF3FEF4FE75FE7C501B4015D
:1012F0000E94891262E471E0181664F02FEF3FEF4C
:101300004FE75FE4C701B6010E9425151816B4F433
:1013100066E471E0CE01DF91CF911F91FF90EF90D5
:10132000DF90CF90BF90AF909F908F907F906F9005
:101330005F904F903F902F900C94EA082FEF3FEF73
:101340004FE75FECC701B6010E94891287FDE0CF2D
:1013500020E030E0A901C701B6010E948912312CBA
:10136000212C87FF0DC0E881F9810190F081E02DEB
:101370006DE2CE0109951C01F7FAF094F7F8F094AC
:1013800010E060E070E080E09FE3711641F020E043
:1013900030E040E251E40E947D141F5FF6CFA701C8
:1013A00096010E9411142B013C010E94F6144B017E
:1013B0005C012AE0BC01A401CE010E94F9087C0175
:1013C000E20CF31C1123E1F1C501B4010E948E125D
:1013D0009B01AC01C301B2010E9410144B015C01DE
:1013E000E881F9810190F081E02D6EE2CE0109954E
:1013F000E80EF91E115020F120E030E040E251E407
:10140000C501B4010E94EF122B013C010E94F614A9
:101410004B01B12CA12C2AE0B501A401CE010E9400
:10142000F908E80EF91EC501B4010E948E129B0155
:10143000AC01C301B2010E9410144B015C01DACF70
:10144000C701DF91CF911F91FF90EF90DF90CF9078
:10145000BF90AF909F908F907F906F905F904F90D4
:101460003F902F9008950C94EA0885ED8093BC007E
:1014700080913F0290914002A0914102B0914202BE
:101480000796A11DB11D23E0B695A7959795879561
:101490002A95D1F72091BC0024FD03C010923D0293
:1014A000089540913F025091400260914102709135
:1014B0004202452B462B472B69F30097A105B10546
:1014C00041F02AE22A95F1F700C00197A109B1097C
:1014D000E1CF80913E020C94B4051F920F920FB69B
:1014E0000F9211242F933F938F939F93AF93BF93AA
:1014F0008091090290910A02A0910B02B0910C0216
:101500003091080223E0230F2D3758F50196A11DD5
:10151000B11D209308028093090290930A02A093C0
:101520000B02B0930C0280910D0290910E02A091DB
:101530000F02B09110020196A11DB11D80930D0202
:1015400090930E02A0930F02B0931002BF91AF913F
:101550009F918F913F912F910F900FBE0F901F90F1
:10156000189526E8230F0296A11DB11DD2CF1F9218
:101570000F920FB60F9211242F933F934F935F93C7
:101580006F937F938F939F93AF93BF93EF93FF934B
:1015900087E692E00E940904FF91EF91BF91AF911D
:1015A0009F918F917F916F915F914F913F912F917B
:1015B0000F900FBE0F901F9018951F920F920FB6AD
:1015C0000F9211242F938F939F93EF93FF93E091AA
:1015D0007702F09178028081E0917D02F0917E02A5
:1015E00082FD1BC09081809180028F5F8F7320915C
:1015F0008102821741F0E0918002F0E0E959FD4F4D
:10160000958F80938002FF91EF919F918F912F9101
:101610000F900FBE0F901F9018958081F4CF1F92EE
:101620000F920FB60F9211242F933F934F935F9316
:101630006F937F938F939F93AF93BF93CF93DF93DA
:10164000EF93FF938091DC01C0913403D0E087FFDA
:1016500024C010928500109284008091DC018F5F7D
:101660008093DC018091DC01082E000C990B8C1713
:101670009D0724F48091DC018C30C4F180918400BA
:1016800090918500049680349C4908F47AC080913A
:10169000840090918500049676C08091DC01082E2C
:1016A000000C990B8C179D07C4F6E091DC018E2F7E
:1016B000EE0F990BFC01EE0FFF1FE80FF91FE05F23
:1016C000FC4F808186FFC9CFE091DC018E2FEE0FA9
:1016D000990BFC01EE0FFF1FE80FF91FE05FFC4FB5
:1016E000808160E08F730E943F01B7CF209184001A
:1016F00030918500E091DC018E2FEE0F990BFC01FB
:10170000EE0FFF1FE80FF91FE05FFC4F8181928110
:10171000820F931F9093890080938800E091DC01F1
:101720008E2FEE0F990BFC01EE0FFF1FE80FF91F34
:10173000E05FFC4F808186FF11C0E091DC018E2FBD
:10174000EE0F990BFC01EE0FFF1FE80FF91FE05F92
:10175000FC4F808161E08F730E943F01FF91EF9108
:10176000DF91CF91BF91AF919F918F917F916F91B9
:101770005F914F913F912F910F900FBE0F901F904F
:10178000189580E49CE990938900809388008FEFFE
:101790008093DC01E3CF1F920F920FB60F921124BA
:1017A0002F933F934F935F936F937F938F939F9369
:1017B000AF93BF93EF93FF938091B900887F8036FA
:1017C00009F44AC0F0F5883209F4A7C018F5803151
:1017D00009F49BC0B8F4882309F4F9C0883009F4EF
:1017E00094C0FF91EF91BF91AF919F918F917F91A5
:1017F0006F915F914F913F912F910F900FBE0F907E
:101800001F901895883109F488C0803251F7809371
:101810003B0214C0803409F49DC040F48033B9F316
:101820008833F9F680933B0285ECB0C0803509F42B
:1018300085C0883509F496C0883499F60E94350A27
:10184000D0CF883909F48CC038F5883729F050F4A6
:10185000883611F0803729F683E080933D0210929C
:10186000DB0157C0883809F47BC0803919F0803813
:1018700009F0B7CF8091DB01803208F071C0E091B0
:10188000DB0181E08E0F8093DB018091BB00F0E0F3
:10189000E554FE4F80833DC0803B39F0E0F4803A50
:1018A00009F479C0883A09F09CCF84E080933D0226
:1018B0001092BA011092B901E0911302F091140252
:1018C00009958091B90181110FC081E08093B90120
:1018D0001092990109C0803C09F4A6CF883C09F414
:1018E000A3CF883B09F07DCFE091BA0181E08E0F54
:1018F0008093BA01F0E0E756FE4F80818093BB00F1
:101900009091BA018091B90129C080911802809309
:10191000BB0085EC8093BC0064CF90913A0280912B
:101920003902981758F5E0913A0281E08E0F8093C2
:101930003A02F0E0E75EFD4F8081E9CFE0913A02A4
:1019400081E08E0F80933A028091BB00F0E0E75E69
:10195000FD4F808390913A02809139029817C8F226
:1019600085E8D8CFE0913A0281E08E0F80933A0269
:101970008091BB00F0E0E75EFD4F808380913C02E8
:1019800081115CCF81E08093170284EA8093BC00D0
:1019900010923D0226CF85EC8093BC0010923D0250
:1019A0008091DB01803230F4E091DB01F0E0E5541E
:1019B000FE4F10826091DB0170E0E0911102F09126
:1019C00012028BEB91E009951092DB010ACF109285
:1019D0003B0234CFCF92DF92EF92FF920F931F938F
:1019E000E82FF92F05C0015011092109310961F1D2
:1019F000908196239417B9F305C00150110921096C
:101A0000310911F1908196239413F7CFC12CD12C79
:101A1000E12CF12C0AC08FEFC81AD80AE80AF80A9C
:101A20000C151D052E053F0579F08081862384174E
:101A300091F36C2D7D2D8E2D9F2D1F910F91FF9079
:101A4000EF90DF90CF90089560E070E080E090E04C
:101A50001F910F91FF90EF90DF90CF900895CF935B
:101A600010926A021092690288EE93E0A0E0B0E062
:101A700080936B0290936C02A0936D02B0936E0200
:101A800022E131E0309368022093670225EC30E0D8
:101A9000309374022093730224EC30E0309376028A
:101AA0002093750220EC30E0309378022093770287
:101AB00021EC30E030937A022093790222EC30E07E
:101AC00030937C0220937B0226EC30E030937E0240
:101AD00020937D0210928002109281021092820265
:101AE000109283021092070310920603809308035A
:101AF00090930903A0930A03B0930B0384E291E04F
:101B000090930503809304031092510310925003A5
:101B100086E391E090934F0380934E038CE0809393
:101B20005203CFEFC09353038BE08093540385E0BF
:101B30008093550384E08093560383E0809357039A
:101B400082E0809358031092590310925A03109226
:101B50005B0310925C0310925D0381E00E943508E4
:101B6000809134038C3008F046C091E0980F909338
:101B7000340380934B0390E0FC01EE0FFF1FE80F4E
:101B8000F91FE05FFC4F88EB9BE09283818380919B
:101B900034038C3098F591E0980F90933403809340
:101BA000480390E0FC01EE0FFF1FE80FF91FE05F14
:101BB000FC4F88EB9BE09283818380E180933A0322
:101BC0008BE080933B03EEEBF0E0E491E0933C0389
:101BD000EAEAF0E0E491E0933D0380E89EE3A0E0D0
:101BE000B0E08093420390934303A0934403B093E7
:101BF0004503CF910895C0934B03C9CF8FEF8093D6
:101C00004803DBCFCF93DF93CDB7DEB728970FB66E
:101C1000F894DEBF0FBECDBF789484B5826084BDDA
:101C200084B5816084BD85B5826085BD85B58160E0
:101C300085BD80916E00816080936E00109281005E
:101C40008091810082608093810080918100816019
:101C500080938100809180008160809380008091DA
:101C6000B10084608093B1008091B0008160809366
:101C7000B00080917A00846080937A0080917A002D
:101C8000826080937A0080917A00816080937A00EC
:101C900080917A00806880937A001092C100E09170
:101CA0007702F091780282E08083E0917302F091F4
:101CB00074021082E0917502F09176028FEC8083BD
:101CC00010927F02E0917B02F0917C0286E080839B
:101CD000E0917902F0917A02808180618083E091C5
:101CE0007902F0917A02808188608083E0917902A4
:101CF000F0917A02808180688083E0917902F0918E
:101D00007A0280818F7D80830E949D0580910602EA
:101D100090910702009711F00E94DD1586E090E097
:101D20000E9441158C0188E6D8018C9384E093E0F1
:101D300012969C938E93119713961C92139780E2A0
:101D400090E015969C938E9314971093070200933E
:101D500006020E949D05FF24F394F801F382C80156
:101D60000E94E30681110DC06AE471E087E692E00B
:101D70000E94EA0869E571E087E692E00E94EA08BD
:101D8000FFCF9E012F5F3F4F390186E0D9011D92A1
:101D90008A95E9F788E58B8387E08C8388E28E83D8
:101DA00084E08F8385E28887809106029091070204
:101DB000FC01248135812830310578F02081F092B2
:101DC000430220936502109244021092660221E0C1
:101DD00048E050E0B3010E94C50662E080913A03FA
:101DE0000E948B010E943002605D77408109910959
:101DF00060933E0370933F038093400390934103AD
:101E000087E38093470369E070E08BE493E00E94EE
:101E1000FC0470E060E08BE493E00E9499046AE0C7
:101E200070E088E493E00E94FC0470E060E088E4E5
:101E300093E00E94990461E087E00E948B0161E0D9
:101E400088E00E948B0161E086E00E948B0161E0E6
:101E500081E10E948B0160E08DE00E948B0160E0D7
:101E600087E00E943F0161E088E00E943F0160E05E
:101E700086E00E943F0182E00E9435080E942D0802
:101E800081E00E94D6086CE571E08EE493E00E9448
:101E9000330A68EE73E080E090E00E94FE010E9449
:101EA0002D081982A0900602B0900702F5018481E6
:101EB0009581892B09F415C1808191E090934302AB
:101EC00080936502109244021092660220E041E085
:101ED00050E0B301C5010E94C506882309F401C181
:101EE000D12CC12CD50114968D919C91E7E0EE2E5A
:101EF000F12CEC18FD088E159F0508F47C01F50106
:101F000000810E94D9011B012C0180913D028111A9
:101F100074C01E2D113208F010E2F1E0F0933D0282
:101F200021E087E090E08E199F09C816D90608F4D1
:101F300020E020933C022FEF20933B0210923A02C4
:101F40008FEF810F8093390231E030931802809136
:101F50001802000F082B009318028091170281309D
:101F600009F092C0109217020E94D9011B012C01A6
:101F7000809118028093BB0080913F0290914002B3
:101F8000A0914102B0914202892B8A2B8B2BA1F0A8
:101F90000E94D90120913F023091400240914102BC
:101FA000509142026219730984099509261737076F
:101FB0004807590708F442C08091BC0083FDD8CF80
:101FC00085EC8093BC000E94D9011B012C018091FB
:101FD0003D02813009F45CC080913A02811710F40F
:101FE00010913A02A9E1B2E0EDEDF1E080E0811755
:101FF00051F19D9191938F5FFACF80913F02909123
:102000004002A0914102B0914202892B8A2B8B2B76
:1020100009F47BCF0E94D90120913F023091400208
:102020004091410250914202621973098409950955
:10203000261737074807590708F067CF80913E02F7
:102040000E94B40510E010921602109315021E159E
:102050001F0409F046C083010C0D1D1D4801C80175
:10206000881999098E159F05A8F5D50111968D91AE
:102070009C91DC01ED91FC910284F385E02D0995A2
:10208000F80181938F01EBCF95EE9093BC009BCF2D
:1020900080913F0290914002A0914102B091420292
:1020A000892B8A2B8B2B09F492CF0E94D901209186
:1020B0003F02309140024091410250914202621928
:1020C000730984099509261737074807590708F047
:1020D0007ECFB4CFCE0CDF1CF7E0CF16D10408F4CE
:1020E00001CF2A81822F90E044E0959587954A950B
:1020F000E1F7982F990F990FE82EE91AEE0CE20EEE
:102100002B81822F90E054E0959587955A95E1F7C1
:10211000982F990F990F082F091B000F020F6DEFD1
:10212000C62E61E0D62E7AE0272E71E0372E912C54
:10213000812C10E0F12C55245394D1018D919D9167
:102140001D010817190709F0DFC1F401EE0FFF1F89
:10215000EA5FFE4FA080B180EA14FB04D1F4F601DF
:102160008081811116C064EB70E08BE493E00E94E3
:10217000990468EB7BE080E090E00E94FE0170E053
:1021800060E08BE493E00E949904D6015C920E9487
:102190003002EFEFAE1ABE0AAE14BF0424F4F6010B
:1021A000808181111082FFEFCF1ADF0A8A9489287B
:1021B00009F0CCC08EE00E94C701209103028C324E
:1021C00091400CF0C7C0211111C061E087E00E946E
:1021D0003F0181E0809303020E9430026093FF017F
:1021E0007093000280930102909302028091030297
:1021F0008823C9F00E9430020091FF011091000273
:102200002091010230910202601B710B820B930B33
:10221000613177428105910530F060E087E00E94EE
:102220003F01109203028FE00E94C7012091040237
:10223000893592400CF498C021110BC064EB70E01A
:1022400088E493E00E94990481E080930402109254
:1022500005028091040281114BC060E081E10E947F
:102260003F0183E090E00197F1F761E081E10E9496
:102270003F0183E290E00197F1F760E081E10E9485
:102280003F01EBEBF0E06491E7EAF0E0E491F0E08D
:10229000EE0FFF1FE057FF4F8591949100E315E784
:1022A00020E030E0462F0E94EA0C6115710581059F
:1022B000910529F06F5F7F4F8F4F9F4F9F700E9456
:1022C000901228E23EE74CE05DE30E94EF1220E02E
:1022D00030E040E05FE30E94EF120E94EF14615093
:1022E00071096D31710508F04BC081E080930502E2
:1022F0000E9442036B017C010E943C02882309F486
:1023000054C00E94C4004B015C01A7019601C701A3
:10231000B6010E942A15811148C0A5019401C5018A
:10232000B4010E942A15811140C020E030E040EF46
:1023300051E4C501B4010E94251587FD24C060E069
:1023400088E00E943F0161E086E02DC088248394EC
:10235000912CF3CE222309F449CF60E087E00E945C
:102360003F011092030242CF222309F472CF70E0A2
:1023700060E088E493E00E9499041092040269CF1F
:1023800010920502B5CF20E030E040E752E4C701EB
:10239000B6010E94251561E0181694F586E00E94AA
:1023A0003F0161E088E00E943F010E942D0880917A
:1023B0000502882351F180E00E94D60869E671E0A9
:1023C0008EE493E00E94330A81E00E94D60860E721
:1023D00071E08EE493E00E94330A64EF71E080E0E4
:1023E00090E00E94FE0180E090E0892B09F459CD35
:1023F0000E94F503882309F454CD0E94000051CDBA
:1024000088E00E943F0160E09FCF0E9442034B01A1
:102410005C010E943C02882309F46FC00E94C40042
:102420006B017C0180E00E94D60868E771E08EE4D1
:1024300093E00E94330A22E0B701A6018EE493E004
:102440000E9445096BE771E08EE493E00E94330A35
:1024500064E971E08EE493E00E94330A22E0B50162
:10246000A4018EE493E00E9445096DE771E08EE4DB
:1024700093E00E94330A81E00E94D60820E030E019
:1024800040EF51E4C701B6010E94251564E871E0F0
:1024900087FF0EC020E030E040E752E4C501B40100
:1024A0000E9425156FE771E0181614F06BE871E0D3
:1024B0008EE493E00E94330A68E771E087E692E0D9
:1024C0000E94330A22E0B701A60187E692E00E944B
:1024D000450963E971E087E692E00E94330A22E051
:1024E000B501A40187E692E00E94450969E571E023
:1024F00087E692E00E94EA0870CFC12CD12C80ECD4
:10250000E82E8FE7F82E8ECF801791070CF447CE78
:102510004ACE0E94CB1208F481E00895E89409C0E5
:1025200097FB3EF490958095709561957F4F8F4F06
:102530009F4F9923A9F0F92F96E9BB279395F6951C
:10254000879577956795B795F111F8CFFAF4BB0F9A
:1025500011F460FF1BC06F5F7F4F8F4F9F4F16C0FE
:10256000882311F096E911C0772321F09EE8872F88
:10257000762F05C0662371F096E8862F70E060E044
:102580002AF09A95660F771F881FDAF7880F9695BD
:10259000879597F90895990F0008550FAA0BE0E861
:1025A000FEEF16161706E807F907C0F01216130615
:1025B000E407F50798F0621B730B840B950B39F455
:1025C0000A2661F0232B242B252B21F408950A26BB
:1025D00009F4A140A6958FEF811D811D08950E94E9
:1025E00002130C9473130E94651338F00E946C134D
:1025F00020F0952311F00C945C130C9462131124B9
:102600000C94A7130E94841370F3959FC1F3950F48
:1026100050E0551F629FF001729FBB27F00DB11D66
:10262000639FAA27F00DB11DAA1F649F6627B00DF6
:10263000A11D661F829F2227B00DA11D621F739FDF
:10264000B00DA11D621F839FA00D611D221F749FED
:102650003327A00D611D231F849F600D211D822F34
:10266000762F6A2F11249F5750409AF0F1F088235B
:102670004AF0EE0FFF1FBB1F661F771F881F915088
:102680005040A9F79E3F510580F00C945C130C94C8
:10269000A7135F3FE4F3983ED4F38695779567954B
:1026A000B795F795E7959F5FC1F7FE2B880F911DB2
:1026B0009695879597F9089597F99F6780E870E058
:1026C00060E008959FEF80EC089500240A941616A8
:1026D000170618060906089500240A941216130610
:1026E000140605060895092E0394000C11F488239E
:1026F00052F0BB0F40F4BF2B11F460FF04C06F5FBA
:102700007F4F8F4F9F4F089557FD9058440F551F8F
:1027100059F05F3F71F04795880F97FB991F61F063
:102720009F3F79F087950895121613061406551FDA
:10273000F2CF4695F1DF08C0161617061806991F46
:10274000F1CF86957105610508940895E894BB273B
:1027500066277727CB0197F90895052E97FB1EF47E
:1027600000940E94C41357FD07D00E94DF1307FC9A
:1027700003D04EF40C94C413509540953095219598
:102780003F4F4F4F5F4F089590958095709561959D
:102790007F4F8F4F9F4F08950E940114A59F900D6A
:1027A000B49F900DA49F800D911D11240895B7FF33
:1027B0000C94CC130E94CC13821B930B0895A1E2BE
:1027C0001A2EAA1BBB1BFD010DC0AA1FBB1FEE1FAB
:1027D000FF1FA217B307E407F50720F0A21BB30BF6
:1027E000E40BF50B661F771F881F991F1A9469F772
:1027F00060957095809590959B01AC01BD01CF01CE
:102800000895A29FB001B39FC001A39F700D811DC9
:102810001124911DB29F700D811D1124911D0895E9
:102820005058BB27AA270E9428140C9473130E94A7
:10283000651338F00E946C1320F039F49F3F19F4AF
:1028400026F40C9462130EF4E095E7FB0C945C13F1
:10285000E92F0E94841358F3BA176207730784079D
:10286000950720F079F4A6F50C94A6130EF4E095E4
:102870000B2EBA2FA02D0B01B90190010C01CA013A
:10288000A0011124FF27591B99F0593F50F4503EE5
:1028900068F11A16F040A22F232F342F4427585FD7
:1028A000F3CF469537952795A795F0405395C9F7EF
:1028B0007EF41F16BA0B620B730B840BBAF09150A7
:1028C000A1F0FF0FBB1F661F771F881FC2F70EC046
:1028D000BA0F621F731F841F48F487957795679519
:1028E000B795F7959E3F08F0B0CF9395880F08F005
:1028F0009927EE0F9795879508950E9491140C944F
:1029000073130E946C1358F00E94651340F029F471
:102910005F3F29F00C945C1351110C94A7130C9495
:1029200062130E94841368F39923B1F3552391F342
:10293000951B550BBB27AA2762177307840738F02E
:102940009F5F5F4F220F331F441FAA1FA9F335D08B
:102950000E2E3AF0E0E832D091505040E695001C3F
:10296000CAF72BD0FE2F29D0660F771F881FBB1FF9
:10297000261737074807AB07B0E809F0BB0B802DD7
:10298000BF01FF2793585F4F3AF09E3F510578F003
:102990000C945C130C94A7135F3FE4F3983ED4F3BC
:1029A000869577956795B795F7959F5FC9F7880FD7
:1029B000911D9695879597F90895E1E0660F771F29
:1029C000881FBB1F621773078407BA0720F0621BBA
:1029D000730B840BBA0BEE1F88F7E09508950E94E5
:1029E000F6146894B1110C94A71308950E948C13E7
:1029F00088F09F5798F0B92F9927B751B0F0E1F0C0
:102A0000660F771F881F991F1AF0BA95C9F714C06F
:102A1000B13091F00E94A613B1E008950C94A61372
:102A2000672F782F8827B85F39F0B93FCCF38695A8
:102A300077956795B395D9F73EF490958095709505
:102A400061957F4F8F4F9F4F08950E94CB1208F4DE
:102A50008FEF08950E94CB12880B990B0895991B54
:102A600079E004C0991F961708F0961B881F7A9585
:102A7000C9F780950895EE0FFF1F0590F491E02DA2
:102A800009940F931F93CF93DF938230910510F435
:102A900082E090E0E0916803F091690330E020E08B
:102AA000B0E0A0E0309799F42115310509F44AC04F
:102AB000281B390B24303105D8F58A819B8161159B
:102AC000710589F1FB0193838283FE0111C040816E
:102AD00051810281138148175907E0F048175907BF
:102AE00099F4109761F012960C93129713961C9319
:102AF0003296CF01DF91CF911F910F9108950093EE
:102B0000680310936903F4CF2115310551F0421782
:102B1000530738F0A901DB019A01BD01DF01F8017B
:102B2000C1CFEF01F9CF9093690380936803CDCFB4
:102B3000FE01E20FF31F81939193225031093983F3
:102B40002883D7CF2091660330916703232B41F46C
:102B500020910201309103013093670320936603B3
:102B600020910001309101012115310541F42DB76B
:102B70003EB74091040150910501241B350BE091B3
:102B80006603F0916703E217F307A0F42E1B3F0BD7
:102B90002817390778F0AC014E5F5F4F24173507CF
:102BA00048F04E0F5F1F5093670340936603819375
:102BB00091939FCFF0E0E0E09CCFCF93DF9300971D
:102BC000E9F0FC01329713821282A0916803B09160
:102BD0006903ED0130E020E01097A1F420813181FC
:102BE000820F931F209166033091670328173907DE
:102BF00009F061C0F0936703E0936603DF91CF9122
:102C00000895EA01CE17DF07E8F54A815B819E014E
:102C100041155105B1F7E901FB83EA8349915991C7
:102C2000C40FD51FEC17FD0761F4808191810296D6
:102C3000840F951FE90199838883828193819B8307
:102C40008A83F0E0E0E012968D919C9113970097B3
:102C5000B9F52D913C911197CD010296820F931FEA
:102C600020916603309167032817390739F63097AA
:102C700051F51092690310926803B0936703A09313
:102C80006603BCCFD383C28340815181840F951FDB
:102C9000C817D90761F44E5F5F4F88819981480F4B
:102CA000591F518340838A819B819383828321159D
:102CB000310509F0B0CFF0936903E09368039ECF2C
:102CC000FD01DC01C0CF13821282D7CFF894FFCF71
:102CD00000006A03800000000000080010000000EF
:102CE00000002B048B03B8037804E903C703DB035C
:102CF000000000005F0732078E0708072B07180740
:102D0000090700000000E4088B038E0798046E6139
:102D10006E00696E66006F766600525443206E6FD7
:102D20006E2074726F757665000D0A0044656D61E2
:102D300072726167652E2E2E00414C45525421005F
:102D400044616E6765722100543A006300250048B3
:102D50006561742646616E3A4F4E00486561743A6B
:082D60004F4E0020483A00002C
:107E0000112484B714BE81FFF0D085E080938100F7
:107E100082E08093C00088E18093C10086E0809377
:107E2000C20080E18093C4008EE0C9D0259A86E02C
:107E300020E33CEF91E0309385002093840096BBD3
:107E4000B09BFECF1D9AA8958150A9F7CC24DD24C4
:107E500088248394B5E0AB2EA1E19A2EF3E0BF2EE7
:107E6000A2D0813461F49FD0082FAFD0023811F036
:107E7000013811F484E001C083E08DD089C08234E0
:107E800011F484E103C0853419F485E0A6D080C0E4
:107E9000853579F488D0E82EFF2485D0082F10E0AE
:107EA000102F00270E291F29000F111F8ED06801E7
:107EB0006FC0863521F484E090D080E0DECF843638
:107EC00009F040C070D06FD0082F6DD080E0C81688
:107ED00080E7D80618F4F601B7BEE895C0E0D1E017
:107EE00062D089930C17E1F7F0E0CF16F0E7DF06D8
:107EF00018F0F601B7BEE89568D007B600FCFDCFD4
:107F0000A601A0E0B1E02C9130E011968C91119780
:107F100090E0982F8827822B932B1296FA010C0160
:107F200087BEE89511244E5F5F4FF1E0A038BF0790
:107F300051F7F601A7BEE89507B600FCFDCF97BE46
:107F4000E89526C08437B1F42ED02DD0F82E2BD052
:107F50003CD0F601EF2C8F010F5F1F4F84911BD097
:107F6000EA94F801C1F70894C11CD11CFA94CF0C13
:107F7000D11C0EC0853739F428D08EE10CD085E9AC
:107F80000AD08FE07ACF813511F488E018D01DD067
:107F900080E101D065CF982F8091C00085FFFCCF94
:107FA0009093C60008958091C00087FFFCCF809118
:107FB000C00084FD01C0A8958091C6000895E0E648
:107FC000F0E098E1908380830895EDDF803219F02E
:107FD00088E0F5DFFFCF84E1DECF1F93182FE3DFCA
:107FE0001150E9F7F2DF1F91089580E0E8DFEE27F6
:047FF000FF270994CA
:027FFE00040479
:00000001FF
