:020000040000FA
:100000000C9462000C948A000C948A000C948A0070
:100010000C948A000C948A000C948A000C948A0038
:100020000C948A000C948A000C948A000C940F02A1
:100030000C948A000C948A000C948A000C948A0018
:100040000C94C5010C948A000C948A000C948A00CC
:100050000C948A000C948A000C948A000C948A00F8
:100060000C948A000C948A000000000023002600F3
:10007000290000000000240027002A0000000000E2
:10008000250028002B0004040404040404040202D4
:100090000202020203030303030301020408102007
:1000A0004080010204081020010204081020000012
:1000B0000008000201000003040700000000000027
:1000C0000000650411241FBECFEFD8E0DEBFCDBF16
:1000D00011E0A0E0B1E0E0E5FCE002C005900D9287
:1000E000A030B107D9F721E0A0E0B1E001C01D9236
:1000F000A333B207E1F710E0C2E6D0E004C02197D5
:10010000FE010E942006C136D107C9F70E941003E4
:100110000C9426060C9400008F929F92AF92BF928F
:10012000FF920F931F93CF93DF93F09030012BE05A
:100130002F1508F44CC02091320108E512E0021B93
:10014000110927FD1395000F111F000F111F20919A
:100150003101C8E8D0E0C21BD10927FDD395CC0FEF
:10016000DD1FCC0FDD1F4E010D2E000CAA08BB08B1
:100170009801012E000C440B550B281939094A0926
:100180005B09DC010E94AA0424EB30E040E050E06F
:100190000E948004820E931EA41EB51E8C169D061E
:1001A0002CF0E801801691060CF4E4012297CC0FA4
:1001B000DD1F2FB7F8948F2D90E0FC01EE0FFF1F8D
:1001C000E80FF91FE45FFE4FD283C1832FBFDF9199
:1001D000CF911F910F91FF90BF90AF909F908F9004
:1001E000089590E0FC01E255FF4F2491FC01E65692
:1001F000FF4F3491FC01EA57FF4FE491EE23C9F021
:10020000222339F0233001F1A8F4213019F12230F2
:1002100029F1F0E0EE0FFF1FE458FF4FA591B491D4
:100220008FB7F894EC91611126C030953E233C9332
:100230008FBF08952730A9F02830C9F0243049F73E
:10024000809180008F7D03C0809180008F778093A4
:100250008000DFCF84B58F7784BDDBCF84B58F7D01
:10026000FBCF8091B0008F778093B000D2CF809188
:10027000B0008F7DF9CF3E2BDACFCF93DF9390E0A4
:10028000FC01E656FF4F24918A579F4FFC01849151
:100290008823D1F090E0880F991FFC01EE58FF4FA2
:1002A000A591B491FC01E458FF4FC591D49161111F
:1002B0000EC09FB7F8948C91E22FE0958E238C931B
:1002C0002881E223E8839FBFDF91CF9108958FB704
:1002D000F894EC91E22BEC938FBFF6CF3FB7F894F4
:1002E0008091080190910901A0910A01B0910B0140
:1002F00026B5A89B05C02F3F19F00196A11DB11D81
:100300003FBFBA2FA92F982F8827BC01CD01620FBC
:10031000711D811D911D42E0660F771F881F991F77
:100320004A95D1F708958F929F92AF92BF92CF9244
:10033000DF92EF92FF924B015C010E946E016B0114
:100340007C010E946E016C197D098E099F09683E2F
:10035000734081059105A8F321E0821A9108A10854
:10036000B10888EEC80E83E0D81EE11CF11C811490
:100370009104A104B10429F7FF90EF90DF90CF9092
:10038000BF90AF909F908F9008951F920F920FB6DD
:100390000F9211242F933F938F939F93AF93BF930B
:1003A0008091040190910501A0910601B09107018F
:1003B0003091030123E0230F2D3758F50196A11D3D
:1003C000B11D209303018093040190930501A09334
:1003D0000601B09307018091080190910901A09155
:1003E0000A01B0910B010196A11DB11D8093080176
:1003F00090930901A0930A01B0930B01BF91AF91B3
:100400009F918F913F912F910F900FBE0F901F9052
:10041000189526E8230F0296A11DB11DD2CF1F9279
:100420000F920FB60F9211242F933F934F935F9328
:100430006F937F938F939F93AF93BF93CF93DF93EC
:10044000EF93FF9380910101C0910001D0E087FFFD
:1004500024C01092850010928400809101018F5F6A
:100460008093010180910101082E000C990B8C17DB
:100470009D0724F4809101018C30C4F180918400A7
:1004800090918500049680349C4908F47AC080914C
:10049000840090918500049676C080910101082E19
:1004A000000C990B8C179D07C4F6E09101018E2F6B
:1004B000EE0F990BFC01EE0FFF1FE80FF91FE45F31
:1004C000FE4F808186FFC9CFE09101018E2FEE0F94
:1004D000990BFC01EE0FFF1FE80FF91FE45FFE4FC1
:1004E000808160E08F730E94F100B7CF209184007B
:1004F00030918500E09101018E2FEE0F990BFC01E8
:10050000EE0FFF1FE80FF91FE45FFE4F818192811C
:10051000820F931F9093890080938800E0910101DE
:100520008E2FEE0F990BFC01EE0FFF1FE80FF91F46
:10053000E45FFE4F808186FF11C0E09101018E2FA4
:10054000EE0F990BFC01EE0FFF1FE80FF91FE45FA0
:10055000FE4F808161E08F730E94F100FF91EF9167
:10056000DF91CF91BF91AF919F918F917F916F91CB
:100570005F914F913F912F910F900FBE0F901F9061
:10058000189580E49CE990938900809388008FEF10
:1005900080930101E3CFCF92DF92EF92FF920F930E
:1005A0001F93E82FF92F05C00150110921093109C6
:1005B00061F1908196239417B9F305C00150110998
:1005C0002109310911F1908196239413F7CFC12CA1
:1005D000D12CE12CF12C0AC08FEFC81AD80AE80AF6
:1005E000F80A0C151D052E053F0579F0808186233C
:1005F000841791F36C2D7D2D8E2D9F2D1F910F91C2
:10060000FF90EF90DF90CF90089560E070E080E081
:1006100090E01F910F91FF90EF90DF90CF900895A1
:10062000789484B5826084BD84B5816084BD85B5CD
:10063000826085BD85B5816085BD80916E008160D9
:1006400080936E001092810080918100826080937F
:100650008100809181008160809381008091800081
:100660008160809380008091B10084608093B100AC
:100670008091B00081608093B00080917A008460A6
:1006800080937A0080917A00826080937A008091D2
:100690007A00816080937A0080917A0080688093EC
:1006A0007A001092C10061E085E00E943D0160E0A7
:1006B00086E00E943D0161E087E00E943D0180915B
:1006C00030018C3008F051C061E083E00E943D01B0
:1006D00080913001282F30E0F901EE0FFF1FE20F6B
:1006E000F31FE45FFE4F9081907C936090831092A3
:1006F0003101109232012CE0622F0E941406829F79
:10070000B001112430E020E0AB01420F531FFA0189
:10071000EE0FFF1FE40FF51FE45FFE4F908196FD83
:1007200016C02F5F3F4F2C30310571F781110FC07C
:100730001092800082E080938100109285001092D8
:100740008400B19A80916F00826080936F00E09185
:1007500030018E2F90E0FC01EE0FFF1FE80FF91F14
:10076000E45FFE4F80818064808390E080E00E949F
:100770008C0091E4792E23E0E22EF12C33E2C32E9B
:10078000D12C40EAA42E40E0B42E5CE8852E50E047
:10079000952EC0E0D0E06624639470927C00809136
:1007A0007A00806480937A0080917A0086FDFCCF85
:1007B00020917800309179008091020129353240F2
:1007C0000CF474C081110AC084EB90E00E948C008C
:1007D0006092020160E087E00E94F10080910201D6
:1007E000811158C060E085E00E94F100C7010197C7
:1007F000F1F761E085E00E94F100C6010197F1F791
:1008000060E085E00E94F100F5016491F4018491BB
:10081000E82FF0E0EE0FFF1FE859FF4F859194910C
:1008200000E315E720E030E0462F0E94CB0261157F
:1008300071058105910529F06F5F7F4F8F4F9F4FA5
:100840009F700E941B0528E23EE74CE05DE30E949A
:100850007F0520E030E040E05FE30E947F050E94DA
:10086000E304615071096D31710550F561E087E075
:100870000E94F10068E572E080E090E00E94930140
:1008800060E087E00E94F10064E670E080E090E0C4
:100890000E94930164EF71E080E090E00E94930178
:1008A000209709F47ACF0E94000077CF882309F4BB
:1008B00095CF90E080E00E948C00109202018ECFD4
:1008C00060E087E00E94F100E5CF809100018C306C
:1008D00098F491E0980F909300018093300190E09C
:1008E000FC01EE0FFF1FE80FF91FE45FFE4F88EBDE
:1008F0009BE09283818308958FEF80933001089568
:10090000052E97FB1EF400940E94970457FD07D014
:100910000E94B20407FC03D04EF40C949704509547
:100920004095309521953F4F4F4F5F4F08959095DB
:100930008095709561957F4F8F4F9F4F08950E94CE
:10094000D404A59F900DB49F900DA49F800D911D80
:1009500011240895B7FF0C949F040E949F04821BEA
:10096000930B0895A1E21A2EAA1BBB1BFD010DC01B
:10097000AA1FBB1FEE1FFF1FA217B307E407F5074F
:1009800020F0A21BB30BE40BF50B661F771F881F2B
:10099000991F1A9469F760957095809590959B01C1
:1009A000AC01BD01CF010895A29FB001B39FC0016A
:1009B000A39F700D811D1124911DB29F700D811D8B
:1009C0001124911D08950E94EA046894B1110C94B9
:1009D000790508950E945E0588F09F5798F0B92F19
:1009E0009927B751B0F0E1F0660F771F881F991F64
:1009F0001AF0BA95C9F714C0B13091F00E94780589
:100A0000B1E008950C947805672F782F8827B85F98
:100A100039F0B93FCCF3869577956795B395D9F7BB
:100A20003EF490958095709561957F4F8F4F9F4FC5
:100A30000895E89409C097FB3EF4909580957095D1
:100A400061957F4F8F4F9F4F9923A9F0F92F96E91A
:100A5000BB279395F695879577956795B795F1118F
:100A6000F8CFFAF4BB0F11F460FF1BC06F5F7F4F2C
:100A70008F4F9F4F16C0882311F096E911C077233E
:100A800021F09EE8872F762F05C0662371F096E847
:100A9000862F70E060E02AF09A95660F771F881F16
:100AA000DAF7880F9695879597F9089557FD90582E
:100AB000440F551F59F05F3F71F04795880F97FB22
:100AC000991F61F09F3F79F08795089512161306DC
:100AD0001406551FF2CF4695F1DF08C0161617060B
:100AE0001806991FF1CF8695710561050894089540
:100AF000E894BB2766277727CB0197F908950E94D2
:100B000092050C9403060E94F50538F00E94FC053E
:100B100020F0952311F00C94EC050C94F2051124AF
:100B20000C9479050E94560570F3959FC1F3950FBB
:100B300050E0551F629FF001729FBB27F00DB11D61
:100B4000639FAA27F00DB11DAA1F649F6627B00DF1
:100B5000A11D661F829F2227B00DA11D621F739FDA
:100B6000B00DA11D621F839FA00D611D221F749FE8
:100B70003327A00D611D231F849F600D211D822F2F
:100B8000762F6A2F11249F5750409AF0F1F0882356
:100B90004AF0EE0FFF1FBB1F661F771F881F915083
:100BA0005040A9F79E3F510580F00C94EC050C9441
:100BB00079055F3FE4F3983ED4F386957795679582
:100BC000B795F795E7959F5FC1F7FE2B880F911DAD
:100BD0009695879597F9089597F99F6780E870E053
:100BE00060E008959FEF80EC089500240A941616A3
:100BF000170618060906089500240A94121613060B
:100C0000140605060895092E0394000C11F4882398
:100C100052F0BB0F40F4BF2B11F460FF04C06F5FB4
:100C20007F4F8F4F9F4F0895991B79E004C0991F04
:100C3000961708F0961B881F7A95C9F78095089536
:100C4000EE0FFF1F0590F491E02D0994F894FFCF6B
:107E0000112484B714BE81FFF0D085E080938100F7
:107E100082E08093C00088E18093C10086E0809377
:107E2000C20080E18093C4008EE0C9D0259A86E02C
:107E300020E33CEF91E0309385002093840096BBD3
:107E4000B09BFECF1D9AA8958150A9F7CC24DD24C4
:107E500088248394B5E0AB2EA1E19A2EF3E0BF2EE7
:107E6000A2D0813461F49FD0082FAFD0023811F036
:107E7000013811F484E001C083E08DD089C08234E0
:107E800011F484E103C0853419F485E0A6D080C0E4
:107E9000853579F488D0E82EFF2485D0082F10E0AE
:107EA000102F00270E291F29000F111F8ED06801E7
:107EB0006FC0863521F484E090D080E0DECF843638
:107EC00009F040C070D06FD0082F6DD080E0C81688
:107ED00080E7D80618F4F601B7BEE895C0E0D1E017
:107EE00062D089930C17E1F7F0E0CF16F0E7DF06D8
:107EF00018F0F601B7BEE89568D007B600FCFDCFD4
:107F0000A601A0E0B1E02C9130E011968C91119780
:107F100090E0982F8827822B932B1296FA010C0160
:107F200087BEE89511244E5F5F4FF1E0A038BF0790
:107F300051F7F601A7BEE89507B600FCFDCF97BE46
:107F4000E89526C08437B1F42ED02DD0F82E2BD052
:107F50003CD0F601EF2C8F010F5F1F4F84911BD097
:107F6000EA94F801C1F70894C11CD11CFA94CF0C13
:107F7000D11C0EC0853739F428D08EE10CD085E9AC
:107F80000AD08FE07ACF813511F488E018D01DD067
:107F900080E101D065CF982F8091C00085FFFCCF94
:107FA0009093C60008958091C00087FFFCCF809118
:107FB000C00084FD01C0A8958091C6000895E0E648
:107FC000F0E098E1908380830895EDDF803219F02E
:107FD00088E0F5DFFFCF84E1DECF1F93182FE3DFCA
:107FE0001150E9F7F2DF1F91089580E0E8DFEE27F6
:047FF000FF270994CA
:027FFE00040479
:00000001FF
