:100000000C945D000C9485000C9485000C94850084
:100010000C9485000C9485000C9485000C9485004C
:100020000C9485000C9485000C9485000C9480063B
:100030000C9485000C9485000C9485000C9485002C
:100040000C94DE050C9485000C944E060C94280646
:100050000C9485000C9485000C9485000C9485000C
:100060000C943C070C94850000000008000201007D
:100070000003040700000000000000000000000072
:10008000250028002B0000000000240027002A0083
:10009000040404040404040402020202020203032E
:1000A0000303030301020408102040800102040836
:1000B00010200102040810205B0811241FBECFEF9E
:1000C000D8E0DEBFCDBF12E0A0E0B1E0E4EEF2E2A6
:1000D00002C005900D92A63BB107D9F724E0A6EB2C
:1000E000B2E001C01D92AC35B207E1F710E0CDE5FA
:1000F000D0E004C02197FE010E94A40DCC35D107A9
:10010000C9F70E94CA080C9470110C94000080E496
:1001100080937C0080917A00806480937A00809143
:100120007A0086FDFCCF8091780090917900089547
:1001300090E0FC01EC55FF4F249180579F4FFC014C
:100140008491882399F090E0880F991FFC01EA5769
:10015000FF4FA591B491FC01E458FF4F8591949114
:100160008FB7F894EC91E22BEC938FBF08958F92A8
:100170009F92AF92BF92FF920F931F93CF93DF9303
:10018000F09055042BE02F1508F44CC02091570433
:1001900008E512E0021B110927FD1395000F111F3E
:1001A000000F111F20915604C8E8D0E0C21BD109EE
:1001B00027FDD395CC0FDD1FCC0FDD1F4E010D2E7B
:1001C000000CAA08BB089801012E000C440B550B2B
:1001D000281939094A095B09DC010E94210D24EB29
:1001E00030E040E050E00E94F70C820E931EA41E07
:1001F000B51E8C169D062CF0E801801691060CF4B5
:10020000E4012297CC0FDD1F2FB7F8948F2D90E0DB
:10021000FC01EE0FFF1FE80FF91FE05DFB4FD283DB
:10022000C1832FBFDF91CF911F910F91FF90BF909E
:10023000AF909F908F90089590E0FC01E859FF4F98
:100240002491FC01EC55FF4F3491FC01E057FF4F26
:10025000E491EE23C9F0222339F0233001F1A8F410
:10026000213019F1223029F1F0E0EE0FFF1FE458A0
:10027000FF4FA591B4918FB7F894EC91611126C00E
:1002800030953E233C938FBF08952730A9F0283046
:10029000C9F0243049F7809180008F7D03C08091A0
:1002A00080008F7780938000DFCF84B58F7784BD07
:1002B000DBCF84B58F7DFBCF8091B0008F778093AB
:1002C000B000D2CF8091B0008F7DF9CF3E2BDACF36
:1002D0003FB7F8948091330390913403A091350394
:1002E000B091360326B5A89B05C02F3F19F00196A3
:1002F000A11DB11D3FBFBA2FA92F982F8827BC0180
:10030000CD01620F711D811D911D42E0660F771FA7
:10031000881F991F4A95D1F708958F929F92AF92A7
:10032000BF92CF92DF92EF92FF924B015C010E944D
:1003300068016B017C010E9468016C197D098E09BE
:100340009F09683E734081059105A8F321E0821A58
:100350009108A108B10888EEC80E83E0D81EE11C00
:10036000F11C81149104A104B10429F7FF90EF90CE
:10037000DF90CF90BF90AF909F908F9008952FB750
:10038000F89460912F037091300380913103909124
:1003900032032FBF089508950895AF92BF92CF9270
:1003A000DF92EF92FF920F931F93CF93DF936C0135
:1003B0007B018B01040F151FEB015E01AE18BF0816
:1003C000C017D10759F06991D601ED91FC910190C8
:1003D000F081E02DC6010995892B79F7C501DF91E0
:1003E000CF911F910F91FF90EF90DF90CF90BF9032
:1003F000AF900895FC01538D448D252F30E0842F5C
:1004000090E0821B930B541710F0CF96089501973C
:100410000895FC01918D828D981761F0A28DAE0F29
:10042000BF2FB11D5D968C91928D9F5F9F73928FB0
:1004300090E008958FEF9FEF0895FC01918D828DDC
:10044000981731F0828DE80FF11D858D90E00895A9
:100450008FEF9FEF0895FC01918D228D892F90E001
:10046000805C9F4F821B91098F739927089587E8BD
:1004700093E00E942B0221E0892B09F420E0822FD7
:10048000089580E090E0892B29F00E9437028111C5
:100490000C9400000895FC01A48DA80FB92FB11D84
:1004A000A35ABF4F2C91848D90E001968F739927AA
:1004B000848FA689B7892C93A089B1898C91837088
:1004C00080648C93938D848D981306C00288F38981
:1004D000E02D80818F7D80830895EF92FF920F93AE
:1004E0001F93CF93DF93EC0181E0888F9B8D8C8DE0
:1004F00098131AC0E889F989808185FF15C09FB7D4
:10050000F894EE89FF896083E889F9898081837096
:10051000806480839FBF81E090E0DF91CF911F9145
:100520000F91FF90EF900895F62E0B8D10E00F5F66
:100530001F4F0F731127E02E8C8D8E110CC00FB63C
:1005400007FCFACFE889F989808185FFF5CFCE01D4
:100550000E944B02F1CFEB8DEC0FFD2FF11DE35A02
:10056000FF4FF0829FB7F8940B8FEA89FB89808157
:100570008062CFCFCF93DF93EC01888D8823B9F0D1
:10058000AA89BB89E889F9898C9185FD03C080819E
:1005900086FD0DC00FB607FCF7CF8C9185FFF2CF1B
:1005A000808185FFEDCFCE010E944B02E9CFDF9124
:1005B000CF9108952091D702260F3327331F213280
:1005C0003105ECF420915D03FC0190E080E02430E3
:1005D00069F082E00895A091D7022191AC014954BD
:1005E0005D4FA40FB52FB11D2C930196861798F37C
:1005F0008091D702680F6093D70280E0089581E070
:10060000089510925D0381E080935C03109237039C
:1006100061E082E10E941C0161E083E10E941C0113
:10062000E9EBF0E080818E7F808380818D7F808305
:1006300088E48093B80085E48093BC000895CF934C
:10064000DF9391E09093B6028823B9F0C091B8008F
:10065000D091BA008091BC008A7B8093BC0060E09E
:1006600082E10E941C0160E083E10E941C010E9463
:100670000103D093BA00C093B800DF91CF910895E1
:100680008F929F92AF92BF92CF92DF92EF92FF92A2
:100690000F931F93CF93DF93D0918603D13208F04D
:1006A000D7C0182FC09185030E9468016B017C019F
:1006B00080915D0381116BC082E080935D03109394
:1006C0005C038FEF80935B0310925A03D09359031E
:1006D000A5E6B3E0E9E3F3E080E0D81391C010921F
:1006E000380380913803CC0FC82BC0933803809116
:1006F0003703813009F088C0109237030E946801E7
:100700006B017C01809138038093BB0080915F0373
:1007100090916003A0916103B0916203892B8A2BB1
:100720008B2BA1F00E94680100915F031091600380
:1007300020916103309162036C197D098E099F0934
:10074000061717072807390708F442C08091BC0034
:1007500083FDD8CF85EC8093BC000E9468016B01BB
:100760007C0180915D03823009F450C080915B036D
:100770008F3F09F46FC080915B03803209F46CC035
:1007800080915B03803309F469C084E026C08091C6
:100790005F0390916003A0916103B0916203892B84
:1007A0008A2B8B2B09F484CF0E94680180905F0311
:1007B00090906003A0906103B09062036C197D0972
:1007C0008E099F0986169706A806B90608F070CF0D
:1007D00080915E030E941F0385E0109264031092D3
:1007E000860310926303DF91CF911F910F91FF90C9
:1007F000EF90DF90CF90BF90AF909F908F90089533
:100800009D9191938F5F69CF85EEA5CF80915F0316
:1008100090916003A0916103B0916203892B8A2BB0
:100820008B2B09F49ECF0E94680100915F03109109
:10083000600320916103309162036C197D098E0978
:100840009F09061717072807390708F08ACFC0CF76
:1008500081E0C3CF80E0C1CF82E0BFCF83E0BDCFD6
:100860001F93CF93DF93EA01122FDC0111968D9134
:100870009C91DC01ED91FC910280F381E02D0995C2
:10088000C817D90729F4812F0E94400391E08111F4
:1008900090E0892FDF91CF911F910895CF93DF933F
:1008A000EC018B818823A1F0888191E09093630310
:1008B00080938503109264031092860381E00E9466
:1008C000400391E0811190E0892FDF91CF9108954D
:1008D000109200031092FF0210926403109286039C
:1008E0000E9401038BEC91E09093FE028093FD0245
:1008F0008CEC91E09093FC028093FB0281E08B836F
:10090000CE010E944E04982F8111CECFDDCF0895E5
:10091000E09100038091FF02E81730F4F0E0EF5F10
:10092000FC4F808190E008958FEF9FEF08959091A4
:1009300000038091FF022FEF3FEF981748F4E92F53
:10094000F0E0EF5FFC4F208130E09F5F9093000369
:10095000C90108958091FF0290910003891B990BB2
:100960000895CF92DF92EF92FF920F931F93CF9350
:10097000DF937C01CB018A0120916303222389F05C
:10098000EB016B01C40ED51ECC15DD0569F0699134
:10099000D701ED91FC910190F081E02DC7010995FF
:1009A000F3CF642F0E94DA02C801DF91CF911F912B
:1009B0000F91FF90EF90DF90CF900895CF93DF934A
:1009C0001F92CDB7DEB76983209163032223F9F02C
:1009D00020918603203258F021E030E0FC0133837F
:1009E000228390E080E00F90DF91CF910895809175
:1009F0006403E82FF0E0EB59FC4F998190838F5FFF
:100A0000809364038093860381E090E0ECCF61E003
:100A1000CE0101960E94DA02F7CF90E080E00895BF
:100A2000FC0101900020E9F73197AF01481B590BF9
:100A3000BC0187E893E00C94CD01CF93DF930E9433
:100A40001005EC0182E391E00E9410058C0F9D1FC0
:100A5000DF91CF9108958F929F92AF92BF92CF92E4
:100A6000DF92EF92FF920F931F93CF93DF93CDB757
:100A7000DEB7A1970FB6F894DEBF0FBECDBF6B01F6
:100A80007C01F7FE41C06DE287E893E00E946D02B1
:100A90008C0122273327A9012C193D094E095F0932
:100AA00019A2CE0181967C019AE0892E912CA12C6D
:100AB000B12CCA01B901A50194010E94600D605DCD
:100AC000F70162937F01211531054105510589F731
:100AD00090E080E0309719F0CF010E941005800F60
:100AE000911FA1960FB6F894DEBF0FBECDBFDF9168
:100AF000CF911F910F91FF90EF90DF90CF90BF901B
:100B0000AF909F908F900895AC019B0119A28E0128
:100B10000F5D1F4F8AE0C82ED12CE12CF12CCA01A9
:100B2000B901A70196010E94600D605DF801629312
:100B30008F01211531054105510589F790E080E0CD
:100B4000309779F2CF010E941005CBCF85ED8093CD
:100B5000BC0080915F0390916003A0916103B0910C
:100B600062030796A11DB11D23E0B695A795979541
:100B700087952A95D1F72091BC0024FD03C01092DF
:100B80005D03089540915F0350916003609161039C
:100B900070916203452B462B472B69F30097A10503
:100BA000B10541F02AE22A95F1F700C00197A109A9
:100BB000B109E1CF80915E030C941F031F920F9245
:100BC0000FB60F9211242F933F938F939F93AF9360
:100BD000BF9380912F0390913003A0913103B09186
:100BE000320330912E0323E0230F2D3758F5019661
:100BF000A11DB11D20932E0380932F0390933003EA
:100C0000A0933103B0933203809133039091340366
:100C1000A0913503B09136030196A11DB11D8093BB
:100C2000330390933403A0933503B0933603BF91FD
:100C3000AF919F918F913F912F910F900FBE0F9089
:100C40001F90189526E8230F0296A11DB11DD2CF43
:100C50001F920F920FB60F9211242F933F934F9331
:100C60005F936F937F938F939F93AF93BF93EF9314
:100C7000FF9387E893E00E944B02FF91EF91BF91B1
:100C8000AF919F918F917F916F915F914F913F9124
:100C90002F910F900FBE0F901F9018951F920F92DB
:100CA0000FB60F9211242F938F939F93EF93FF937F
:100CB000E0919703F09198038081E0919D03F0917A
:100CC0009E0382FD1BC090818091A0038F5F8F7374
:100CD0002091A103821741F0E091A003F0E0E957D1
:100CE000FC4F958F8093A003FF91EF919F918F917F
:100CF0002F910F900FBE0F901F9018958081F4CF09
:100D00001F920F920FB60F9211242F933F934F9380
:100D10005F936F937F938F939F93AF93BF93CF9383
:100D2000DF93EF93FF938091FA02C0915404D0E0D7
:100D300087FF24C010928500109284008091FA02EF
:100D40008F5F8093FA028091FA02082E000C990BB3
:100D50008C179D0724F48091FA028C30C4F18091A5
:100D6000840090918500049680349C4908F47AC0F0
:100D70008091840090918500049676C08091FA025B
:100D8000082E000C990B8C179D07C4F6E091FA020F
:100D90008E2FEE0F990BFC01EE0FFF1FE80FF91FCE
:100DA000E05DFB4F808186FFC9CFE091FA028E2F74
:100DB000EE0F990BFC01EE0FFF1FE80FF91FE05D2E
:100DC000FB4F808160E08F730E941C01B7CF2091A0
:100DD000840030918500E091FA028E2FEE0F990B7E
:100DE000FC01EE0FFF1FE80FF91FE05DFB4F818153
:100DF0009281820F931F9093890080938800E091E5
:100E0000FA028E2FEE0F990BFC01EE0FFF1FE80F79
:100E1000F91FE05DFB4F808186FF11C0E091FA026F
:100E20008E2FEE0F990BFC01EE0FFF1FE80FF91F3D
:100E3000E05DFB4F808161E08F730E941C01FF9198
:100E4000EF91DF91CF91BF91AF919F918F917F9162
:100E50006F915F914F913F912F910F900FBE0F9027
:100E60001F90189580E49CE99093890080938800F6
:100E70008FEF8093FA02E3CF1F920F920FB60F927B
:100E800011242F933F934F935F936F937F938F938F
:100E90009F93AF93BF93EF93FF938091B900887FA7
:100EA000803609F44AC0F0F5883209F4A7C018F575
:100EB000803109F49BC0B8F4882309F4F9C0883064
:100EC00009F494C0FF91EF91BF91AF919F918F91E1
:100ED0007F916F915F914F913F912F910F900FBE36
:100EE0000F901F901895883109F488C0803251F70F
:100EF00080935B0314C0803409F49DC040F48033B8
:100F0000B9F38833F9F680935B0385ECB0C0803584
:100F100009F485C0883509F496C0883499F60E9492
:100F2000A605D0CF883909F48CC038F5883729F068
:100F300050F4883611F0803729F683E080935D0302
:100F40001092F90257C0883809F47BC0803919F033
:100F5000803809F0B7CF8091F902803208F071C073
:100F6000E091F90281E08E0F8093F9028091BB003D
:100F7000F0E0E752FD4F80833DC0803B39F0E0F464
:100F8000803A09F479C0883A09F09CCF84E08093D4
:100F90005D031092D8021092D702E091FD02F09109
:100FA000FE0209958091D70281110FC081E08093E4
:100FB000D7021092B70209C0803C09F4A6CF883C42
:100FC00009F4A3CF883B09F07DCFE091D80281E0FE
:100FD0008E0F8093D802F0E0E954FD4F808180931A
:100FE000BB009091D8028091D70229C0809138032C
:100FF0008093BB0085EC8093BC0064CF90915A0332
:1010000080915903981758F5E0915A0381E08E0FAB
:1010100080935A03F0E0E75CFC4F8081E9CFE091D8
:101020005A0381E08E0F80935A038091BB00F0E059
:10103000E75CFC4F808390915A0380915903981785
:10104000C8F285E8D8CFE0915A0381E08E0F8093F3
:101050005A038091BB00F0E0E75CFC4F80838091F5
:101060005C0381115CCF81E08093370384EA809335
:10107000BC0010925D0326CF85EC8093BC001092DB
:101080005D038091F902803230F4E091F902F0E0E2
:10109000E752FD4F10826091F90270E0E091FB028F
:1010A000F091FC0289ED92E009951092F9020ACFC5
:1010B00010925B0334CF10928A031092890388EE5A
:1010C00093E0A0E0B0E080938B0390938C03A09317
:1010D0008D03B0938E0322E131E030938803209397
:1010E000870325EC30E0309394032093930324ECA2
:1010F00030E0309396032093950320EC30E030935A
:1011000098032093970321EC30E030939A032093C7
:10111000990322EC30E030939C0320939B0326EC50
:1011200030E030939E0320939D031092A003109211
:10113000A1031092A2031092A3031092270410920D
:1011400026048093280490932904A0932A04B09342
:101150002B0484E291E090932504809324048091F1
:1011600054048C3098F491E0980F90935404809339
:10117000550490E0FC01EE0FFF1FE80FF91FE05D42
:10118000FB4F88EB9BE09283818308958FEF8093E0
:1011900055040895CF93DF93CDB7DEB7A1970FB66F
:1011A000F894DEBF0FBECDBF789484B5826084BD55
:1011B00084B5816084BD85B5826085BD85B581605B
:1011C00085BD80916E00816080936E0010928100D9
:1011D0008091810082608093810080918100816094
:1011E0008093810080918000816080938000809155
:1011F000B10084608093B1008091B00081608093E1
:10120000B00080917A00846080937A0080917A00A7
:10121000826080937A0080917A00816080937A0066
:1012200080917A00806880937A001092C100E091EA
:101230009703F091980382E08083E0919303F0910B
:1012400094031082E0919503F09196038FEC8083D4
:1012500010929F03E0919B03F0919C0386E08083B2
:10126000E0919903F0919A03808180618083E091FD
:101270009903F0919A03808188608083E0919903BB
:10128000F0919A03808180688083E0919903F091C6
:101290009A0380818F7D808380912C0390912D0310
:1012A000009711F00E94460E86E090E00E94AA0D81
:1012B0008C0188E6D8018C9384E294E012969C938A
:1012C0008E93119713961C92139780E290E01596D7
:1012D0009C938E93149710932D0300932C031092DC
:1012E00000031092FF0210926403109286030E9482
:1012F00001038BEC91E09093FE028093FD028CEC55
:1013000091E09093FC028093FB02FF24F394F80198
:10131000F382C8010E944E04811105C085E391E06B
:101320000E941D05FFCFCE0101969C8F8B8F86E01A
:10133000AB8DBC8D1D928A95E9F788E58B8387E09C
:101340008C8388E28E8384E08F8385E28887809116
:101350002C0390912D03FC01248135812830310527
:1013600088F02081F0926303209385031092640338
:101370001092860321E048E050E0BE016F5F7F4F8E
:101380000E943004809155048C3008F050C089E0F0
:101390000E94980080915504282F30E0F901EE0F4B
:1013A000FF1FE20FF31FE05DFB4F9081907C99607F
:1013B000908310925604109257042CE0622F0E94E2
:1013C000910D829FB001112430E020E0AB01420F6B
:1013D000531FFA01EE0FFF1FE40FF51FE05DFB4FF7
:1013E000908196FD16C02F5F3F4F2C30310571F76D
:1013F00081110FC01092800082E0809381001092D2
:10140000850010928400B19A80916F008260809371
:101410006F00E09155048E2F90E0FC01EE0FFF1F4E
:10142000E80FF91FE05DFB4F80818064808390E0CE
:1014300080E00E94B70088E00E94980060E088E0A9
:101440000E941C0187E491E00E941D05FE01759633
:10145000FE8FED8F1982A0902C03B0902D03D50143
:1014600014968D919C911597892B09F419C18C9133
:1014700091E090936303809385031092640310922C
:10148000860320E041E050E0BE016F5F7F4FC50161
:101490000E943004882309F403C1D12CC12C772485
:1014A0007394F50184819581F7E0EF2EF12CEC180F
:1014B000FD088E159F0508F47C01D5010C910E9452
:1014C00068011B012C0180915D03811172C01E2DEA
:1014D000113208F010E270925D0321E087E090E0A5
:1014E0008E199F09C816D90608F420E020935C03E2
:1014F000BFEFB0935B0310925A038FEF810F80937D
:1015000059037092380380913803000F082B009321
:10151000380380913703813009F095C0109237036A
:101520000E9468011B012C01809138038093BB004D
:1015300080915F0390916003A0916103B091620379
:10154000892B8A2B8B2BA1F00E94680120915F03CD
:1015500030916003409161035091620362197309F5
:1015600084099509261737074807590708F442C028
:101570008091BC0083FDD8CFE5ECE093BC000E94D5
:1015800068011B012C0180915D03813009F45FC06B
:1015900080915A03811710F410915A03A9E3B3E024
:1015A000E1E0F3E080E0811751F19D9191938F5F2D
:1015B000FACF80915F0390916003A0916103B09195
:1015C0006203892B8A2B8B2B09F47DCF0E94680143
:1015D00020915F0330916003409161035091620359
:1015E00062197309840995092617370748075907AF
:1015F00008F069CF80915E030E941F0310E01092F3
:1016000000031093FF021E151F0409F049C001E0FA
:1016100010E00C0F1D1F0C0D1D1D4801C80188197D
:1016200099098E159F05A8F5D50111968D919C916C
:10163000DC01ED91FC910284F385E02D0995F80120
:1016400081938F01EBCFF5EEF093BC0098CF8091A2
:101650005F0390916003A0916103B0916203892BB5
:101660008A2B8B2B09F48FCF0E94680120915F0396
:1016700030916003409161035091620362197309D4
:1016800084099509261737074807590708F07BCFC3
:10169000B1CFCE0CDF1CF7E0CF16D10408F401CF98
:1016A000298129A32A81822F90E044E0959587958E
:1016B0004A95E1F7982F990F990F082F091B000FF2
:1016C000020F2B81822F90E054E0959587955A95D3
:1016D000E1F7982F990F990F182F191B110F120F5F
:1016E00061E2E62E63E0F62E8AE091E098A38F8F08
:1016F00076E0A72E71E0B72E412C512C3201439495
:10170000812E912C202E312CAF8DB8A18D919D91E1
:10171000B8A3AF8F8816990609F064C1F501C0809F
:10172000D1802C143D0439F5D7018C91811123C04F
:1017300084EB90E00E94B70084E691E00E941D05D2
:1017400068EB7BE080E090E00E948D0190E080E01B
:101750000E94B70021E0F70120830E94BF0182E8C8
:1017600091E00E941005C301B2010E942B058CE894
:1017700091E00E941D059FEFC91AD90AC214D30433
:101780008CF4D7018C91882369F01C9288E991E050
:101790000E941005C301B2010E942B0582E391E073
:1017A0000E941005BFEFEB1AFB0AE2E0AE0EB11C7F
:1017B000F2E04F1651046104710409F0D8C00E9490
:1017C00087007C0185EB91E00E941005B7010F2C8A
:1017D000000C880B990B0E942B0582E391E00E947C
:1017E0001005809127032CE2E21621E0F2060CF0AE
:1017F000C4C0811115C061E088E00E941C0181E035
:10180000809327030E94BF016093230370932403F6
:10181000809325039093260383EC91E00E941D059D
:10182000809127038823E9F00E94BF01C090230321
:10183000D0902403E0902503F09026036C197D09D5
:101840008E099F09613177428105910550F060E072
:1018500088E00E941C01109227038EE092E00E9413
:101860001D050E94BF01C0902803D0902903E0907D
:101870002A03F0902B036C197D098E099F09683E9D
:1018800073408105910508F45FC099A0E89497F82A
:101890000E94BF01609328037093290380932A0359
:1018A00090932B030E9487007C01892D90E024E017
:1018B000959587952A95E1F7982F990F990F891B90
:1018C000880F980E1F929F921F920F931F921F9343
:1018D000EBE3F2E0FF93EF9381E090E08C0F9D1F2C
:1018E0009F938F930E94CF0E8AE492E00E9410058E
:1018F000CE0101960E94100581E592E00E9410053C
:1019000024E630E0D7010E949D0D2FEF33E040E048
:1019100050E00E94F70CCA01B9010E942B0582E633
:1019200092E00E941D050FB6F894DEBF0FBECDBF3A
:1019300080912703882369F184E692E00E941D05C7
:1019400086E992E00E941D0568EC70E080E090E07E
:101950000E948D0180E090E0892B09F47BCD0E94EC
:101960003702882309F476CD0E94000073CD32E05F
:10197000432E512C612C712CC7CE882309F450CFF3
:1019800060E088E00E941C011092270384EE91E041
:1019900045CF84E792E00E9410051F921F921850D5
:1019A000E1E0F0E0183010F0F0E0E0E0EE0FFF1FB3
:1019B000E65FFE4F81818F9380818F9380E492E078
:1019C0009F938F93BE8DBF93ED8DEF930E94CF0EAB
:1019D000CE0145960E941D050FB6F894DEBF0FBEDE
:1019E000CDBFAECF881599050CF4CBCEDBCE052E3E
:1019F00097FB1EF400940E940E0D57FD07D00E9425
:101A0000600D07FC03D04EF40C940E0D50954095DC
:101A1000309521953F4F4F4F5F4F0895909580959A
:101A2000709561957F4F8F4F9F4F08950E94820D53
:101A3000A59F900DB49F900DA49F800D911D112422
:101A40000895B7FF0C94160D0E94160D821B930B80
:101A500008952F923F924F925F926F927F928F9252
:101A60009F92AF92BF92CF92DF92EF92FF920F932D
:101A70001F93CF93DF93CDB7DEB7CA1BDB0B0FB637
:101A8000F894DEBF0FBECDBF09942A8839884888F4
:101A90005F846E847D848C849B84AA84B984C8848A
:101AA000DF80EE80FD800C811B81AA81B981CE0F81
:101AB000D11D0FB6F894DEBF0FBECDBFED01089566
:101AC000A1E21A2EAA1BBB1BFD010DC0AA1FBB1F42
:101AD000EE1FFF1FA217B307E407F50720F0A21BB4
:101AE000B30BE40BF50B661F771F881F991F1A9421
:101AF00069F760957095809590959B01AC01BD014B
:101B0000CF010895A29FB001B39FC001A39F700DA4
:101B1000811D1124911DB29F700D811D1124911DF5
:101B20000895991B79E004C0991F961708F0961B39
:101B3000881F7A95C9F7809508950E94820DB7FF96
:101B40000895821B930B0895EE0FFF1F0590F491EB
:101B5000E02D09940F931F93CF93DF93823091056B
:101B600010F482E090E0E0915A04F0915B0430E0E0
:101B700020E0B0E0A0E0309799F42115310509F498
:101B80004AC0281B390B24303105D8F58A819B8146
:101B90006115710589F1FB0193838283FE0111C0F8
:101BA000408151810281138148175907E0F048179D
:101BB000590799F4109761F012960C9312971396A7
:101BC0001C933296CF01DF91CF911F910F91089511
:101BD00000935A0410935B04F4CF2115310551F0A2
:101BE0004217530738F0A901DB019A01BD01DF015B
:101BF000F801C1CFEF01F9CF90935B0480935A04B1
:101C0000CDCFFE01E20FF31F819391932250310952
:101C100039832883D7CF2091580430915904232B3E
:101C200041F4209102013091030130935904209333
:101C3000580420910001309101012115310541F432
:101C40002DB73EB74091040150910501241B350B7F
:101C5000E0915804F0915904E217F307A0F42E1B09
:101C60003F0B2817390778F0AC014E5F5F4F241700
:101C7000350748F04E0F5F1F5093590440935804A6
:101C8000819391939FCFF0E0E0E09CCFCF93DF93DF
:101C90000097E9F0FC01329713821282A0915A0456
:101CA000B0915B04ED0130E020E01097A1F42081B9
:101CB0003181820F931F20915804309159042817C5
:101CC000390709F061C0F0935904E0935804DF919B
:101CD000CF910895EA01CE17DF07E8F54A815B81CD
:101CE0009E0141155105B1F7E901FB83EA83499152
:101CF0005991C40FD51FEC17FD0761F480819181C4
:101D00000296840F951FE9019983888382819381CC
:101D10009B838A83F0E0E0E012968D919C9113976B
:101D20000097B9F52D913C911197CD010296820F44
:101D3000931F20915804309159042817390739F618
:101D4000309751F510925B0410925A04B0935904E5
:101D5000A0935804BCCFD383C28340815181840FA8
:101D6000951FC817D90761F44E5F5F4F888199812D
:101D7000480F591F518340838A819B8193838283BB
:101D80002115310509F0B0CFF0935B04E0935A04BC
:101D90009ECFFD01DC01C0CF13821282D7CFAEE00F
:101DA000B0E0E5EDFEE00C94370D0D891E8986E06C
:101DB0008C831A8309838FEF9FE79E838D83AE0107
:101DC000475E5F4F6F89788DCE0101960E94F20EBB
:101DD0002F813885020F131FF80110822E96E4E040
:101DE0000C94530DABE0B0E0E8EFFEE00C94290D4D
:101DF0007C013B018A01FC0117821682838181FFED
:101E0000C8C1CE0101965C01F7019381F30193FDF6
:101E1000859193FF81913F01882309F453C1853255
:101E200039F493FD859193FF81913F01853229F427
:101E3000B70190E00E94E210E7CF912C212C312CC9
:101E4000FFE1F31538F08B3211F190F4803209F193
:101E5000833229F137FC3CC020ED280F2A3050F5A1
:101E600036FE20C08AE0989E200D1124922E06C0D6
:101E70008D3291F0803371F7689430F8F30193FD5F
:101E8000859193FF81913F018111DACF21C0689440
:101E900031F8689432F8F2CF689433F8EFCF689451
:101EA00034F8ECCFEAE02E9E200D1124222E689407
:101EB00035F8E4CF8E3229F436FC04C1689436F844
:101EC000DDCF8C3619F4689437F8D8CF8836B1F264
:101ED000982F9F7D95549330E0F08336A1F183379E
:101EE000C1F1833509F063C02801F2E04F0E511CA7
:101EF000F801C080D180692D70E036FC02C06FEF20
:101F00007FEFC6010E94CC104C01689437F8820123
:101F10000AC00C5F1F4FFFE3F98388248394912C40
:101F20006501E89437F833FE2DC0522C81149104DA
:101F300071F5552009F468CFB70180E290E00E9466
:101F4000E2105A94F6CFF801808189830E5F1F4F0B
:101F5000E4CF2801F2E04F0E511CF801C080D1807F
:101F6000692D70E036FC02C06FEF7FEFC6010E9462
:101F7000D7104C018201D5CFB70180E290E00E94DA
:101F8000E2102A942814190409F0B0F7CECFF60114
:101F900037FC859137FE81916F01B70190E00E9477
:101FA000E21051105A94F1E08F1A9108BFCF843695
:101FB00019F0893609F077C0F80137FE6BC06081EF
:101FC0007181828193810C5F1F4FF32DFF763F2E2D
:101FD00097FF09C090958095709561957F4F8F4FC1
:101FE0009F4F689437F82AE030E0A5010E94121153
:101FF000C82ECA188C2C432C36FE0CC0E89440F82E
:10200000C91440F434FE05C032FC03C0F32DFE7E3B
:102010004F2E892C44FE95C0FE01EC0DF11D8081F0
:10202000803309F087C0242D297E422E842D8870AC
:10203000582E43FC95C040FE8FC09C2C821418F48F
:102040002C0C922C981844FE91C0B70180E390E0CC
:102050000E94E21042FE09C088E790E041FE02C003
:1020600088E590E0B7010E94E210C91408F48AC024
:10207000CA94D12C9FEFC91AD90ACA0CDB1CF601ED
:1020800082916F01B70190E00E94E210AC14BD0490
:10209000B1F74FCF60817181072E000C880B990B2F
:1020A0000E5F1F4F92CFD32CE894D4F82AE030E093
:1020B000853739F1232D297FD22E8F3601F148F44F
:1020C0008835A9F0F701868197812B96E2E10C947F
:1020D000450D803749F08837A9F7D4FE02C06894CF
:1020E000D2F820E130E00DC06894D4F8F6CF34FE89
:1020F00003C0822F8660D82E20E132E002C028E0A3
:1021000030E0F801D7FE0FC0608171818281938138
:102110000C5F1F4FA5010E941211C82ECA183D2C3A
:10212000E89437F867CF6081718190E080E00E5FBE
:102130001F4FF0CF42FC02C0839478CF83948394E6
:1021400075CF842D867809F471CFF6CFB70180E280
:1021500090E00E94E21083948214C0F3512C73CF5C
:10216000522C5818821408F46ECFF8CF842D86783C
:1021700009F47BCF8BE241FE80E247FC8DE2B701A0
:1021800090E071CFB70180E390E00E94E2109A9452
:102190006CCF8FEF9FEF99CFFC010590615070409D
:1021A0000110D8F7809590958E0F9F1F0895FC0120
:1021B0006150704001900110D8F7809590958E0F76
:1021C0009F1F08950F931F93CF93DF93182F092F0D
:1021D000EB018B8181FD09C01FEF0FEF812F902F45
:1021E000DF91CF911F910F91089582FF14C02E812E
:1021F0003F818C819D81281739073CF4E881F98162
:10220000CF0101969983888310838E819F810196E7
:102210009F838E83E3CFE885F985812F0995892BEC
:10222000A1F3DACFFA01AA27283051F1203181F148
:10223000E8946F936E7F6E5F7F4F8F4F9F4FAF4FCE
:10224000B1E03ED0B4E03CD0670F781F891F9A1FE1
:10225000A11D680F791F8A1F911DA11D6A0F711D95
:10226000811D911DA11D20D009F468943F912AE0A1
:10227000269F11243019305D3193DEF6CF01089589
:10228000462F4770405D4193B3E00FD0C9F7F6CFBA
:10229000462F4F70405D4A3318F0495D31FD405282
:1022A000419302D0A9F7EACFB4E0A6959795879518
:1022B00077956795BA95C9F70097610571050895F7
:1022C0009B01AC010A2E06945795479537952795A3
:1022D000BA95C9F7620F731F841F951FA01D08953B
:0422E000F894FFCFA0
:1022E40000005C04800000000000080010000000F2
:1022F40000006D02CD01FA01BA022B0209021D028F
:1023040000000000DE04B1040D058704AA0497044C
:1023140088040D0A00436F756C646E277420666927
:102324006E642052544300436869636B656E2043B6
:102334006F6F702053797374656D20537461727478
:10234400696E670046656564696E672054696D65EA
:10235400212044697370656E73696E6720466F6FE0
:10236400640046656564696E6720230020616374B8
:1023740069766174656421005265736574206665CD
:102384006564696E6720666C616720666F7220738E
:102394006C6F7420005761746572206C6576656C8F
:1023A4003A20005761746572206C6576656C206C08
:1023B4006F772E2050756D70206163746976617437
:1023C40065642E005761746572206C6576656C20B7
:1023D40073756666696369656E742E2050756D70D9
:1023E4002064656163746976617465642E00507558
:1023F4006D702074696D656F757420666F722073DB
:1024040061666574792E20436865636B2077617417
:10241400657220737570706C792100253032643ACE
:10242400253032643A253032640054696D653A20AF
:1024340000207C205761746572204C6576656C3A87
:102444002000250050756D70205374617475733AC3
:10245400204F4E0050756D70205374617475733A3B
:10246400204F4646207C204E65787420466565647E
:10247400696E673A20002D2D2D2D2D2D2D2D2D2DFE
:102484002D2D2D2D2D2D2D2D2D2D2D2D2D2D2D2D78
:062494002D2D2D2D00008E
:00000001FF
