:100000000C9462000C948A000C948A000C948A0070
:100010000C948A000C948A000C948A000C948A0038
:100020000C948A000C948A000C948A000C948A0028
:100030000C948A000C948A000C948A000C948A0018
:100040000C946F060C948A000C94DF060C94B9068D
:100050000C948A000C948A000C948A000C948A00F8
:100060000C948A000C948A000000000024002700F1
:100070002A0000000000250028002B0000000008D6
:10008000000201000003040700000000000000005F
:1000900000000000230026002900040404040404D6
:1000A0000404020202020202030303030303010227
:1000B00004081020408001020408102001020408F6
:1000C0001020110711241FBECFEFD8E0DEBFCDBF37
:1000D00012E0A0E0B1E0ECE9F8E102C005900D9279
:1000E000A432B107D9F722E0A4E2B2E001C01D9228
:1000F000A53FB207E1F710E0C2E6D0E004C02197C7
:10010000FE010E94460CC136D107C9F70E947A074A
:100110000C944C0C0C940000CF92DF92EF92FF9263
:10012000CF93DF93B091E902A0E08111AB2F8091D2
:10013000EA0290E0880F991FAC0140575F4FC090D2
:10014000EF02D090F002E090F102F090F20230E085
:1001500020E0FA01C591D491E881B90190E080E0F6
:10016000EB23EA130AC02F5F3F4F6C157D058E0508
:100170009F0578F36FEF7FEFCB01DF91CF91FF9079
:10018000EF90DF90CF90089590E0FC01E458FF4F8E
:100190002491FC01E255FF4F3491FC01E656FF4FDC
:1001A000E491EE23C9F0222339F0233001F1A8F4C1
:1001B000213019F1223029F1F0E0EE0FFF1FEE5847
:1001C000FF4FA591B4918FB7F894EC91611126C0BF
:1001D00030953E233C938FBF08952730A9F02830F7
:1001E000C9F0243049F7809180008F7D03C0809151
:1001F00080008F7780938000DFCF84B58F7784BDB8
:10020000DBCF84B58F7DFBCF8091B0008F7780935B
:10021000B000D2CF8091B0008F7DF9CF3E2BDACFE6
:10022000CF93DF9390E0FC01E255FF4F2491865677
:100230009F4FFC0184918823D1F090E0880F991F93
:10024000FC01E859FF4FA591B491FC01EE58FF4F16
:10025000C591D491623071F49FB7F8943C91822F8C
:10026000809583238C93E8812E2B28839FBFDF9179
:10027000CF9108958FB7F894EC912E2B2C938FBFCC
:10028000F6CF3FB7F8948091250290912602A09175
:100290002702B091280226B5A89B05C02F3F19F070
:1002A0000196A11DB11D3FBFBA2FA92F982F8827F6
:1002B000BC01CD01620F711D811D911D42E0660FD1
:1002C000771F881F991F4A95D1F708958F929F92A3
:1002D000AF92BF92CF92DF92EF92FF924B015C01FF
:1002E0000E9441016B017C010E9441016C197D0952
:1002F0008E099F09683E734081059105A8F321E0AE
:10030000821A9108A108B10888EEC80E83E0D81EB1
:10031000E11CF11C81149104A104B10429F7FF90A0
:10032000EF90DF90CF90BF90AF909F908F90089507
:10033000CF92DF92EF92FF920F931F93CF93DF93B1
:10034000CDB7DEB7C054D1400FB6F894DEBF0FBEB4
:10035000CDBF2FB7F8948091290290912A02A091E5
:100360002B02B0912C022FBF4091EB025091EC0276
:100370006091ED027091EE028C019D01041B150B42
:10038000260B370BB901A801403D574061057105A7
:1003900090F48091F302C05CDE4F0FB6F894DEBF9C
:1003A0000FBECDBFDF91CF911F910F91FF90EF90C6
:1003B000DF90CF9008958093EB029093EC02A0938E
:1003C000ED02B093EE021092E6021092E502109256
:1003D000E4021092E3021092E20262E08091E702EE
:1003E0000E94100161E070E080E090E00E946601F0
:1003F00061E08091E7020E94100160E08091E702D5
:100400000E94C4008091E8028551823020F58BE281
:1004100091E10197F1F762E08091E7020E941001FB
:100420008091F40290E08230910538F0880F991F96
:10043000880F991F05970197F1F7F89480E00E94C3
:100440008C006F3F7F4F8F4F9F4F61F41092F302EC
:10045000789480E0A0CF64E170E080E090E00E94BA
:100460006601D9CF81E00E948C006F3F7F4F8F4F94
:100470009F4F61F38E010F5F1F4F6E018FEBC81A04
:100480008EEFD80A780180E00E948C00F70160832B
:1004900071838283938381E00E948C00F7016483DF
:1004A000758386839783F8E0EF0EF11CEC14FD044E
:1004B00051F7789430E020E0F801C080D180E280EC
:1004C000F3804481558166817781FFEFCF16DF0687
:1004D000EF06FF0631F04F3F8FEF580768077807A8
:1004E00019F41092F302B5CFF90183E0F595E79581
:1004F0008A95E1F7EE51FD4F8081880FC416D5062D
:10050000E606F70610F180832F5F3F4F085F1F4F0D
:100510002832310589F64091E6022091E20280916D
:10052000E302280F3327331F8091E402280F311D87
:100530008091E502820F932F911D99274817190684
:1005400081F681E08093F30226CF8160DCCFAF9209
:10055000BF92CF92DF92EF92FF920F931F93CF93B0
:10056000DF936C017B018B01040F151FEB015E0112
:10057000AE18BF08C017D10759F06991D601ED91A7
:10058000FC910190F081E02DC6010995892B79F746
:10059000C501DF91CF911F910F91FF90EF90DF90F8
:1005A000CF90BF90AF900895FC01538D448D252FBF
:1005B00030E0842F90E0821B930B541710F0CF96FD
:1005C000089501970895FC01918D828D981761F02F
:1005D000A28DAE0FBF2FB11D5D968C91928D9F5F46
:1005E0009F73928F90E008958FEF9FEF0895FC0125
:1005F000918D828D981731F0828DE80FF11D858DD8
:1006000090E008958FEF9FEF0895FC01918D228D6A
:10061000892F90E0805C9F4F821B91098F739927EF
:1006200008958DE292E00E94050321E0892B09F4F0
:1006300020E0822F089580E090E0892B29F00E942D
:10064000110381110C9400000895FC01A48DA80FE2
:10065000B92FB11DA35ABF4F2C91848D90E0019604
:100660008F739927848FA689B7892C93A089B18924
:100670008C91837080648C93938D848D981306C0C5
:100680000288F389E02D80818F7D80830895EF9229
:10069000FF920F931F93CF93DF93EC0181E0888F3C
:1006A0009B8D8C8D98131AC0E889F989808185FF0C
:1006B00015C09FB7F894EE89FF896083E889F989AE
:1006C00080818370806480839FBF81E090E0DF91B0
:1006D000CF911F910F91FF90EF900895F62E0B8D03
:1006E00010E00F5F1F4F0F731127E02E8C8D8E11BE
:1006F0000CC00FB607FCFACFE889F989808185FF25
:10070000F5CFCE010E942503F1CFEB8DEC0FFD2F2D
:10071000F11DE35AFF4FF0829FB7F8940B8FEA89DF
:10072000FB8980818062CFCFCF93DF93EC01888DEE
:100730008823B9F0AA89BB89E889F9898C9185FD5C
:1007400003C0808186FD0DC00FB607FCF7CF8C91EA
:1007500085FFF2CF808185FFEDCFCE010E9425037A
:10076000E9CFDF91CF910895089590E080E008955A
:10077000FB0101900020E9F73197AF01461B570BB1
:10078000DC01ED91FC910280F381E02D09948F92C0
:100790009F92AF92BF92EF92FF920F931F93CF93CE
:1007A000DF93CDB7DEB7A1970FB6F894DEBF0FBECB
:1007B000CDBF7C01FA01CB0119A2223008F42AE056
:1007C0008E010F5D1F4F822E912CB12CA12CBF01E9
:1007D000A50194010E94240CF901CA016A300CF5AC
:1007E000605DD8016E938D01232B242B252B79F787
:1007F00090E080E0109721F0BD01C7010E94B8038E
:10080000A1960FB6F894DEBF0FBECDBFDF91CF919A
:100810001F910F91FF90EF90BF90AF909F908F909E
:100820000895695CDECFCF93DF93BC018DE292E047
:100830000E94B803EC016EE171E08DE292E00E944B
:10084000B8038C0F9D1FDF91CF9108950C94B803CE
:100850002F923F924F925F926F927F928F929F92D0
:10086000AF92BF92CF92DF92EF92FF921F93CF93FE
:10087000DF93EC016A017B01722EAB019601CB0183
:10088000B6010E941F0C61E271E0811126C0460191
:100890005701E894B7F82FEF3FEF4FE75FE7C50147
:1008A000B4010E941F0C81110CC02FEF3FEF4FE7E6
:1008B0005FE7C501B4010E94550A65E271E01816B0
:1008C00064F02FEF3FEF4FE75FE4C701B6010E94EE
:1008D000AD0B1816B4F469E271E0CE01DF91CF914F
:1008E0001F91FF90EF90DF90CF90BF90AF909F90BF
:1008F0008F907F906F905F904F903F902F900C94CF
:10090000B8032FEF3FEF4FE75FECC701B6010E943E
:10091000550A87FDE0CF20E030E0A901C701B6010C
:100920000E94550A312C212C87FF0DC0E881F981E6
:100930000190F081E02D6DE2CE0109951C01F7FADE
:10094000F094F7F8F09410E060E070E080E09FE34E
:10095000711641F020E030E040E251E40E945A0A72
:100960001F5FF6CFA70196010E94E9092B013C0108
:100970000E94CC0A4B015C012AE0BC01A401CE011B
:100980000E94C7037C01E20CF31C1123E1F1C501B5
:10099000B4010E94FB0A9B01AC01C301B2010E9499
:1009A000E8094B015C01E881F9810190F081E02DBB
:1009B0006EE2CE010995E80EF91E115020F120E0FB
:1009C00030E040E251E4C501B4010E94B20B2B01BA
:1009D0003C010E94CC0A4B01B12CA12C2AE0B501AC
:1009E000A401CE010E94C703E80EF91EC501B4019F
:1009F0000E94FB0A9B01AC01C301B2010E94E809FD
:100A00004B015C01DACFC701DF91CF911F91FF90BD
:100A1000EF90DF90CF90BF90AF909F908F907F909E
:100A20006F905F904F903F902F900895CF93DF93FA
:100A3000EC0160E08E810E94C40061E08E810E9422
:100A4000C40060E08E810E94C4008BE891E00197B1
:100A5000F1F7DF91CF910895CF92DF92EF92FF925D
:100A60000F931F93CF93DF936C017C0187E0E80E17
:100A7000F11CD0E0C0E0062F10E0B8010C2E02C03F
:100A8000759567950A94E2F76170F70181917F018E
:100A90000E94C4002196C430D10579F7C601DF91C8
:100AA000CF911F910F91FF90EF90DF90CF900C941A
:100AB0001605CF92DF92EF92FF920F931F93CF9381
:100AC000DF93EC01F62E642F8C810E94C4008D818F
:100AD0008F3F19F060E00E94C4000F2D10E08F8559
:100AE00084FF25C06E0187E0C80ED11CF12CE12CDB
:100AF000B8010E2C02C0759567950A94E2F76170F3
:100B0000F60181916F010E94C400FFEFEF1AFF0A06
:100B100088E0E816F10461F7CE01DF91CF911F91D3
:100B20000F91FF90EF90DF90CF900C941605B801D5
:100B300084E0759567958A95E1F7CE010E942C05B2
:100B40006F2DCE01DF91CF911F910F91FF90EF900C
:100B5000DF90CF900C942C0540E0682F8AEC92E057
:100B60000C94590581E00E94AC058BE39FE101974D
:100B7000F1F70895CF93DF93823029F49091D90251
:100B800098609093D9028093DD021092DE0280E497
:100B90008093DF0280E18093E00280E58093E102B0
:100BA00061E08091CE020E9410018091CF028F3FC0
:100BB00019F061E00E94100161E08091D0020E9472
:100BC0001001CAECD2E09E012A5C32408091D90229
:100BD00084FD0BC084E090E021962817390744F487
:100BE00061E08E810E941001EECF88E090E0F4CFAA
:100BF0008BE39DE00197F1F760E08091CE020E94C7
:100C0000C40060E08091D0020E94C4008091CF02B5
:100C10008F3F19F060E00E94C4008091D90284FDEA
:100C200034C063E08AEC92E00E942C05CBE4D6E469
:100C3000CE010197F1F763E08AEC92E00E942C0567
:100C40002197F1F763E08AEC92E00E942C0583E59E
:100C500092E00197F1F762E08AEC92E00E942C05A5
:100C60008091D90280620E94AC0584E08093DA0210
:100C70008CE00E94AC050E94B20582E08093DB020A
:100C800086E0DF91CF910C94AC0580620E94AC05A8
:100C90008BE496E40197F1F78091D90280620E947B
:100CA000AC0583E592E00197F1F78091D90280626B
:100CB0000E94AC05D5CF9091DD02891710F08FEF1F
:100CC000890FE82FF0E0E653FD4F848980680C948B
:100CD000AC0541E00E94590581E090E008951F9223
:100CE0000F920FB60F9211242F933F938F939F93E0
:100CF000AF93BF938091290290912A02A0912B0279
:100D0000B0912C023091240223E0230F2D3758F5A7
:100D10000196A11DB11D2093240280932902909376
:100D20002A02A0932B02B0932C028091250290916D
:100D30002602A0912702B09128020196A11DB11DA3
:100D40008093250290932602A0932702B093280255
:100D5000BF91AF919F918F913F912F910F900FBEB7
:100D60000F901F90189526E8230F0296A11DB11D24
:100D7000D2CF1F920F920FB60F9211242F933F9351
:100D80004F935F936F937F938F939F93AF93BF9393
:100D9000EF93FF938DE292E00E942503FF91EF9184
:100DA000BF91AF919F918F917F916F915F914F9183
:100DB0003F912F910F900FBE0F901F9018951F928B
:100DC0000F920FB60F9211242F938F939F93EF934F
:100DD000FF93E0913D02F0913E028081E091430259
:100DE000F091440282FD1BC09081809146028F5F8A
:100DF0008F7320914702821741F0E0914602F0E0A4
:100E0000E35DFD4F958F80934602FF91EF919F9197
:100E10008F912F910F900FBE0F901F90189580818A
:100E2000F4CFEDE2F2E01382128288EE93E0A0E0CC
:100E3000B0E084839583A683B78384E091E09183B7
:100E4000808385EC90E09587848784EC90E0978799
:100E5000868780EC90E0918B808B81EC90E0938B87
:100E6000828B82EC90E0958B848B86EC90E0978B64
:100E7000868B118E128E138E148EA2EEB2E08DE050
:100E800015968C9315978BE016968C931697EBEB33
:100E9000F0E0E4911796EC931797E7EAF0E0E4911D
:100EA0001896EC93189740E85EE360E070E01D96BA
:100EB0004D935D936D937C935097EAECF2E013822F
:100EC000128226E131E0318320839CE094839FEFFE
:100ED000958386838AE0878389E0808788E081879D
:100EE00087E082871386148615861686178681E02A
:100EF0000C94BA05789484B5826084BD84B5816011
:100F000084BD85B5826085BD85B5816085BD8091D4
:100F10006E00816080936E0010928100809181004C
:100F20008260809381008091810081608093810044
:100F3000809180008160809380008091B100846006
:100F40008093B1008091B00081608093B000809167
:100F50007A00846080937A0080917A008260809326
:100F60007A0080917A00816080937A0080917A0083
:100F7000806880937A001092C100E0913D02F09168
:100F80003E0282E08083E0913902F0913A021082C1
:100F9000E0913B02F0913C028FEC8083109245027D
:100FA000E0914102F091420286E08083E0913F02AD
:100FB000F0914002808180618083E0913F02F09156
:100FC0004002808188608083E0913F02F09140027E
:100FD000808180688083E0913F02F09140028081AF
:100FE0008F7D80838DE291E00E94130462E0809106
:100FF000E7020E9410012FB7F89480912902909186
:101000002A02A0912B02B0912C022FBF805D974045
:10101000A109B1098093EB029093EC02A093ED0239
:10102000B093EE0287E38093F40261E082E00E94D5
:10103000100161E083E00E94100161E082E00E9403
:10104000C40060E083E00E94C40082E00E94BA0510
:101050000E94B2056DE571E08AEC92E00E942604E0
:1010600081E00E945B066DE671E08AEC92E00E94EE
:10107000260460ED77E080E090E00E9466010E9427
:10108000B205C0E0D0E00E949801882349F0809129
:10109000E8028B3028F08D3050F085518230C0F15D
:1010A000812C912C20ECA22E2FE7B22E1EC0609135
:1010B000E30270E090E080E00E94FD0A2DEC3CEC41
:1010C0004CEC5DE30E94B20B6B017C016091E2028B
:1010D00070E090E080E00E94FD0A9B01AC01C70136
:1010E000B6010E94E9094B015C010E949801882326
:1010F00041F08091E8028C3009F4B7C0D8F48B300D
:1011000091F1C12CD12C80ECE82E8FE7F82E55C040
:101110006091E2027091E30276276727762790E0DC
:1011200080E00E94FB0A2DEC3CEC4CEC5DE30E945D
:10113000B20BD9CF8551823020F71091E402612F94
:1011400070E0762F662766277F778091E502682B0F
:1011500090E080E00E94FB0A2DEC3CEC4CEC5DE35F
:101160000E94B20B9EC06091E40270E090E080E0CB
:101170000E94FB0A6B017C011091E50217FF0AC077
:10118000AC019B0160E070E080E89FEB0E94E80901
:101190006B017C011F70612F70E090E080E00E9485
:1011A000FD0A2DEC3CEC4CEC5DE30E94B20BA70178
:1011B00096010E94E9096B017C016DE771E08DE207
:1011C00092E00E94260422E0B501A4018DE292E0A3
:1011D0000E94280468E871E08DE292E00E942604F3
:1011E00022E0B701A6018DE292E00E94280489E97D
:1011F00091E00E941304A5019401C501B4010E946D
:101200001F0C811109C0A7019601C701B6010E94F8
:101210001F0C882309F44EC08DE991E00E9413044D
:101220000E94B20580E00E945B066DEB71E08AECE3
:1012300092E00E94260481E00E945B066BEC71E064
:101240008AEC92E00E94260460ED77E080E090E076
:101250000E946601209709F416CF0E94110388238B
:1012600009F411CF0E9400000ECF1091E402612F0B
:1012700070E090E080E00E94FB0A6B017C016091CD
:10128000E5026F7070E090E080E00E94FD0A2DECB6
:101290003CEC4CEC5DE30E94B20BA70196010E946E
:1012A000E9096B017C0117FF88CFF7FAF094F7F892
:1012B000F09483CF0E94B20580E00E945B0668ED47
:1012C00071E08AEC92E00E94260422E0B701A601B8
:1012D0008AEC92E00E9428046BED71E08AEC92E0C7
:1012E0000E9426046EED71E08AEC92E00E942604D2
:1012F00022E0B501A4018AEC92E00E94280461EE8C
:1013000071E08AEC92E00E94260481E00E945B0674
:1013100020E030E040EF51E4C701B6010E94AD0B80
:1013200087FD2FC060E082E00E94C40061E083E09E
:101330000E94C40063EE71E08AEC92E00E942604F1
:1013400011E001E062E172E08DE292E00E94260489
:101350006DEE71E0011102C06EE072E08DE292E08C
:101360000E9426046BE172E08DE292E00E94260466
:101370008DEE91E0111102C08EE092E00E94130404
:1013800063CF61E082E00E94C40020E030E040E7EB
:1013900052E4C501B4010E94AD0B18166CF461E073
:1013A00083E00E94C40060EF71E08AEC92E00E944A
:1013B000260411E000E0C6CF60E083E00E94C40094
:1013C00061E072E08AEC92E00E94260410E0F2CF25
:1013D0005058BB27AA270E94000A0C94730B0E9446
:1013E000650B38F00E946C0B20F039F49F3F19F424
:1013F00026F40C94620B0EF4E095E7FB0C945C0B66
:10140000E92F0E94840B58F3BA1762077307840709
:10141000950720F079F4A6F50C94A60B0EF4E09550
:101420000B2EBA2FA02D0B01B90190010C01CA019E
:10143000A0011124FF27591B99F0593F50F4503E49
:1014400068F11A16F040A22F232F342F4427585F3B
:10145000F3CF469537952795A795F0405395C9F753
:101460007EF41F16BA0B620B730B840BBAF091500B
:10147000A1F0FF0FBB1F661F771F881FC2F70EC0AA
:10148000BA0F621F731F841F48F48795779567957D
:10149000B795F7959E3F08F0B0CF9395880F08F069
:1014A0009927EE0F9795879508950E94380B08F4B9
:1014B00081E008950E946E0A0C94730B0E946C0BDD
:1014C00058F00E94650B40F029F45F3F29F00C941E
:1014D0005C0B51110C94A70B0C94620B0E94840BB3
:1014E00068F39923B1F3552391F3951B550BBB2753
:1014F000AA2762177307840738F09F5F5F4F220F98
:10150000331F441FAA1FA9F335D00E2E3AF0E0E88E
:1015100032D091505040E695001CCAF72BD0FE2FD8
:1015200029D0660F771F881FBB1F2617370748076C
:10153000AB07B0E809F0BB0B802DBF01FF27935824
:101540005F4F3AF09E3F510578F00C945C0B0C9481
:10155000A70B5F3FE4F3983ED4F3869577956795A4
:10156000B795F7959F5FC9F7880F911D9695879559
:1015700097F90895E1E0660F771F881FBB1F621778
:1015800073078407BA0720F0621B730B840BBA0B36
:10159000EE1F88F7E09508950E948C0B88F09F5706
:1015A00098F0B92F9927B751B0F0E1F0660F771F87
:1015B000881F991F1AF0BA95C9F714C0B13091F07D
:1015C0000E94A60BB1E008950C94A60B672F782F0C
:1015D0008827B85F39F0B93FCCF386957795679542
:1015E000B395D9F73EF490958095709561957F4FAE
:1015F0008F4F9F4F0895E89409C097FB3EF4909554
:101600008095709561957F4F8F4F9F4F9923A9F0DB
:10161000F92F96E9BB279395F6958795779567956A
:10162000B795F111F8CFFAF4BB0F11F460FF1BC0AE
:101630006F5F7F4F8F4F9F4F16C0882311F096E941
:1016400011C0772321F09EE8872F762F05C06623EF
:1016500071F096E8862F70E060E02AF09A95660FA8
:10166000771F881FDAF7880F9695879597F9089561
:10167000990F0008550FAA0BE0E8FEEF16161706A3
:10168000E807F907C0F012161306E407F50798F00B
:10169000621B730B840B950B39F40A2661F0232B24
:1016A000242B252B21F408950A2609F4A140A695A0
:1016B0008FEF811D811D089597F99F6780E870E085
:1016C00060E008959FEF80EC089500240A941616B8
:1016D000170618060906089500240A941216130620
:1016E000140605060895092E0394000C11F48823AE
:1016F00052F0BB0F40F4BF2B11F460FF04C06F5FCA
:101700007F4F8F4F9F4F089557FD9058440F551F9F
:1017100059F05F3F71F04795880F97FB991F61F073
:101720009F3F79F087950895121613061406551FEA
:10173000F2CF4695F1DF08C0161617061806991F56
:10174000F1CF86957105610508940895E894BB274B
:1017500066277727CB0197F908950E94380B08F484
:101760008FEF08950E94C50B0C94730B0E94650BBC
:1017700038F00E946C0B20F0952311F00C945C0B58
:101780000C94620B11240C94A70B0E94840B70F331
:10179000959FC1F3950F50E0551F629FF001729F16
:1017A000BB27F00DB11D639FAA27F00DB11DAA1F25
:1017B000649F6627B00DA11D661F829F2227B00D72
:1017C000A11D621F739FB00DA11D621F839FA00DFD
:1017D000611D221F749F3327A00D611D231F849F4D
:1017E000600D211D822F762F6A2F11249F575040A4
:1017F0009AF0F1F088234AF0EE0FFF1FBB1F661F1F
:10180000771F881F91505040A9F79E3F510580F0E7
:101810000C945C0B0C94A70B5F3FE4F3983ED4F35D
:10182000869577956795B795F795E7959F5FC1F78B
:10183000FE2B880F911D9695879597F908950E9424
:10184000380B880B990B0895A1E21A2EAA1BBB1B1B
:10185000FD010DC0AA1FBB1FEE1FFF1FA217B3077C
:10186000E407F50720F0A21BB30BE40BF50B661F92
:10187000771F881F991F1A9469F760957095809556
:1018800090959B01AC01BD01CF010895EE0FFF1FA4
:0C1890000590F491E02D0994F894FFCF2E
:10189C00000000004703A702D40294030503E302EF
:1018AC00F702000000006906A702B503B4030D0A95
:1018BC00006E616E00696E66006F7666005374612F
:1018CC007274696E672044485431312074656D70B0
:1018DC006572617475726520616E642068756D69DE
:1018EC0064697479206D6F6E69746F7200436C69F2
:1018FC006D61746520436F6E74726F6C00537973F5
:10190C0074656D205374617274696E670048756DEF
:10191C0069646974793A2000252C2054656D7065D2
:10192C007261747572653A2000C2B04300466169F9
:10193C006C656420746F20726561642066726F6DD3
:10194C00204448542073656E736F72210053656E8A
:10195C00736F72204572726F722100436865636BFE
:10196C0020576972696E6700543A00432000483A68
:10197C00002500486561742646616E3A204F4E0082
:10198C0048756D6964486967682C46616E3A4F4EBC
:10199C0000416C6C2053797374656D733A204F461B
:1019AC0046004865617465723A20002C2046616ED1
:0419BC003A200000CD
:00000001FF
