:020000040000FA
:100000000C9472000C949A000C949A000C949A0030
:100010000C949A000C949A000C949A000C949A00F8
:100020000C949A000C949A000C949A000C94280B4F
:100030000C949A000C949A000C949A000C949A00D8
:100040000C94BF090C949A000C948D090C946709C8
:100050000C949A000C949A000C949A000C949A00B8
:100060000C94090A0C949A001F1C1F1E1F1E1F1FB0
:100070001E1F1E00000000240027002A00000000B0
:1000800000250028002B00000000080002010000ED
:10009000030407000000000000000031313A32354F
:1000A0003A33320041707220313320323032340022
:1000B00000000000230026002900040404040404B6
:1000C0000404020202020202030303030303010207
:1000D00004081020408001020408102001020408D6
:1000E0001020290C11241FBECFEFD8E0DEBFCDBFFA
:1000F00012E0A0E0B1E0E2E4FAE202C005900D9265
:10010000A830B107D9F723E0A8E0B2E001C01D9202
:10011000A13CB207E1F710E0C2E7D0E004C02197AC
:10012000FE010E94F413C137D107C9F70E94C50C24
:100130000C941F150C9400008F929F92AF92BF9267
:10014000FF920F931F93CF93DF93F090A2032BE0C6
:100150002F1508F44CC02091A40308E512E0021BFF
:10016000110927FD1395000F111F000F111F20917A
:10017000A303C8E8D0E0C21BD10927FDD395CC0F5B
:10018000DD1FCC0FDD1F4E010D2E000CAA08BB0891
:100190009801012E000C440B550B281939094A0906
:1001A0005B09DC010E947C1224EB30E040E050E06F
:1001B0000E945212820E931EA41EB51E8C169D061E
:1001C0002CF0E801801691060CF4E4012297CC0F84
:1001D000DD1F2FB7F8948F2D90E0FC01EE0FFF1F6D
:1001E000E80FF91FE358FC4FD283C1832FBFDF9183
:1001F000CF911F910F91FF90BF90AF909F908F90E4
:100200000895FC01538D448D252F30E0842F90E01C
:10021000821B930B541710F0CF9608950197089501
:10022000FC01918D828D981761F0A28DAE0FBF2FCA
:10023000B11D5D968C91928D9F5F9F73928F90E020
:1002400008958FEF9FEF0895FC01918D828D98178F
:1002500031F0828DE80FF11D858D90E008958FEFCC
:100260009FEF0895FC01918D228D892F90E0805C95
:100270009F4F821B91098F7399270895FC01A48DCC
:10028000A80FB92FB11DA35ABF4F2C91848D90E0B8
:1002900001968F739927848FA689B7892C93A0899B
:1002A000B1898C91837080648C93938D848D981325
:1002B00006C00288F389E02D80818F7D80830895B8
:1002C000EF92FF920F931F93CF93DF93EC0181E0A6
:1002D000888F9B8D8C8D98131AC0E889F98980814D
:1002E00085FF15C09FB7F894EE89FF896083E88980
:1002F000F98980818370806480839FBF81E090E072
:10030000DF91CF911F910F91FF90EF900895F62EFE
:100310000B8D10E00F5F1F4F0F731127E02E8C8D98
:100320008E110CC00FB607FCFACFE889F9898081DD
:1003300085FFF5CFCE010E943E01F1CFEB8DEC0F92
:10034000FD2FF11DE35AFF4FF0829FB7F8940B8FFA
:10035000EA89FB8980818062CFCFCF93DF93EC0164
:10036000888D8823B9F0AA89BB89E889F9898C919D
:1003700085FD03C0808186FD0DC00FB607FCF7CF59
:100380008C9185FFF2CF808185FFEDCFCE010E9459
:100390003E01E9CFDF91CF91089584ED92E00E9474
:1003A000320121E0892B09F420E0822F089580E0BA
:1003B00090E0892B29F00E94CD0181110C9400005E
:1003C000089508950895AF92BF92CF92DF92EF9271
:1003D000FF920F931F93CF93DF936C017B018B01EF
:1003E000040F151FEB015E01AE18BF08C017D1073F
:1003F00059F06991D601ED91FC910190F081E02DC9
:10040000C6010995892B79F7C501DF91CF911F911D
:100410000F91FF90EF90DF90CF90BF90AF90089535
:1004200090E0FC01E957FF4F2491FC01E253FF4F9C
:100430003491FC01E654FF4FE491EE23C9F02223EE
:1004400039F0233001F1A8F4213019F1223029F1DB
:10045000F0E0EE0FFF1FE358FF4FA591B4918FB767
:10046000F894EC91611126C030953E233C938FBFE8
:1004700008952730A9F02830C9F0243049F7809139
:1004800080008F7D03C0809180008F7780938000F3
:10049000DFCF84B58F7784BDDBCF84B58F7DFBCF75
:1004A0008091B0008F778093B000D2CF8091B00060
:1004B0008F7DF9CF3E2BDACFCF93DF9390E0FC0115
:1004C000E253FF4F249186549F4FFC01849188236F
:1004D000D1F090E0880F991FFC01ED58FF4FA591D6
:1004E000B491FC01E358FF4FC591D49161110EC046
:1004F0009FB7F8948C91E22FE0958E238C932881FE
:10050000E223E8839FBFDF91CF9108958FB7F894DE
:10051000EC91E22BEC938FBFF6CF8E3008F08E502B
:100520008770806480937C0080917A0080648093DF
:100530007A0080917A0086FDFCCF809178009091BE
:10054000790008953FB7F894809152029091530238
:10055000A0915402B091550226B5A89B05C02F3F2B
:1005600019F00196A11DB11D3FBFBA2FA92F982FD9
:100570008827BC01CD01620F711D811D911D42E0D4
:10058000660F771F881F991F4A95D1F708958F929C
:100590009F92AF92BF92CF92DF92EF92FF924B0168
:1005A0005C010E94A2026B017C010E94A2026C19F4
:1005B0007D098E099F09683E734081059105A8F366
:1005C00021E0821A9108A108B10888EEC80E83E0E4
:1005D000D81EE11CF11C81149104A104B10429F777
:1005E000FF90EF90DF90CF90BF90AF909F908F9053
:1005F000089520912A02260F3327331F2132310517
:10060000ECF42091AA02FC0190E080E0243069F033
:1006100082E00895A0912A022191AC01465F5D4FCE
:10062000A40FB52FB11D2C930196861798F38091D6
:100630002A02680F60932A0280E0089581E00895FD
:100640001092AA0281E08093A9021092840261E0D4
:1006500082E10E94100261E083E10E941002E9EB56
:10066000F0E080818E7F808380818D7F808388E42D
:100670008093B80085E48093BC000895CF93DF9306
:1006800091E0909309028823B9F0C091B800D0910D
:10069000BA008091BC008A7B8093BC0060E082E15C
:1006A0000E94100260E083E10E9410020E94200379
:1006B000D093BA00C093B800DF91CF9108958F9284
:1006C0009F92AF92BF92CF92DF92EF92FF920F93E1
:1006D0001F93CF93DF93D091D302D13208F0D7C0CC
:1006E000182FC091D2020E94A2026B017C0180915E
:1006F000AA0281116BC082E08093AA021093A90222
:100700008FEF8093A8021092A702D093A602A2EBCB
:10071000B2E0E6E8F2E080E0D81391C010928502E2
:1007200080918502CC0FC82BC093850280918402F2
:10073000813009F088C0109284020E94A2026B01ED
:100740007C01809185028093BB008091AC029091E6
:10075000AD02A091AE02B091AF02892B8A2B8B2BF8
:10076000A1F00E94A2020091AC021091AD02209172
:10077000AE023091AF026C197D098E099F090617F0
:1007800017072807390708F442C08091BC0083FD91
:10079000D8CF85EC8093BC000E94A2026B017C0143
:1007A0008091AA02823009F450C08091A8028F3F44
:1007B00009F46FC08091A802803209F46CC0809166
:1007C000A802803309F469C084E026C08091AC029D
:1007D0009091AD02A091AE02B091AF02892B8A2B0D
:1007E0008B2B09F484CF0E94A2028090AC029090DF
:1007F000AD02A090AE02B090AF026C197D098E09D7
:100800009F0986169706A806B90608F070CF809152
:10081000AB020E943E0385E01092B1021092D30217
:100820001092B002DF91CF911F910F91FF90EF9046
:10083000DF90CF90BF90AF909F908F9008959D9143
:1008400091938F5F69CF85EEA5CF8091AC02909197
:10085000AD02A091AE02B091AF02892B8A2B8B2BF7
:1008600009F49ECF0E94A2020091AC021091AD0249
:100870002091AE023091AF026C197D098E099F095B
:10088000061717072807390708F08ACFC0CF81E07D
:10089000C3CF80E0C1CF82E0BFCF83E0BDCF08955A
:1008A000E091630280916202E81730F4F0E0EC59C5
:1008B000FD4F808190E008958FEF9FEF0895909114
:1008C0006302809162022FEF3FEF981748F4E92FFF
:1008D000F0E0EC59FD4F208130E09F5F9093630280
:1008E000C90108958091620290916302891B990B5E
:1008F0000895CF92DF92EF92FF920F931F93CF93C1
:10090000DF937C01CB018A012091B002222389F080
:10091000EB016B01C40ED51ECC15DD0569F06991A4
:10092000D701ED91FC910190F081E02DC70109956F
:10093000F3CF642F0E94F902C801DF91CF911F917C
:100940000F91FF90EF90DF90CF900895CF93DF93BA
:100950001F92CDB7DEB769832091B0022223F9F050
:100960002091D302203258F021E030E0FC013383A3
:10097000228390E080E00F90DF91CF9108958091E5
:10098000B102E82FF0E0EE54FD4F998190838F5F24
:100990008093B1028093D30281E090E0ECCF61E0DC
:1009A000CE0101960E94F902F7CF1F93CF93DF93F8
:1009B000EA01122FDC0111968D919C91DC01ED91E1
:1009C000FC910280F381E02D0995C817D90729F41D
:1009D000812F0E945F0391E0811190E0892FDF91C8
:1009E000CF911F910895CF93DF93EC018B818823E2
:1009F000A1F0888191E09093B0028093D20210928E
:100A0000B1021092D30281E00E945F0391E0811154
:100A100090E0892FDF91CF91089510926302109298
:100A200062021092B1021092D3020E94200381EE62
:100A300091E0909359028093580282EE91E0909356
:100A400057028093560281E08B83CE010E94F3040B
:100A5000982F8111CECFDDCFFC0161819081492F8C
:100A600050E08281282F30E0E8E6F0E081E0861750
:100A700030F47491270F311D8F5F3196F8CF6330BA
:100A800020F0937011F42F5F3F4F6DE671E0469FA9
:100A9000C001479F900D569F900D112405964D5F04
:100AA0005F4F5695479556954795840F951F820F32
:100AB000931F67E070E00E94E0130895FC019081AD
:100AC00090539A3008F090E0818180532AE0929F01
:100AD000800D11240895089590E080E008952F92EC
:100AE0003F924F925F926F927F928F929F92AF92BE
:100AF000BF92CF92DF92EF92FF920F931F93CF930B
:100B0000DF935C011B016A01F12CE12CD5011496E5
:100B10008D919C9186010E191F098017910708F489
:100B20008C01F501D0810E94A2022B013C01809131
:100B3000AA02811172C0C02F013208F0C0E2F1E0B8
:100B4000F093AA0221E0C601801B910BE816F9067A
:100B500008F420E02093A9028FEF8093A80210925E
:100B6000A7028C0F8093A602A1E0A093850280913A
:100B70008502DD0FD82BD0938502809184028130CD
:100B800009F090C0109284020E94A2022B013C0145
:100B9000809185028093BB008091AC029091AD0260
:100BA000A091AE02B091AF02892B8A2B8B2BA1F0C2
:100BB0000E94A2022091AC023091AD024091AE029F
:100BC0005091AF02641975098609970926173707EE
:100BD0004807590708F442C08091BC0083FDD8CF74
:100BE000B5ECB093BC000E94A2022B013C018091A5
:100BF000AA02813009F45AC08091A7028C1710F420
:100C0000C091A702A6E8B2E0E4E6F2E080E08C172B
:100C100051F19D9191938F5FFACF8091AC029091A9
:100C2000AD02A091AE02B091AF02892B8A2B8B2B23
:100C300009F47DCF0E94A2022091AC023091AD0256
:100C40004091AE025091AF02641975098609970967
:100C5000261737074807590708F069CF8091AB027C
:100C60000E943E03C0E010926302C0936202C0176C
:100C7000110609F057C041018E0C9F1CE401CE0102
:100C8000881999098017910798F5D50111968D91CA
:100C90009C91DC01ED91FC910284F385E02D099596
:100CA0008993EDCFE5EEE093BC009DCF8091AC023F
:100CB0009091AD02A091AE02B091AF02892B8A2B28
:100CC0008B2B09F494CF0E94A2022091AC023091A8
:100CD000AD024091AE025091AF02641975098609C8
:100CE0009709261737074807590708F080CFB6CF6E
:100CF000E00EF11EEC14FD0408F408CF81E0DF9152
:100D0000CF911F910F91FF90EF90DF90CF90BF9008
:100D1000AF909F908F907F906F905F904F903F909B
:100D20002F90089580E0EBCFCF93DF93EC0160E04C
:100D30008E810E94100261E08E810E94100260E0AC
:100D40008E810E9410028BE891E00197F1F7DF910C
:100D5000CF910895CF92DF92EF92FF920F931F935E
:100D6000CF93DF936C017C0187E0E80EF11CD0E0AB
:100D7000C0E0062F10E0B8010C2E02C075956795F3
:100D80000A94E2F76170F70181917F010E941002DD
:100D90002196C430D10579F7C601DF91CF911F911B
:100DA0000F91FF90EF90DF90CF900C949406CF922C
:100DB000DF92EF92FF920F931F93CF93DF93EC019B
:100DC000F62E642F8C810E9410028D818F3F19F0C6
:100DD00060E00E9410020F2D10E08F8584FF25C077
:100DE0006E0187E0C80ED11CF12CE12CB8010E2C4D
:100DF00002C0759567950A94E2F76170F6018191DA
:100E00006F010E941002FFEFEF1AFF0A88E0E81658
:100E1000F10461F7CE01DF91CF911F910F91FF9007
:100E2000EF90DF90CF900C949406B80184E0759514
:100E300067958A95E1F7CE010E94AA066F2DCE0133
:100E4000DF91CF911F910F91FF90EF90DF90CF90A6
:100E50000C94AA0640E0682F85EA93E00C94D7062C
:100E600081E00E942A078BE39FE10197F1F7089543
:100E7000CF93DF93823029F49091B40398609093DC
:100E8000B4038093B8031092B90380E48093BA034B
:100E900080E18093BB0380E58093BC0361E0809197
:100EA000A9030E945C028091AA038F3F19F061E0C0
:100EB0000E945C0261E08091AB030E945C02C5EA83
:100EC000D3E09E01255A33408091B40384FD0BC0CA
:100ED00084E090E021962817390744F461E08E8180
:100EE0000E945C02EECF88E090E0F4CF8BE39DE0BF
:100EF0000197F1F760E08091A9030E94100260E081
:100F00008091AB030E9410028091AA038F3F19F0D9
:100F100060E00E9410028091B40384FD34C063E05D
:100F200085EA93E00E94AA06CBE4D6E4CE010197BD
:100F3000F1F763E085EA93E00E94AA062197F1F7B2
:100F400063E085EA93E00E94AA0683E592E00197B8
:100F5000F1F762E085EA93E00E94AA068091B4036B
:100F600080620E942A0784E08093B5038CE00E948F
:100F70002A070E94300782E08093B60386E0DF9163
:100F8000CF910C942A0780620E942A078BE496E492
:100F90000197F1F78091B40380620E942A0783E5EC
:100FA00092E00197F1F78091B40380620E942A07D2
:100FB000D5CF9091B803891710F08FEF890FE82FE4
:100FC000F0E0EB55FC4F848980680C942A0741E0DF
:100FD0000E94D70681E090E0089541E0682F85EAFD
:100FE00093E00E94D70681E090E00895FB01019014
:100FF0000020E9F73197AF01461B570BDC01ED915B
:10100000FC910280F381E02D09948F929F92AF9220
:10101000BF92EF92FF920F931F93CF93DF93CDB7C1
:10102000DEB7A1970FB6F894DEBF0FBECDBF7C012F
:10103000FA01CB0119A2223008F42AE08E010F5DDB
:101040001F4F822E912CB12CA12CBF01A501940120
:101050000E948412F901CA016A300CF5605DD80162
:101060006E938D01232B242B252B79F790E080E0C4
:10107000109721F0BD01C7010E94F607A1960FB697
:10108000F894DEBF0FBECDBFDF91CF911F910F91BE
:10109000FF90EF90BF90AF909F908F900895695C04
:1010A000DECF462F50E070E060E02AE00C940508A7
:1010B0000C94F6078F929F92AF92BF92CF92DF92DD
:1010C000EF92FF9281E00E94D9076AE871E085EA19
:1010D00093E00E945808C0905C02D0905D02E090BE
:1010E0005E02F0905F02A7019601C701B6010E945F
:1010F000CF1368E971E081111AC046015701E894E5
:10110000B7F82FEF3FEF4FE75FE7C501B4010E944B
:10111000CF1381112AC02FEF3FEF4FE75FE7C501E3
:10112000B4010E942E11181604F56CE971E085EAED
:1011300093E00E94F60764EA71E085EA93E00E947A
:10114000580868EE73E080E090E00E94C70260E01B
:1011500082E00E941002FF90EF90DF90CF90BF904E
:10116000AF909F908F900C9430072FEF3FEF4FE799
:101170005FE4C701B6010E94CA1318161CF460EAA6
:1011800071E0D5CF2FEF3FEF4FE75FECC701B6011E
:101190000E942E1187FDF3CF20E030E0A901C701A6
:1011A000B6010E942E1187FF07C08DE20E94ED0755
:1011B000F7FAF094F7F8F0942AE037ED43EA5BE3AE
:1011C000C701B6010E94B6124B015C010E949B133D
:1011D0006B017C010E9433119B01AC01C501B4017C
:1011E0000E94B5124B015C012AE0B701A60185EA15
:1011F00093E00E9405088EE20E94ED0720E030E0B7
:1012000040E251E4C501B4010E9494114B015C011C
:101210000E949B136B01F12CE12C2AE0B701A6017F
:1012200085EA93E00E940508C701B6010E943311C8
:101230009B01AC01C501B4010E94B51220E030E071
:1012400040E251E40E9494110E949B13AB0170E0B4
:1012500060E02AE085EA93E00E9405086CCF85ED06
:101260008093BC008091AC029091AD02A091AE023F
:10127000B091AF020796A11DB11D23E0B695A795C9
:10128000979587952A95D1F72091BC0024FD03C03E
:101290001092AA0208954091AC025091AD02609163
:1012A000AE027091AF02452B462B472B69F3009796
:1012B000A105B10541F02AE22A95F1F700C0019796
:1012C000A109B109E1CF8091AB020C943E031F92BA
:1012D0000F920FB60F9211242F933F934F935F936A
:1012E0006F937F938F939F93AF93BF93EF93FF93EE
:1012F00084ED92E00E943E01FF91EF91BF91AF918A
:101300009F918F917F916F915F914F913F912F911D
:101310000F900FBE0F901F9018951F920F920FB64F
:101320000F9211242F938F939F93EF93FF93E0914C
:10133000E402F091E5028081E091EA02F091EB0293
:1013400082FD1BC090818091ED028F5F8F73209191
:10135000EE02821741F0E091ED02F0E0EC52FD4F19
:10136000958F8093ED02FF91EF919F918F912F9137
:101370000F900FBE0F901F9018958081F4CF1F9291
:101380000F920FB60F9211242F933F938F939F9339
:10139000AF93BF9380914E0290914F02A091500263
:1013A000B091510230914D0223E0230F2D3758F5B3
:1013B0000196A11DB11D20934D0280934E02909382
:1013C0004F02A0935002B09351028091520290912B
:1013D0005302A0915402B09155020196A11DB11D76
:1013E0008093520290935302A0935402B0935502FB
:1013F000BF91AF919F918F913F912F910F900FBE11
:101400000F901F90189526E8230F0296A11DB11D7D
:10141000D2CF1F920F920FB60F9211242F933F93AA
:101420004F935F936F937F938F939F93AF93BF93EC
:10143000EF93FF938091B900887F803609F44AC00A
:10144000F0F5883209F4A7C018F5803109F49BC083
:10145000B8F4882309F4F9C0883009F494C0FF91E6
:10146000EF91BF91AF919F918F917F916F915F911C
:101470004F913F912F910F900FBE0F901F90189595
:10148000883109F488C0803251F78093A80214C0D3
:10149000803409F49DC040F48033B9F38833F9F601
:1014A0008093A80285ECB0C0803509F485C08835EA
:1014B00009F496C0883499F60E942F09D0CF883954
:1014C00009F48CC038F5883729F050F4883611F0CB
:1014D000803729F683E08093AA0210924C0257C00D
:1014E000883809F47BC0803919F0803809F0B7CF0B
:1014F00080914C02803208F071C0E0914C0281E092
:101500008E0F80934C028091BB00F0E0E45DFD4FB4
:1015100080833DC0803B39F0E0F4803A09F479C023
:10152000883A09F09CCF84E08093AA0210922B02A3
:1015300010922A02E0915802F09159020995809187
:101540002A0281110FC081E080932A0210920A02C0
:1015500009C0803C09F4A6CF883C09F4A3CF883B9E
:1015600009F07DCFE0912B0281E08E0F80932B025A
:10157000F0E0E65FFD4F80818093BB0090912B02ED
:1015800080912A0229C0809185028093BB0085EC5E
:101590008093BC0064CF9091A7028091A602981717
:1015A00058F5E091A70281E08E0F8093A702F0E04A
:1015B000EA57FD4F8081E9CFE091A70281E08E0FCD
:1015C0008093A7028091BB00F0E0EA57FD4F808333
:1015D0009091A7028091A6029817C8F285E8D8CF0B
:1015E000E091A70281E08E0F8093A7028091BB005B
:1015F000F0E0EA57FD4F80838091A90281115CCF12
:1016000081E08093840284EA8093BC001092AA0255
:1016100026CF85EC8093BC001092AA0280914C02E8
:10162000803230F4E0914C02F0E0E45DFD4F108236
:1016300060914C0270E0E0915602F09157028CE20A
:1016400092E0099510924C020ACF1092A80234CF72
:101650001F920F920FB60F9211242F933F934F9327
:101660005F936F937F938F939F93AF93BF93CF932A
:10167000DF93EF93FF9380910802C091A103D0E024
:1016800087FF24C010928500109284008091080288
:101690008F5F8093080280910802082E000C990B3E
:1016A0008C179D0724F4809108028C30C4F180913E
:1016B000840090918500049680349C4908F47AC097
:1016C0008091840090918500049676C080910802F4
:1016D000082E000C990B8C179D07C4F6E0910802A8
:1016E0008E2FEE0F990BFC01EE0FFF1FE80FF91F75
:1016F000E358FC4F808186FFC9CFE09108028E2F0E
:10170000EE0F990BFC01EE0FFF1FE80FF91FE358D6
:10171000FC4F808160E08F730E941002B7CF209150
:10172000840030918500E09108028E2FEE0F990B16
:10173000FC01EE0FFF1FE80FF91FE358FC4F8181FA
:101740009281820F931F9093890080938800E0918B
:1017500008028E2FEE0F990BFC01EE0FFF1FE80F12
:10176000F91FE358FC4F808186FF11C0E091080209
:101770008E2FEE0F990BFC01EE0FFF1FE80FF91FE4
:10178000E358FC4F808161E08F730E941002FF914B
:10179000EF91DF91CF91BF91AF919F918F917F9109
:1017A0006F915F914F913F912F910F900FBE0F90CE
:1017B0001F90189580E49CE990938900809388009D
:1017C0008FEF80930802E3CFCF92DF92EF92FF92E8
:1017D0000F931F93E82FF92F05C00150110921091C
:1017E000310961F1908196239417B9F305C0015036
:1017F00011092109310911F1908196239413F7CF32
:10180000C12CD12CE12CF12C0AC08FEFC81AD80AB8
:10181000E80AF80A0C151D052E053F0579F08081B0
:101820008623841791F36C2D7D2D8E2D9F2D1F9176
:101830000F91FF90EF90DF90CF90089560E070E0FF
:1018400080E090E01F910F91FF90EF90DF90CF909C
:101850000895CF931092D7021092D60288EE93E0AB
:10186000A0E0B0E08093D8029093D902A093DA026E
:10187000B093DB022EE531E03093D5022093D40201
:1018800025EC30E03093E1022093E00224EC30E0DC
:101890003093E3022093E20220EC30E03093E50243
:1018A0002093E40221EC30E03093E7022093E6023B
:1018B00022EC30E03093E9022093E80226EC30E09D
:1018C0003093EB022093EA021092ED021092EE02A6
:1018D0001092EF021092F0021092740310927303B0
:1018E0008093750390937603A0937703B093780366
:1018F00080E791E090937203809371031092A803A4
:101900001092A70382E891E09093A6038093A50329
:101910008CE08093A903CFEFC093AA038BE0809360
:10192000AB038AE08093AC0389E08093AD0388E049
:101930008093AE0387E08093AF031092B0031092C0
:10194000B1031092B2031092B3031092B40381E07A
:101950000E9438078091A1038C30A0F491E0980F89
:101960009093A1038093A20390E0FC01EE0FFF1F70
:10197000E80FF91FE358FC4F88EB9BE092838183CB
:10198000CF910895C093A203FBCFCF93DF93CDB740
:10199000DEB762970FB6F894DEBF0FBECDBF789466
:1019A00084B5826084BD84B5816084BD85B5826064
:1019B00085BD85B5816085BD80916E008160809315
:1019C0006E0010928100809181008260809381007E
:1019D000809181008160809381008091800081608E
:1019E000809380008091B10084608093B1008091E9
:1019F000B00081608093B00080917A008460809311
:101A00007A0080917A00826080937A0080917A00D7
:101A1000816080937A0080917A00806880937A0058
:101A20001092C10080915A0290915B02009711F0D0
:101A30000E94961486E090E00E94FA137C0188E6EA
:101A4000F701808381E793E092838183138280E2B0
:101A500090E095838483F0925B02E0925A021092A8
:101A60006302109262021092B1021092D3020E949D
:101A7000200381EE91E0909359028093580282EE08
:101A800091E0909357028093560201E0F70103839F
:101A9000C7010E94F3041A8A80915A0290915B0256
:101AA000FC0124813581232B89F020810093B00231
:101AB0002093D2021092B1021092D30221E041E0B1
:101AC00050E0BE016E5E7F4F0E94D50441E050E0C1
:101AD000CE0101967C01BC0180915A0290915B027B
:101AE0000E946F05898190E0880F892F881F990BCC
:101AF000892B09F4A8C067EA71E084ED92E00E94A6
:101B0000F6076FEC71E084ED92E00E94F6074BE07F
:101B100050E064EA70E0C7010E942511CE010A96E8
:101B20000E945E05082FE981E154E331D8F40E2EBE
:101B3000000CFF0BE256F24F0C94F4135C10B20D44
:101B4000B20D7010B20DB10DB20DB20DB20D50103C
:101B5000B20DB20D63106E106C10B20DB20DB20D5D
:101B60006A1012E0CE0105960E945E05D82E48E06C
:101B700050E06BE970E0C7010E942511C7010E9487
:101B80005E05B82ECE0104960E945E05A82ECE01F9
:101B900007960E945E05382F86E0F70111928A951C
:101BA000E9F72AE0832F622F0E94D413982F880F21
:101BB000890F880F830F8A838A2D0E94D413982F50
:101BC000880F890F880F8A0D8B838B2D0E94D41369
:101BD000982F880F890F880F8B0D8C838D2D0E9475
:101BE000D413982F880F890F880F8D0D8E83812F26
:101BF0000E94D413982F990F890F880F180F1F83F5
:101C0000802F0E94D413982F880F890F880F800F80
:101C1000888780915A0290915B02FC012481358172
:101C20002830310580F0208131E03093B0022093DC
:101C3000D2021092B1021092D30221E048E050E0AB
:101C4000B7010E94D50482E00E9438078091A20368
:101C50008C3008F051C061E083E00E945C0280910A
:101C6000A203282F30E0F901EE0FFF1FE20FF31F50
:101C7000E358FC4F9081907C936090831092A30373
:101C80001092A4032CE0622F0E94D413829FB00113
:101C9000112430E020E0AB01420F531FFA01EE0F98
:101CA000FF1FE40FF51FE358FC4F908196FD16C00F
:101CB0002F5F3F4F2C30310571F781110FC010920B
:101CC000800082E080938100109285001092840051
:101CD000B19A80916F00826080936F00E091A203BF
:101CE0008E2F90E0FC01EE0FFF1FE80FF91FE35865
:101CF000FC4F80818064808390E080E00E949C00A3
:101D000060E086E00E945C0261E085E00E945C0287
:101D100061E084E00E945C0260E08EE00E945C0270
:101D200061E082E00E945C0260E081E10E945C026E
:101D300061E082E00E94100293E0A92EB12C23E220
:101D4000822E912C3CE0D32E40E0642E40E0742E95
:101D500060E085E00E941002C5010197F1F761E0A3
:101D600085E00E941002C4010197F1F760E085E070
:101D70000E941002E4EDF0E06491E0ECF0E0849168
:101D8000E82FF0E0EE0FFF1FE055FF4F8591949193
:101D900000E412E42FE030E0462F0E94E40B1B0128
:101DA0002C01211431044104510439F0FFEF2F1AA2
:101DB0003F0A4F0A5F0A2FE052228EE00E948D02F6
:101DC000909361028093600281E10E948D02BC01C8
:101DD000990F880B990B0E94351126EF38E24CE9D8
:101DE00050E40E94941120E030E040E251E40E946F
:101DF000221360935C0270935D0280935E02909365
:101E00005F02198200915A0210915B02F8018481ED
:101E10009581892BC9F0808191E09093B0028093E5
:101E2000D2021092B1021092D30220E041E050E0C1
:101E3000B701C8010E94D504882331F047E050E083
:101E4000B701C8010E946F0559815F776A817B8164
:101E5000ED812E813F81832F90E044E09595879519
:101E60004A95E1F7982F990F990F482F491B440F76
:101E7000430F4C87822F90E0F4E095958795FA9573
:101E8000E1F7982F990F990F891B880F820F8D8783
:101E90002E2F30E0A4E035952795AA95E1F7822F03
:101EA000880F880F281B220F2E0F2E87872F90E078
:101EB000B4E095958795BA95E1F7982F990F990F0A
:101EC000891B880F870F8F87262F30E014E0359508
:101ED00027951A95E1F7822F880F880F281B220F6C
:101EE000260F288B852F90E004E0959587950A951D
:101EF000E1F7982F990F990F891B880F850F898B10
:101F000050E04053584F70E060E02AE084ED92E0EA
:101F10000E94050862ED71E084ED92E00E9458088D
:101F20006D8584ED92E00E94510864ED71E084EDCE
:101F300092E00E9458080E94300780E00E94D90772
:101F4000CE010C960E942C058D9DB001112460508D
:101F50007F4F85EA93E00E94580866ED71E085EABC
:101F600093E00E9458086F8585EA93E00E9451082B
:101F70008AE30E94ED07688985EA93E00E94510890
:101F80008AE30E94ED07698985EA93E00E9451087F
:101F90008F858B3009F0A9C0C201B1019595879555
:101FA000779567950E94351127EC3BE44BEE51E4A1
:101FB0000E9422130E9494131B012C0188898831EE
:101FC00009F090C060E084E00E9410020E94300797
:101FD00080E00E94D907CE010C960E942C058D9DB1
:101FE000B001112460507F4F85EA93E00E945808A9
:101FF00066ED71E085EA93E00E9458086F8585EAF6
:1020000093E00E9451088AE30E94ED07688985EAFF
:1020100093E00E9451088AE30E94ED07698985EAEE
:1020200093E00E9451086FEC71E085EA93E00E9412
:10203000F60781E00E94D90768ED71E085EA93E038
:102040000E945808F5E12F163104410451040CF4A4
:10205000F9C084EB90E00E949C0020E030E040EF6B
:1020600051E460915C0270915D0280915E029091FA
:102070005F020E94CA1387FF0E945A0864E670E05C
:1020800080E090E00E94C7026114710409F460CE00
:102090000E94CD01882309F45BCE0E94000058CE37
:1020A0008A8111E0813609F45DCD8B8117E08E368F
:1020B00009F058CD16E056CD8B8118E0823709F033
:1020C00051CD14E04FCD8B8115E0823709F04ACD18
:1020D00013E048CD19E046CD1AE044CD1BE042CDD7
:1020E0001CE040CD8A3109F462C090E080E00E949B
:1020F0009C0060E084E00E9410020E94300780E0B3
:102100000E94D907CE010C960E942C058D9DB0012E
:10211000112460507F4F85EA93E00E94580866EED4
:1021200071E085EA93E00E9458086F8585EA93E0A4
:102130000E9451088AE30E94ED07688985EA93E0CE
:102140000E9451088AE30E94ED07698985EA93E0BD
:102150000E9451086FEC71E085EA93E00E94F60757
:1021600081E00E94D90769EE71E085EA93E00E9460
:10217000580820E030E040EF51E460915C0270913B
:102180005D0280915E0290915F020E94CA1387FFF8
:102190000E945A08809160029091610261E0853F3F
:1021A00091400CF060E084E00E94100256CF60E0A5
:1021B00084E00E94100280E00E94D907CE010C96B4
:1021C0000E942C058D9DB001112460507F4F85EA3F
:1021D00093E00E94580866ED71E085EA93E00E9462
:1021E00058086F8585EA93E00E94510868EF71E016
:1021F00085EA93E00E945808688985EA93E00E9486
:10220000510868EF71E085EA93E00E9458086989F7
:1022100085EA93E00E9451086FEC71E085EA93E053
:102220000E94F60781E00E94D9076AEF71E085EA13
:1022300093E00E94580885E12816310441045104B6
:102240000CF007CF90E080E006CFFB01DC0102C07C
:1022500005900D9241505040D8F708950E9470119A
:1022600008F481E00895E89409C097FB3EF4909546
:102270008095709561957F4F8F4F9F4F9923A9F05F
:10228000F92F96E9BB279395F695879577956795EE
:10229000B795F111F8CFFAF4BB0F11F460FF1BC032
:1022A0006F5F7F4F8F4F9F4F16C0882311F096E9C5
:1022B00011C0772321F09EE8872F762F05C0662373
:1022C00071F096E8862F70E060E02AF09A95660F2C
:1022D000771F881FDAF7880F9695879597F90895E5
:1022E000990F0008550FAA0BE0E8FEEF1616170627
:1022F000E807F907C0F012161306E407F50798F08F
:10230000621B730B840B950B39F40A2661F0232BA7
:10231000242B252B21F408950A2609F4A140A69523
:102320008FEF811D811D08950E94A7110C94181232
:102330000E940A1238F00E94111220F0952311F029
:102340000C9401120C94071211240C944C120E944C
:10235000291270F3959FC1F3950F50E0551F629FAE
:10236000F001729FBB27F00DB11D639FAA27F00DEE
:10237000B11DAA1F649F6627B00DA11D661F829F15
:102380002227B00DA11D621F739FB00DA11D621FFA
:10239000839FA00D611D221F749F3327A00D611D17
:1023A000231F849F600D211D822F762F6A2F1124F9
:1023B0009F5750409AF0F1F088234AF0EE0FFF1F2C
:1023C000BB1F661F771F881F91505040A9F79E3F83
:1023D000510580F00C9401120C944C125F3FE4F311
:1023E000983ED4F3869577956795B795F795E795D9
:1023F0009F5FC1F7FE2B880F911D9695879597F9E2
:10240000089597F99F6780E870E060E008959FEF76
:1024100080EC089500240A9416161706180609067B
:10242000089500240A94121613061406050608954A
:10243000092E0394000C11F4882352F0BB0F40F4D2
:10244000BF2B11F460FF04C06F5F7F4F8F4F9F4F12
:10245000089557FD9058440F551F59F05F3F71F094
:102460004795880F97FB991F61F09F3F79F08795FB
:102470000895121613061406551FF2CF4695F1DF84
:1024800008C0161617061806991FF1CF8695710514
:10249000610508940895E894BB2766277727CB0148
:1024A00097F90895052E97FB1EF400940E94691277
:1024B00057FD07D00E94841207FC03D04EF40C9401
:1024C000691250954095309521953F4F4F4F5F4F82
:1024D000089590958095709561957F4F8F4F9F4F90
:1024E00008950E94A612A59F900DB49F900DA49FE1
:1024F000800D911D11240895B7FF0C9471120E9454
:102500007112821B930B0895A1E21A2EAA1BBB1B0A
:10251000FD010DC0AA1FBB1FEE1FFF1FA217B307AF
:10252000E407F50720F0A21BB30BE40BF50B661FC5
:10253000771F881F991F1A9469F760957095809589
:1025400090959B01AC01BD01CF010895A29FB00100
:10255000B39FC001A39F700D811D1124911DB29FD7
:10256000700D811D1124911D08955058BB27AA2775
:102570000E94CD120C9418120E940A1238F00E9488
:10258000111220F039F49F3F19F426F40C9407122D
:102590000EF4E095E7FB0C940112E92F0E9429123A
:1025A00058F3BA17620773078407950720F079F488
:1025B000A6F50C944B120EF4E0950B2EBA2FA02D1D
:1025C0000B01B90190010C01CA01A0011124FF27E0
:1025D000591B99F0593F50F4503E68F11A16F040DB
:1025E000A22F232F342F4427585FF3CF46953795DA
:1025F0002795A795F0405395C9F77EF41F16BA0B9F
:10260000620B730B840BBAF09150A1F0FF0FBB1F4C
:10261000661F771F881FC2F70EC0BA0F621F731F95
:10262000841F48F4879577956795B795F7959E3FF2
:1026300008F0B0CF9395880F08F09927EE0F979583
:10264000879508950E9436130C9418120E94111257
:1026500058F00E940A1240F029F45F3F29F00C94D0
:10266000011251110C944C120C9407120E94291261
:1026700068F39923B1F3552391F3951B550BBB27B1
:10268000AA2762177307840738F09F5F5F4F220FF6
:10269000331F441FAA1FA9F335D00E2E3AF0E0E8ED
:1026A00032D091505040E695001CCAF72BD0FE2F37
:1026B00029D0660F771F881FBB1F261737074807CB
:1026C000AB07B0E809F0BB0B802DBF01FF27935883
:1026D0005F4F3AF09E3F510578F00C9401120C9434
:1026E0004C125F3FE4F3983ED4F386957795679557
:1026F000B795F7959F5FC9F7880F911D96958795B8
:1027000097F90895E1E0660F771F881FBB1F6217D6
:1027100073078407BA0720F0621B730B840BBA0B94
:10272000EE1F88F7E09508950E949B136894B111FD
:102730000C944C1208950E94311288F09F5798F023
:10274000B92F9927B751B0F0E1F0660F771F881FB6
:10275000991F1AF0BA95C9F714C0B13091F00E94D0
:102760004B12B1E008950C944B12672F782F8827F5
:10277000B85F39F0B93FCCF3869577956795B395F7
:10278000D9F73EF490958095709561957F4F8F4F66
:102790009F4F08950E94701108F48FEF08950E94D2
:1027A0007011880B990B0895991B79E004C0991F4B
:1027B000961708F0961B881F7A95C9F7809508959B
:1027C000AA1BBB1B51E107C0AA1FBB1FA617B70757
:1027D00010F0A61BB70B881F991F5A95A9F7809573
:1027E0009095BC01CD010895EE0FFF1F0590F49167
:1027F000E02D09940F931F93CF93DF9382309105BF
:1028000010F482E090E0E091BF03F091C00330E06B
:1028100020E0B0E0A0E0309799F42115310509F4EB
:102820004AC0281B390B24303105D8F58A819B8199
:102830006115710589F1FB0193838283FE0111C04B
:10284000408151810281138148175907E0F04817F0
:10285000590799F4109761F012960C9312971396FA
:102860001C933296CF01DF91CF911F910F91089564
:102870000093BF031093C003F4CF2115310551F02D
:102880004217530738F0A901DB019A01BD01DF01AE
:10289000F801C1CFEF01F9CF9093C0038093BF033C
:1028A000CDCFFE01E20FF31F8193919322503109A6
:1028B00039832883D7CF2091BD033091BE03232BCA
:1028C00041F420915601309157013093BE0320937B
:1028D000BD0320915401309155012115310541F47A
:1028E0002DB73EB74091580150915901241B350B2B
:1028F000E091BD03F091BE03E217F307A0F42E1B95
:102900003F0B2817390778F0AC014E5F5F4F241753
:10291000350748F04E0F5F1F5093BE034093BD0331
:10292000819391939FCFF0E0E0E09CCFCF93DF9332
:102930000097E9F0FC01329713821282A091BF0345
:10294000B091C003ED0130E020E01097A1F42081A8
:102950003181820F931F2091BD033091BE03281750
:10296000390709F061C0F093BE03E093BD03DF9126
:10297000CF910895EA01CE17DF07E8F54A815B8120
:102980009E0141155105B1F7E901FB83EA834991A5
:102990005991C40FD51FEC17FD0761F48081918117
:1029A0000296840F951FE901998388838281938120
:1029B0009B838A83F0E0E0E012968D919C911397BF
:1029C0000097B9F52D913C911197CD010296820F98
:1029D000931F2091BD033091BE032817390739F6A4
:1029E000309751F51092C0031092BF03B093BE030D
:1029F000A093BD03BCCFD383C28340815181840F98
:102A0000951FC817D90761F44E5F5F4F8881998180
:102A1000480F591F518340838A819B81938382830E
:102A20002115310509F0B0CFF093C003E093BF0347
:102A30009ECFFD01DC01C0CF13821282D7CFF89464
:102A4000FFCF53756E0000000000000000006D6FA6
:102A50006E000000000000000000547565000000DA
:102A60000000000000007765640000000000000026
:102A7000000054687500000000000000000046726D
:102A800069000000000000000000536174000000B5
:102A90000000000000000000C103800000000000F2
:102AA0006001E3010101AD013201100124010000C8
:102AB0000000A60479046C054F0472045F045004FE
:102AC00000000000E707E3016C056B0554656D70BD
:102AD000657261747572653A20006E616E00696E90
:102AE00066006F76660027430052544320697320C6
:102AF0004E6F742072756E6E696E672C206C6574F3
:102B0000277320736574207468652074696D65216E
:102B1000000D0A002F002800290066656564696EB3
:102B200067206973204F4E0029200046656564695F
:102B30006E67206973204F4646003A00466565641B
:0A2B4000696E67206973204F4E0094
:107E0000112484B714BE81FFF0D085E080938100F7
:107E100082E08093C00088E18093C10086E0809377
:107E2000C20080E18093C4008EE0C9D0259A86E02C
:107E300020E33CEF91E0309385002093840096BBD3
:107E4000B09BFECF1D9AA8958150A9F7CC24DD24C4
:107E500088248394B5E0AB2EA1E19A2EF3E0BF2EE7
:107E6000A2D0813461F49FD0082FAFD0023811F036
:107E7000013811F484E001C083E08DD089C08234E0
:107E800011F484E103C0853419F485E0A6D080C0E4
:107E9000853579F488D0E82EFF2485D0082F10E0AE
:107EA000102F00270E291F29000F111F8ED06801E7
:107EB0006FC0863521F484E090D080E0DECF843638
:107EC00009F040C070D06FD0082F6DD080E0C81688
:107ED00080E7D80618F4F601B7BEE895C0E0D1E017
:107EE00062D089930C17E1F7F0E0CF16F0E7DF06D8
:107EF00018F0F601B7BEE89568D007B600FCFDCFD4
:107F0000A601A0E0B1E02C9130E011968C91119780
:107F100090E0982F8827822B932B1296FA010C0160
:107F200087BEE89511244E5F5F4FF1E0A038BF0790
:107F300051F7F601A7BEE89507B600FCFDCF97BE46
:107F4000E89526C08437B1F42ED02DD0F82E2BD052
:107F50003CD0F601EF2C8F010F5F1F4F84911BD097
:107F6000EA94F801C1F70894C11CD11CFA94CF0C13
:107F7000D11C0EC0853739F428D08EE10CD085E9AC
:107F80000AD08FE07ACF813511F488E018D01DD067
:107F900080E101D065CF982F8091C00085FFFCCF94
:107FA0009093C60008958091C00087FFFCCF809118
:107FB000C00084FD01C0A8958091C6000895E0E648
:107FC000F0E098E1908380830895EDDF803219F02E
:107FD00088E0F5DFFFCF84E1DECF1F93182FE3DFCA
:107FE0001150E9F7F2DF1F91089580E0E8DFEE27F6
:047FF000FF270994CA
:027FFE00040479
:00000001FF
